{"abi":[{"type":"constructor","inputs":[{"name":"factory_","type":"address","internalType":"address"}],"stateMutability":"nonpayable"},{"type":"function","name":"factory","inputs":[],"outputs":[{"name":"","type":"address","internalType":"address"}],"stateMutability":"view"},{"type":"function","name":"quote","inputs":[{"name":"path","type":"bytes","internalType":"bytes"},{"name":"amountIn","type":"uint256","internalType":"uint256"}],"outputs":[{"name":"amountOut","type":"uint256","internalType":"uint256"},{"name":"sqrtPriceX96AfterList","type":"uint160[]","internalType":"uint160[]"},{"name":"tickAfterList","type":"int24[]","internalType":"int24[]"}],"stateMutability":"nonpayable"},{"type":"function","name":"quoteSingle","inputs":[{"name":"params","type":"tuple","internalType":"struct UniswapV3Quoter.QuoteSingleParams","components":[{"name":"tokenIn","type":"address","internalType":"address"},{"name":"tokenOut","type":"address","internalType":"address"},{"name":"fee","type":"uint24","internalType":"uint24"},{"name":"amountIn","type":"uint256","internalType":"uint256"},{"name":"sqrtPriceLimitX96","type":"uint160","internalType":"uint160"}]}],"outputs":[{"name":"amountOut","type":"uint256","internalType":"uint256"},{"name":"sqrtPriceX96After","type":"uint160","internalType":"uint160"},{"name":"tickAfter","type":"int24","internalType":"int24"}],"stateMutability":"nonpayable"},{"type":"function","name":"uniswapV3SwapCallback","inputs":[{"name":"amount0Delta","type":"int256","internalType":"int256"},{"name":"amount1Delta","type":"int256","internalType":"int256"},{"name":"data","type":"bytes","internalType":"bytes"}],"outputs":[],"stateMutability":"view"}],"bytecode":{"object":"0x60a0604052348015600e575f5ffd5b50604051615467380380615467833981016040819052602b91603b565b6001600160a01b03166080526066565b5f60208284031215604a575f5ffd5b81516001600160a01b0381168114605f575f5ffd5b9392505050565b6080516153e36100845f395f818160b701526105f501526153e35ff3fe608060405234801561000f575f5ffd5b506004361061004a575f3560e01c806333224ae11461004e578063402358a514610079578063c45a0155146100b2578063fa461e33146100f1575b5f5ffd5b61006161005c3660046109a5565b610106565b604051610070939291906109e7565b60405180910390f35b61008c610087366004610a92565b6102ba565b604080519384526001600160a01b03909216602084015260020b90820152606001610070565b6100d97f000000000000000000000000000000000000000000000000000000000000000081565b6040516001600160a01b039091168152602001610070565b6101046100ff366004610b28565b61043f565b005b5f606080610113856104f7565b67ffffffffffffffff81111561012b5761012b610906565b604051908082528060200260200182016040528015610154578160200160208202803683370190505b509150610160856104f7565b67ffffffffffffffff81111561017857610178610906565b6040519080825280602002602001820160405280156101a1578160200160208202803683370190505b5090505f5b5f5f5f6101b289610522565b9250925092505f5f5f61020a6040518060a00160405280886001600160a01b03168152602001876001600160a01b031681526020018662ffffff1681526020018d81526020015f6001600160a01b03168152506102ba565b9250925092508189888151811061022357610223610b74565b60200260200101906001600160a01b031690816001600160a01b0316815250508088888151811061025657610256610b74565b602002602001019060020b908160020b81525050829a50868061027890610b9c565b9750506102848c61055d565b15610299576102928c610596565b9b506102a7565b8a99505050505050506102b2565b5050505050506101a6565b509250925092565b5f5f5f5f6102d4855f0151866020015187604001516105c7565b90505f85602001516001600160a01b0316865f01516001600160a01b0316109050816001600160a01b031663dd5a12d8308389606001518a608001516001600160a01b03165f14610329578a60800151610362565b856103525761034d600173fffd8963efd1fc6a506488495d951d5263988d26610bb4565b610362565b6103626401000276a36001610bd3565b604080516001600160a01b038a166020820152016040516020818303038152906040526040518663ffffffff1660e01b81526004016103a5959493929190610bf2565b60408051808303815f875af19250505080156103de575060408051601f3d908101601f191682019092526103db91810190610c55565b60015b610433573d80801561040b576040519150601f19603f3d011682016040523d82523d5f602084013e610410565b606091505b50808060200190518101906104259190610c8d565b955095509550505050610438565b505050505b9193909250565b5f818060200190518101906104549190610cc8565b90505f5f851361046c5761046785610cea565b610475565b61047584610cea565b90505f5f836001600160a01b0316633850c7bd6040518163ffffffff1660e01b815260040160a060405180830381865afa1580156104b5573d5f5f3e3d5ffd5b505050506040513d601f19601f820116820180604052508101906104d99190610d15565b50505091509150604051838152826020820152816040820152606081fd5b5f61050460036014610d78565b601483516105129190610d8b565b61051c9190610d9e565b92915050565b5f808061052f8482610624565b925061053c84601461068d565b905061055461054d60036014610d78565b8590610624565b91509193909250565b5f61056a60036014610d78565b6014610577600382610d78565b6105819190610d78565b61058b9190610d78565b825110159050919050565b606061051c6105a760036014610d78565b6105b360036014610d78565b84516105bf9190610d8b565b8491906106e9565b5f826001600160a01b0316846001600160a01b0316106105e85782846105eb565b83835b909450925061061c7f00000000000000000000000000000000000000000000000000000000000000008585856107f5565b949350505050565b5f610630826014610d78565b8351101561067d5760405162461bcd60e51b8152602060048201526015602482015274746f416464726573735f6f75744f66426f756e647360581b60448201526064015b60405180910390fd5b500160200151600160601b900490565b5f610699826003610d78565b835110156106e05760405162461bcd60e51b8152602060048201526014602482015273746f55696e7432345f6f75744f66426f756e647360601b6044820152606401610674565b50016003015190565b6060816106f781601f610d78565b10156107365760405162461bcd60e51b815260206004820152600e60248201526d736c6963655f6f766572666c6f7760901b6044820152606401610674565b6107408284610d78565b845110156107845760405162461bcd60e51b8152602060048201526011602482015270736c6963655f6f75744f66426f756e647360781b6044820152606401610674565b6060821580156107a25760405191505f8252602082016040526107ec565b6040519150601f8416801560200281840101858101878315602002848b0101015b818310156107db5780518352602092830192016107c3565b5050858452601f01601f1916604052505b50949350505050565b5f826001600160a01b0316846001600160a01b031610610813575f5ffd5b6040516bffffffffffffffffffffffff19606086811b8216602084015285901b1660348201526001600160e81b031960e884901b1660488201528590604b016040516020818303038152906040528051906020012060405180602001610878906108f9565b6020820181038252601f19601f82011660405250805190602001206040516020016108d8939291906001600160f81b0319815260609390931b6bffffffffffffffffffffffff191660018401526015830191909152603582015260550190565b60408051601f19818403018152919052805160209091012095945050505050565b6145f080610dbe83390190565b634e487b7160e01b5f52604160045260245ffd5b5f82601f830112610929575f5ffd5b813567ffffffffffffffff81111561094357610943610906565b604051601f8201601f19908116603f0116810167ffffffffffffffff8111828210171561097257610972610906565b604052818152838201602001851015610989575f5ffd5b816020850160208301375f918101602001919091529392505050565b5f5f604083850312156109b6575f5ffd5b823567ffffffffffffffff8111156109cc575f5ffd5b6109d88582860161091a565b95602094909401359450505050565b5f60608201858352606060208401528085518083526080850191506020870192505f5b81811015610a315783516001600160a01b0316835260209384019390920191600101610a0a565b50508381036040850152845180825260209182019250908501905f5b81811015610a6e57825160020b845260209384019390920191600101610a4d565b5091979650505050505050565b6001600160a01b0381168114610a8f575f5ffd5b50565b5f60a0828403128015610aa3575f5ffd5b5060405160a0810167ffffffffffffffff81118282101715610ac757610ac7610906565b6040528235610ad581610a7b565b81526020830135610ae581610a7b565b6020820152604083013562ffffff81168114610aff575f5ffd5b6040820152606083810135908201526080830135610b1c81610a7b565b60808201529392505050565b5f5f5f60608486031215610b3a575f5ffd5b8335925060208401359150604084013567ffffffffffffffff811115610b5e575f5ffd5b610b6a8682870161091a565b9150509250925092565b634e487b7160e01b5f52603260045260245ffd5b634e487b7160e01b5f52601160045260245ffd5b5f60018201610bad57610bad610b88565b5060010190565b6001600160a01b03828116828216039081111561051c5761051c610b88565b6001600160a01b03818116838216019081111561051c5761051c610b88565b60018060a01b0386168152841515602082015283604082015260018060a01b038316606082015260a060808201525f82518060a0840152806020850160c085015e5f60c0828501015260c0601f19601f8301168401019150509695505050505050565b5f5f60408385031215610c66575f5ffd5b505080516020909101519092909150565b8051600281900b8114610c88575f5ffd5b919050565b5f5f5f60608486031215610c9f575f5ffd5b835192506020840151610cb181610a7b565b9150610cbf60408501610c77565b90509250925092565b5f60208284031215610cd8575f5ffd5b8151610ce381610a7b565b9392505050565b5f600160ff1b8201610cfe57610cfe610b88565b505f0390565b805161ffff81168114610c88575f5ffd5b5f5f5f5f5f60a08688031215610d29575f5ffd5b8551610d3481610a7b565b9450610d4260208701610c77565b9350610d5060408701610d04565b9250610d5e60608701610d04565b9150610d6c60808701610d04565b90509295509295909350565b8082018082111561051c5761051c610b88565b8181038181111561051c5761051c610b88565b5f82610db857634e487b7160e01b5f52601260045260245ffd5b50049056fe610120604052348015610010575f5ffd5b50336001600160a01b031663890357306040518163ffffffff1660e01b815260040160a0604051808303815f875af115801561004e573d5f5f3e3d5ffd5b505050506040513d601f19601f8201168201806040525081019061007291906100cb565b62ffffff908116610100521660e0526001600160a01b0390811660c05290811660a0521660805261012c565b80516001600160a01b03811681146100b4575f5ffd5b919050565b805162ffffff811681146100b4575f5ffd5b5f5f5f5f5f60a086880312156100df575f5ffd5b6100e88661009e565b94506100f66020870161009e565b93506101046040870161009e565b9250610112606087016100b9565b9150610120608087016100b9565b90509295509295909350565b60805160a05160c05160e051610100516144096101e75f395f818161046b0152818161082a01528181610860015261139e01525f81816103f6015281816112f201528181611c550152611c8d01525f81816104310152818161093b01528181610a4b01528181610bd201528181610e6e0152818161171a0152611e9901525f818161013b015281816108af015281816109c901528181610b2201528181610d7c015281816118450152611e0a01525f6103cf01526144095ff3fe608060405234801561000f575f5ffd5b5060043610610132575f3560e01c80635339c296116100b4578063d21220a711610079578063d21220a71461042c578063dd5a12d814610453578063ddca3f4314610466578063f30583991461048d578063f30dba9314610495578063f637731d1461051d575f5ffd5b80635339c29614610378578063883bdbfd14610397578063a34123a7146103b7578063c45a0155146103ca578063d0c93a7c146103f1575f5ffd5b80633c8a7d8d116100fa5780633c8a7d8d14610273578063461413191461029b5780634a182392146102b25780634f1eb3d8146102c5578063514ea4bf146102f8575f5ffd5b80630dfe1681146101365780631a6865021461017a578063252c09d7146101a557806332148f67146101df5780633850c7bd146101f4575b5f5ffd5b61015d7f000000000000000000000000000000000000000000000000000000000000000081565b6040516001600160a01b0390911681526020015b60405180910390f35b60035461018d906001600160801b031681565b6040516001600160801b039091168152602001610171565b6101b86101b3366004613b81565b610530565b6040805163ffffffff909416845260069290920b6020840152151590820152606001610171565b6101f26101ed366004613b98565b610563565b005b60028054610235916001600160a01b03821691600160a01b810490910b9061ffff600160b81b8204811691600160c81b8104821691600160d81b9091041685565b604080516001600160a01b03909616865260029490940b602086015261ffff928316938501939093528116606084015216608082015260a001610171565b610286610281366004613c3c565b6105f2565b60408051928352602083019190915201610171565b6102a460015481565b604051908152602001610171565b6101f26102c0366004613cbf565b610823565b6102d86102d3366004613d0e565b610ca8565b604080516001600160801b03938416815292909116602083015201610171565b610342610306366004613b81565b60066020525f908152604090208054600182015460028301546003909301546001600160801b0392831693919281811691600160801b90041685565b604080516001600160801b039687168152602081019590955284019290925283166060830152909116608082015260a001610171565b6102a4610386366004613d71565b60056020525f908152604090205481565b6103aa6103a5366004613d91565b610f70565b6040516101719190613e02565b6102866103c5366004613e47565b610fdf565b61015d7f000000000000000000000000000000000000000000000000000000000000000081565b6104187f000000000000000000000000000000000000000000000000000000000000000081565b60405162ffffff9091168152602001610171565b61015d7f000000000000000000000000000000000000000000000000000000000000000081565b610286610461366004613e87565b611115565b6104187f000000000000000000000000000000000000000000000000000000000000000081565b6102a45f5481565b6104e26104a3366004613ed2565b60046020525f9081526040902080546001820154600283015460039093015460ff8316936101009093046001600160801b031692600f9290920b919085565b6040805195151586526001600160801b039094166020860152600f9290920b928401929092526060830191909152608082015260a001610171565b6101f261052b366004613eeb565b6119e8565b60078161ffff8110610540575f80fd5b015463ffffffff81169150600160201b810460060b90600160581b900460ff1683565b600254600160d81b900461ffff165f61057e60078385611b05565b90508161ffff168161ffff16146105ed576002805461ffff60d81b1916600160d81b61ffff8481169182029290921790925560408051918516825260208201929092527fac49e518f90a358f652e4400164f05a5d8f7e35e7747279bc3a93dbf584e125a910160405180910390a15b505050565b5f5f8560020b8760020b1215806106105750620d89e719600288900b125b8061062c5750610623620d89e719613f1a565b60020b8660020b135b15610649576040516264847d60e41b815260040160405180910390fd5b846001600160801b03165f0361067257604051630200e8a960e31b815260040160405180910390fd5b5f5f6106af60405180608001604052808c6001600160a01b031681526020018b60020b81526020018a60020b815260200189600f0b815250611b74565b92509250508193508092505f5f5f8611156106cf576106cc611df3565b91505b84156106e0576106dd611e82565b90505b60405163d348799760e01b8152339063d34879979061070990899089908d908d90600401613f62565b5f604051808303815f87803b158015610720575f5ffd5b505af1158015610732573d5f5f3e3d5ffd5b505050505f861180156107545750610748611df3565b6107528784613f81565b115b156107725760405163098fb56160e01b815260040160405180910390fd5b5f851180156107905750610784611e82565b61078e8683613f81565b115b156107ae5760405163098fb56160e01b815260040160405180910390fd5b604080513381526001600160801b038b1660208201529081018790526060810186905260028b810b91908d900b906001600160a01b038f16907f7a53080ba414158be7ec69b987b5fb7d07dee101fe85488f0853ae16239d0bde9060800160405180910390a450505050965096945050505050565b5f610857857f000000000000000000000000000000000000000000000000000000000000000062ffffff16620f4240611ed0565b90505f61088d857f000000000000000000000000000000000000000000000000000000000000000062ffffff16620f4240611ed0565b6040516370a0823160e01b81523060048201529091505f906001600160a01b037f000000000000000000000000000000000000000000000000000000000000000016906370a08231906024016020604051808303815f875af11580156108f5573d5f5f3e3d5ffd5b505050506040513d601f19601f820116820180604052508101906109199190613f94565b6040516370a0823160e01b81523060048201529091505f906001600160a01b037f000000000000000000000000000000000000000000000000000000000000000016906370a08231906024016020604051808303815f875af1158015610981573d5f5f3e3d5ffd5b505050506040513d601f19601f820116820180604052508101906109a59190613f94565b90508715610a295760405163a9059cbb60e01b8152336004820152602481018990527f00000000000000000000000000000000000000000000000000000000000000006001600160a01b03169063a9059cbb906044015f604051808303815f87803b158015610a12575f5ffd5b505af1158015610a24573d5f5f3e3d5ffd5b505050505b8615610aab5760405163a9059cbb60e01b8152336004820152602481018890527f00000000000000000000000000000000000000000000000000000000000000006001600160a01b03169063a9059cbb906044015f604051808303815f87803b158015610a94575f5ffd5b505af1158015610aa6573d5f5f3e3d5ffd5b505050505b604051630e9cbafb60e41b8152339063e9cbafb090610ad490879087908b908b90600401613f62565b5f604051808303815f87803b158015610aeb575f5ffd5b505af1158015610afd573d5f5f3e3d5ffd5b505050508382610b0d9190613f81565b6040516370a0823160e01b81523060048201527f00000000000000000000000000000000000000000000000000000000000000006001600160a01b0316906370a08231906024016020604051808303815f875af1158015610b70573d5f5f3e3d5ffd5b505050506040513d601f19601f82011682018060405250810190610b949190613f94565b1015610bb357604051637bc35e0560e01b815260040160405180910390fd5b610bbd8382613f81565b6040516370a0823160e01b81523060048201527f00000000000000000000000000000000000000000000000000000000000000006001600160a01b0316906370a08231906024016020604051808303815f875af1158015610c20573d5f5f3e3d5ffd5b505050506040513d601f19601f82011682018060405250810190610c449190613f94565b1015610c6357604051637bc35e0560e01b815260040160405180910390fd5b604080518981526020810189905233917f1c1db1f1d6a01e51fec24bb54087b65fe5430f692280e70d92f718eb72ae76b7910160405180910390a25050505050505050565b5f8080610cb86006338989611f15565b60038101549091506001600160801b0390811690861611610cd95784610ce8565b60038101546001600160801b03165b60038201549093506001600160801b03600160801b909104811690851611610d105783610d26565b6003810154600160801b90046001600160801b03165b91506001600160801b03831615610e13576003810180548491905f90610d569084906001600160801b0316613fab565b92506101000a8154816001600160801b0302191690836001600160801b031602179055507f00000000000000000000000000000000000000000000000000000000000000006001600160a01b031663a9059cbb89856040518363ffffffff1660e01b8152600401610de59291906001600160a01b039290921682526001600160801b0316602082015260400190565b5f604051808303815f87803b158015610dfc575f5ffd5b505af1158015610e0e573d5f5f3e3d5ffd5b505050505b6001600160801b03821615610f0557818160030160108282829054906101000a90046001600160801b0316610e489190613fab565b92506101000a8154816001600160801b0302191690836001600160801b031602179055507f00000000000000000000000000000000000000000000000000000000000000006001600160a01b031663a9059cbb89846040518363ffffffff1660e01b8152600401610ed79291906001600160a01b039290921682526001600160801b0316602082015260400190565b5f604051808303815f87803b158015610eee575f5ffd5b505af1158015610f00573d5f5f3e3d5ffd5b505050505b604080516001600160a01b038a1681526001600160801b0385811660208301528416818301529051600288810b92908a900b9133917fa89c1c8a741251492622c95237828c75d1dbb03ea956f09e3792ff2a14f4fe62919081900360600190a4509550959350505050565b6060610fd6428484808060200260200160405190810160405280939291908181526020018383602002808284375f920191909152505060028054600795949350600160a01b810490910b915061ffff600160b81b8204811691600160c81b900416611f71565b90505b92915050565b5f5f5f5f5f6110276040518060800160405280336001600160a01b031681526020018a60020b81526020018960020b81526020018861101d90613fca565b600f0b9052611b74565b9250925092508161103790613fef565b945061104281613fef565b93505f85118061105157505f84115b156110b357600383015461106f9086906001600160801b0316614009565b600384015461108f908690600160801b90046001600160801b0316614009565b6001600160801b039182169116600160801b026001600160801b0319161760038401555b604080516001600160801b038816815260208101879052908101859052600288810b91908a900b9033907f0c396cd989a39f4459b5fa1aed6a9a8dcdbc45908acfd67e028cd568da98982c9060600160405180910390a4505050935093915050565b6040805160a081018252600280546001600160a01b0381168352600160a01b810490910b602083015261ffff600160b81b8204811693830193909352600160c81b810483166060830152600160d81b900490911660808201526003545f9182916001600160801b0316886111c757815f01516001600160a01b0316876001600160a01b031610806111c2575073fffd8963efd1fc6a506488495d951d5263988d266001600160a01b038816115b6111f7565b815f01516001600160a01b0316876001600160a01b031611806111f757506401000276a36001600160a01b038816105b1561121557604051632d4eeeb360e21b815260040160405180910390fd5b5f6040518060c001604052808a81526020015f8152602001845f01516001600160a01b03168152602001846020015160020b81526020018b6112595760015461125c565b5f545b8152602001836001600160801b031681525090505b8051158015906112975750876001600160a01b031681604001516001600160a01b031614155b15611588576040805160e0810182525f80825260208201819052918101829052606081018290526080810182905260a0810182905260c081019190915260408201516001600160a01b031681526060820151611317906005907f00000000000000000000000000000000000000000000000000000000000000008e612023565b1515604083015260020b60208201819052611331906121d8565b6001600160a01b0316606082015260408201516113c2908c61136b578a6001600160a01b031683606001516001600160a01b031611611385565b8a6001600160a01b031683606001516001600160a01b0316105b611393578260600151611395565b8a5b60a085015185517f00000000000000000000000000000000000000000000000000000000000000006125f7565b60c0850190815260a0850191909152608084019182526001600160a01b039092166040850152905190516113f69190613f81565b82518390611405908390614028565b90525060a081015160208301805161141e908390613f81565b90525060a08201516001600160801b031615611469576114548160c00151600160801b8460a001516001600160801b0316612727565b826080018181516114659190613f81565b9052505b80606001516001600160a01b031682604001516001600160a01b03160361154c5780604001511561151f575f6114cc82602001518d6114a9575f546114af565b84608001515b8e6114be5785608001516114c2565b6001545b60049291906127ef565b90508b156114e0576114dd81613fca565b90505b6114ee8360a001518261283b565b6001600160801b031660a084018190525f0361151d57604051634323a55560e01b815260040160405180910390fd5b505b8a61152e57806020015161153f565b6001816020015161153f919061403b565b60020b6060830152611582565b805f01516001600160a01b031682604001516001600160a01b03161461158257611579826040015161286b565b60020b60608301525b50611271565b826020015160020b816060015160020b14611645575f5f6115c985604001516115ae4290565b6020880151606089015160808a015160079493929190612ba0565b604085015160608601516002805463ffffffff60b81b1916600160c81b61ffff9586160261ffff60b81b191617600160b81b9590941694909402929092176001600160b81b031916600160a01b62ffffff909316929092026001600160a01b031916919091176001600160a01b039091161790555061166a9050565b6040810151600280546001600160a01b0319166001600160a01b039092169190911790555b8060a001516001600160801b0316826001600160801b0316146116ac5760a0810151600380546001600160801b0319166001600160801b039092169190911790555b89156116be5760808101515f556116c7565b60808101516001555b896116eb5780602001516116da90613fef565b81516116e6908b614028565b611705565b80516116f7908a614028565b816020015161170590613fef565b9095509350891561183b576001600160a01b037f00000000000000000000000000000000000000000000000000000000000000001663a9059cbb8c61174987613fef565b6040516001600160e01b031960e085901b1681526001600160a01b03909216600483015260248201526044015f604051808303815f87803b15801561178c575f5ffd5b505af115801561179e573d5f5f3e3d5ffd5b505050505f6117ab611df3565b60405163fa461e3360e01b8152909150339063fa461e33906117d790899089908d908d90600401613f62565b5f604051808303815f87803b1580156117ee575f5ffd5b505af1158015611800573d5f5f3e3d5ffd5b5050505061180c611df3565b6118168783613f81565b11156118355760405163098fb56160e01b815260040160405180910390fd5b50611962565b6001600160a01b037f00000000000000000000000000000000000000000000000000000000000000001663a9059cbb8c61187488613fef565b6040516001600160e01b031960e085901b1681526001600160a01b03909216600483015260248201526044015f604051808303815f87803b1580156118b7575f5ffd5b505af11580156118c9573d5f5f3e3d5ffd5b505050505f6118d6611e82565b60405163fa461e3360e01b8152909150339063fa461e339061190290899089908d908d90600401613f62565b5f604051808303815f87803b158015611919575f5ffd5b505af115801561192b573d5f5f3e3d5ffd5b50505050611937611e82565b6119418683613f81565b11156119605760405163098fb56160e01b815260040160405180910390fd5b505b6002805460a083810151604080518a8152602081018a90526001600160a01b03808616828401526001600160801b039093166060820152600160a01b90940490940b60808401529251928e169233927fc42079f94a6350d7e6235f29174924f928cc2ac818eb64fed8004e115fbcca6792908290030190a3505050965096945050505050565b6002546001600160a01b031615611a115760405162dc149f60e41b815260040160405180910390fd5b5f611a1b8261286b565b90505f80611a6b426007906040805160608101825263ffffffff929092168083525f602084015260019290910182905282546bffffffffffffffffffffffff191617600160581b17909155908190565b6040805160a0810182526001600160a01b0397909716808852600287810b60208a01525f9289019290925261ffff9384166060890181905292909316608090970187905280546001600160b81b031916909217600160a01b62ffffff909616959095029490941765ffffffffffff60b81b1916600160c81b90940261ffff60d81b191693909317600160d81b909402939093179091555050565b5f8261ffff168261ffff1611611b1c575081611b6d565b825b8261ffff168161ffff161015611b68576001858261ffff1661ffff8110611b4757611b47614060565b01805463ffffffff191663ffffffff92909216919091179055600101611b1e565b508190505b9392505050565b6040805160a081018252600280546001600160a01b0381168352600160a01b810490910b60208084019190915261ffff600160b81b8304811684860152600160c81b830481166060850152600160d81b90920490911660808301525f8054600154865193870151958701519295869586959094611bf49260069291611f15565b6020808901519085015160608a01519298505f92611c19926004929091878787612ce3565b6040890151602086015160608b01519293505f92611c3f92600492909188886001612ce3565b90508115611c79576020890151611c79906005907f0000000000000000000000000000000000000000000000000000000000000000612de8565b8015611cb1576040890151611cb1906005907f0000000000000000000000000000000000000000000000000000000000000000612de8565b6020808a015160408b0151918701515f928392611cd392600492908a8a612e38565b60608d01519193509150611cea908b908484612f20565b8a6020015160020b876020015160020b1215611d2e57611d27611d108c602001516121d8565b611d1d8d604001516121d8565b8d60600151613066565b9850611de5565b8a6040015160020b876020015160020b1215611dbb57611d58875f0151611d1d8d604001516121d8565b9850611d76611d6a8c602001516121d8565b885160608e01516130a0565b60035460608d0151919950611d96916001600160801b039091169061283b565b600380546001600160801b0319166001600160801b0392909216919091179055611de5565b611de2611dcb8c602001516121d8565b611dd88d604001516121d8565b8d606001516130a0565b97505b505050505050509193909250565b6040516370a0823160e01b81523060048201525f907f00000000000000000000000000000000000000000000000000000000000000006001600160a01b0316906370a08231906024015b6020604051808303815f875af1158015611e59573d5f5f3e3d5ffd5b505050506040513d601f19601f82011682018060405250810190611e7d9190613f94565b905090565b6040516370a0823160e01b81523060048201525f907f00000000000000000000000000000000000000000000000000000000000000006001600160a01b0316906370a0823190602401611e3d565b5f611edc848484612727565b90505f8280611eed57611eed614074565b8486091115611b6d575f198110611f02575f5ffd5b80611f0c81614088565b95945050505050565b6040805160609490941b6bffffffffffffffffffffffff191660208086019190915260e893841b60348601529190921b60378401528151601a818503018152603a90930182528251928101929092205f90815292909152902090565b6060845167ffffffffffffffff811115611f8d57611f8d6140a0565b604051908082528060200260200182016040528015611fb6578160200160208202803683370190505b5090505f5b855181101561201857611feb8888888481518110611fdb57611fdb614060565b60200260200101518888886130cc565b828281518110611ffd57611ffd614060565b60069290920b60209283029190910190910152600101611fbb565b509695505050505050565b5f808061203085876140b4565b90505f8660020b12801561204f575061204985876140ec565b60020b15155b15612062578061205e8161410d565b9150505b831561210c575f5f61207383613236565b90925090505f600160ff831681901b9061208d9082614028565b6120979190613f81565b600184900b5f90815260208c9052604090205481168015159650909150856120d657886120c760ff85168761403b565b6120d1919061412e565b612101565b886120e082613252565b6120ea9085614154565b6120f79060ff168761403b565b612101919061412e565b9650505050506121ce565b5f8061212161211c84600161416d565b613236565b90925090505f612138600160ff841681901b614028565b600184900b5f90815260208c90526040902054901990811680151596509091508561219057886121698460ff614154565b60ff1661217787600161416d565b612181919061416d565b61218b919061412e565b6121c7565b888361219b83613347565b6121a59190614154565b60ff166121b387600161416d565b6121bd919061416d565b6121c7919061412e565b9650505050505b5094509492505050565b5f5f5f8360020b126121ed578260020b6121fa565b8260020b6121fa90613fef565b9050612209620d89e719613f1a565b62ffffff168111156122465760405162461bcd60e51b81526020600482015260016024820152601560fa1b60448201526064015b60405180910390fd5b5f816001165f0361225b57600160801b61226d565b6ffffcb933bd6fad37aa2d162d1a5940015b70ffffffffffffffffffffffffffffffffff16905060028216156122ac5760806122a7826ffff97272373d413259a46990580e213a614192565b901c90505b60048216156122d65760806122d1826ffff2e50f5f656932ef12357cf3c7fdcc614192565b901c90505b60088216156123005760806122fb826fffe5caca7e10e4e61c3624eaa0941cd0614192565b901c90505b601082161561232a576080612325826fffcb9843d60f6159c9db58835c926644614192565b901c90505b602082161561235457608061234f826fff973b41fa98c081472e6896dfb254c0614192565b901c90505b604082161561237e576080612379826fff2ea16466c96a3843ec78b326b52861614192565b901c90505b60808216156123a85760806123a3826ffe5dee046a99a2a811c461f1969c3053614192565b901c90505b6101008216156123d35760806123ce826ffcbe86c7900a88aedcffc83b479aa3a4614192565b901c90505b6102008216156123fe5760806123f9826ff987a7253ac413176f2b074cf7815e54614192565b901c90505b610400821615612429576080612424826ff3392b0822b70005940c7a398e4b70f3614192565b901c90505b61080082161561245457608061244f826fe7159475a2c29b7443b29c7fa6e889d9614192565b901c90505b61100082161561247f57608061247a826fd097f3bdfd2022b8845ad8f792aa5825614192565b901c90505b6120008216156124aa5760806124a5826fa9f746462d870fdf8a65dc1f90e061e5614192565b901c90505b6140008216156124d55760806124d0826f70d869a156d2a1b890bb3df62baf32f7614192565b901c90505b6180008216156125005760806124fb826f31be135f97d08fd981231505542fcfa6614192565b901c90505b6201000082161561252c576080612527826f09aa508b5b7a84e1c677de54f3e99bc9614192565b901c90505b62020000821615612557576080612552826e5d6af8dedb81196699c329225ee604614192565b901c90505b6204000082161561258157608061257c826d2216e584f5fa1ea926041bedfe98614192565b901c90505b620800008216156125a95760806125a4826b048a170391f7dc42444e8fa2614192565b901c90505b5f8460020b13156125c2576125bf815f196141a9565b90505b6125d0600160201b826141bc565b156125dc5760016125de565b5f5b6125ef9060ff16602083901c613f81565b949350505050565b5f8080806001600160a01b03808916908a1610158161262b8861261d89620f42406141cf565b62ffffff16620f4240612727565b9050816126445761263f8b8b8b6001613470565b612651565b6126518b8b8b60016134f0565b945084811061266257899550612671565b61266e8b8a83856135b8565b95505b6001600160a01b03868116908b161482156126b4578061269d576126988c888c60016134f0565b61269f565b855b95506126ad8c888c5f613470565b94506126de565b806126cb576126c68c888c6001613470565b6126cd565b855b95506126db8c888c5f6134f0565b94505b806126f4576126ed868a614028565b9350612718565b6127158662ffffff8a1661270b8b620f42406141cf565b62ffffff16611ed0565b93505b50505095509550955095915050565b5f80805f19858709858702925082811083820303915050805f0361275e5783828161275457612754614074565b0492505050611b6d565b83811061278857604051631dcf306360e21b8152600481018290526024810185905260440161223d565b5f8486880960026001871981018816978890046003810283188082028403028082028403028082028403028082028403028082028403029081029092039091025f889003889004909101858311909403939093029303949094049190911702949350505050565b600283810b5f908152602086905260408120918201549091906128129085614028565b600282015560038101546128269084614028565b600382015560010154600f0b95945050505050565b5f5f82600f0b12156128615761285082613fca565b61285a9084613fab565b9050610fd9565b610fd68284614009565b5f6401000276a36001600160a01b038316108015906128a6575073fffd8963efd1fc6a506488495d951d5263988d266001600160a01b038316105b6128d65760405162461bcd60e51b81526020600482015260016024820152602960f91b604482015260640161223d565b640100000000600160c01b03602083901b166001600160801b03811160071b81811c67ffffffffffffffff811160061b90811c63ffffffff811160051b90811c61ffff811160041b90811c60ff8111600390811b91821c600f811160021b90811c918211600190811b92831c9790881196179094179092171790911717176080811061297157612967607f82614028565b83901c9150612982565b61297c81607f614028565b83901b91505b5f60406129906080846141ea565b901b9050828302607f1c92508260801c80603f1b8217915083811c935050828302607f1c92508260801c80603e1b8217915083811c935050828302607f1c92508260801c80603d1b8217915083811c935050828302607f1c92508260801c80603c1b8217915083811c935050828302607f1c92508260801c80603b1b8217915083811c935050828302607f1c92508260801c80603a1b8217915083811c935050828302607f1c92508260801c8060391b8217915083811c935050828302607f1c92508260801c8060381b8217915083811c935050828302607f1c92508260801c8060371b8217915083811c935050828302607f1c92508260801c8060361b8217915083811c935050828302607f1c92508260801c8060351b8217915083811c935050828302607f1c92508260801c8060341b8217915083811c935050828302607f1c92508260801c8060331b8217915083811c935050828302607f1c92508260801c8060321b82179150505f81693627a301d71055774c85612b129190614209565b90505f6080612b316f028f6481ab7f045a5af012a19d003aaa846141ea565b901d90505f6080612b52846fdb2df09e81959a81455e260799a0632f614238565b901d90508060020b8260020b14612b9157886001600160a01b0316612b76826121d8565b6001600160a01b03161115612b8b5781612b93565b80612b93565b815b9998505050505050505050565b5f5f5f888861ffff1661ffff8110612bba57612bba614060565b60408051606081018252919092015463ffffffff808216808452600160201b830460060b6020850152600160581b90920460ff161515938301939093529092509088169003612c0f5787859250925050612cd8565b8461ffff168461ffff16118015612c375750612c2c60018661425f565b61ffff168861ffff16145b15612c4457839150612c48565b8491505b81612c54896001614279565b612c5e9190614293565b9250612c6b8188886135d9565b898461ffff1661ffff8110612c8257612c82614060565b82519101805460208401516040909401511515600160581b0260ff60581b1966ffffffffffffff909516600160201b026affffffffffffffffffffff1990921663ffffffff909416939093171792909216179055505b965096945050505050565b600286900b5f908152602088905260408120805461010090046001600160801b031682612d10828961283b565b6001600160801b03808216159084168015919091141595509091505f03612d59578860020b8a60020b13612d4d5760028301879055600383018690555b825460ff191660011783555b825470ffffffffffffffffffffffffffffffff0019166101006001600160801b0383160217835584612da0576001830154612d9b90600f8a810b91900b614238565b612db6565b6001830154612db690600f8a810b91900b6141ea565b60019390930180546001600160801b0319166001600160801b0390941693909317909255509098975050505050505050565b612df281836140ec565b60020b15612dfe575f5ffd5b5f80612e0d61211c84866140b4565b600191820b5f9081526020979097526040909620805460ff9097169190911b90951890945550505050565b600285810b5f8181526020899052604080822088850b83529082209193849391929184918291908a900b12612e7857505060028201546003830154612e9c565b6002840154612e879089614028565b9150836003015487612e999190614028565b90505b5f5f8b60020b8b60020b1215612ebd57505060028301546003840154612ee1565b6002850154612ecc908b614028565b9150846003015489612ede9190614028565b90505b81612eec858c614028565b612ef69190614028565b975080612f03848b614028565b612f0d9190614028565b9650505050505050965096945050505050565b5f612f49856001015484612f349190614028565b86546001600160801b0316600160801b612727565b90505f612f74866002015484612f5f9190614028565b87546001600160801b0316600160801b612727565b8654909150612f8c906001600160801b03168661283b565b86546001600160801b0319166001600160801b0391821617875560018701859055600287018490558216151580612fcb57505f816001600160801b0316115b1561305e576003860180548391905f90612fef9084906001600160801b0316614009565b92506101000a8154816001600160801b0302191690836001600160801b03160217905550808660030160108282829054906101000a90046001600160801b03166130399190614009565b92506101000a8154816001600160801b0302191690836001600160801b031602179055505b505050505050565b5f5f82600f0b126130835761307e84848460016134f0565b6125ef565b613097848461309185613fca565b5f6134f0565b6125ef90613fef565b5f5f82600f0b126130b85761307e8484846001613470565b61309784846130c685613fca565b5f613470565b5f8463ffffffff165f03613153575f878461ffff1661ffff81106130f2576130f2614060565b60408051606081018252919092015463ffffffff808216808452600160201b830460060b6020850152600160581b90920460ff1615159383019390935290925090881614613148576131458188876135d9565b90505b60200151905061322c565b5f61315e86886142b6565b90505f5f6131708a8a858a8a8a613656565b91509150815f015163ffffffff168363ffffffff1603613198575060200151915061322c9050565b805f015163ffffffff168363ffffffff16036131bc5760200151925061322c915050565b815181515f916131cb916142b6565b63ffffffff1690505f835f0151856131e391906142b6565b63ffffffff16905080828560200151856020015161320191906142d2565b61320b91906142ff565b6132159190614332565b84602001516132249190614351565b955050505050505b9695505050505050565b600281900b60081d5f61324b610100846140ec565b9050915091565b5f5f821161325e575f5ffd5b600160801b821061327c57608091821c91613279908261437e565b90505b68010000000000000000821061329f57604091821c9161329c908261437e565b90505b600160201b82106132bd57602091821c916132ba908261437e565b90505b6201000082106132da57601091821c916132d7908261437e565b90505b61010082106132f657600891821c916132f3908261437e565b90505b6010821061331157600491821c9161330e908261437e565b90505b6004821061332c57600291821c91613329908261437e565b90505b600282106133425761333f60018261437e565b90505b919050565b5f5f8211613353575f5ffd5b5060ff6001600160801b0382161561337757613370608082614154565b905061337f565b608082901c91505b67ffffffffffffffff8216156133a15761339a604082614154565b90506133a9565b604082901c91505b63ffffffff8216156133c7576133c0602082614154565b90506133cf565b602082901c91505b61ffff8216156133eb576133e4601082614154565b90506133f3565b601082901c91505b60ff82161561340e57613407600882614154565b9050613416565b600882901c91505b600f8216156134315761342a600482614154565b9050613439565b600482901c91505b60038216156134545761344d600282614154565b905061345c565b600282901c91505b60018216156133425761333f600182614154565b5f836001600160a01b0316856001600160a01b0316111561348f579293925b81156134c6576134bf6001600160801b0384166134ac8787614397565b6001600160a01b0316600160601b611ed0565b90506125ef565b611f0c6001600160801b0384166134dd8787614397565b6001600160a01b0316600160601b612727565b5f836001600160a01b0316856001600160a01b0316111561350f579293925b5f856001600160a01b031611613523575f5ffd5b600160601b600160e01b03606084901b165f61353f8787614397565b6001600160a01b0316905083156135835761357c6135678383896001600160a01b0316611ed0565b886001600160a01b0316808204910615150190565b92506135ae565b866001600160a01b03166135a18383896001600160a01b0316612727565b6135ab91906141a9565b92505b5050949350505050565b5f816135ce576135c985858561381b565b611f0c565b611f0c858585613847565b604080516060810182525f808252602082018190529181019190915283515f9061360390856142b6565b63ffffffff16905060405180606001604052808563ffffffff168152602001828560020b6136319190614332565b87602001516136409190614351565b60060b8152600160209091015295945050505050565b604080516060810182525f8082526020820181905291810191909152604080516060810182525f8082526020820181905291810191909152878461ffff1661ffff81106136a5576136a5614060565b60408051606081018252919092015463ffffffff8116808352600160201b820460060b6020840152600160581b90910460ff1615159282019290925292506136ef908890886138e9565b1561371a57815163ffffffff878116911614612cd857816137118388886135d9565b91509150612cd8565b8783613727866001614279565b6137319190614293565b61ffff1661ffff811061374657613746614060565b60408051606081018252919092015463ffffffff81168252600160201b810460060b6020830152600160581b900460ff16151591810182905292506137bf5760408051606081018252895463ffffffff81168252600160201b810460060b6020830152600160581b900460ff1615159181019190915291505b6137cd87835f0151886138e9565b6137ff5760405162461bcd60e51b815260206004820152600360248201526213d31160ea1b604482015260640161223d565b61380c88888887876139b5565b91509150965096945050505050565b5f61383482600160601b856001600160801b0316612727565b6125ef906001600160a01b038616613f81565b5f600160601b600160e01b03606084901b168161386d6001600160a01b03871685614192565b90506001600160a01b03861661388385836141a9565b036138bc575f6138938284613f81565b90508281106138ba576138b083886001600160a01b031683611ed0565b9350505050611b6d565b505b61322c82856138d46001600160a01b038a16836141a9565b6138de9190613f81565b808204910615150190565b5f8363ffffffff168363ffffffff161115801561391257508363ffffffff168263ffffffff1611155b1561392e578163ffffffff168363ffffffff1611159050611b6d565b5f8463ffffffff168463ffffffff161161395b5761395663ffffffff8516600160201b6143b6565b613963565b8363ffffffff165b64ffffffffff1690505f8563ffffffff168463ffffffff16116139995761399463ffffffff8516600160201b6143b6565b6139a1565b8363ffffffff165b64ffffffffff169091111595945050505050565b60408051606080820183525f80835260208084018290528385018290528451928301855281835282018190529281018390529091836139f5866001614279565b6139ff9190614293565b61ffff1690505f60018561ffff1683613a189190613f81565b613a229190614028565b90505f5b6002613a328385613f81565b613a3c91906141a9565b905089613a4d61ffff8816836141bc565b61ffff8110613a5e57613a5e614060565b60408051606081018252919092015463ffffffff81168252600160201b810460060b6020830152600160581b900460ff1615159181018290529550613aaf57613aa8816001613f81565b9250613a26565b8961ffff8716613ac0836001613f81565b613aca91906141bc565b61ffff8110613adb57613adb614060565b60408051606081018252929091015463ffffffff81168352600160201b810460060b602084015260ff600160581b9091041615159082015285519094505f90613b26908b908b6138e9565b9050808015613b3e5750613b3e8a8a875f01516138e9565b15613b495750613b74565b80613b6057613b59600183614028565b9250613b6e565b613b6b826001613f81565b93505b50613a26565b5050509550959350505050565b5f60208284031215613b91575f5ffd5b5035919050565b5f60208284031215613ba8575f5ffd5b813561ffff81168114611b6d575f5ffd5b6001600160a01b0381168114613bcd575f5ffd5b50565b8035600281900b8114613342575f5ffd5b80356001600160801b0381168114613342575f5ffd5b5f5f83601f840112613c07575f5ffd5b50813567ffffffffffffffff811115613c1e575f5ffd5b602083019150836020828501011115613c35575f5ffd5b9250929050565b5f5f5f5f5f5f60a08789031215613c51575f5ffd5b8635613c5c81613bb9565b9550613c6a60208801613bd0565b9450613c7860408801613bd0565b9350613c8660608801613be1565b9250608087013567ffffffffffffffff811115613ca1575f5ffd5b613cad89828a01613bf7565b979a9699509497509295939492505050565b5f5f5f5f60608587031215613cd2575f5ffd5b8435935060208501359250604085013567ffffffffffffffff811115613cf6575f5ffd5b613d0287828801613bf7565b95989497509550505050565b5f5f5f5f5f60a08688031215613d22575f5ffd5b8535613d2d81613bb9565b9450613d3b60208701613bd0565b9350613d4960408701613bd0565b9250613d5760608701613be1565b9150613d6560808701613be1565b90509295509295909350565b5f60208284031215613d81575f5ffd5b81358060010b8114611b6d575f5ffd5b5f5f60208385031215613da2575f5ffd5b823567ffffffffffffffff811115613db8575f5ffd5b8301601f81018513613dc8575f5ffd5b803567ffffffffffffffff811115613dde575f5ffd5b8560208260051b8401011115613df2575f5ffd5b6020919091019590945092505050565b602080825282518282018190525f918401906040840190835b81811015613e3c57835160060b835260209384019390920191600101613e1b565b509095945050505050565b5f5f5f60608486031215613e59575f5ffd5b613e6284613bd0565b9250613e7060208501613bd0565b9150613e7e60408501613be1565b90509250925092565b5f5f5f5f5f5f60a08789031215613e9c575f5ffd5b8635613ea781613bb9565b955060208701358015158114613ebb575f5ffd5b9450604087013593506060870135613c8681613bb9565b5f60208284031215613ee2575f5ffd5b610fd682613bd0565b5f60208284031215613efb575f5ffd5b8135611b6d81613bb9565b634e487b7160e01b5f52601160045260245ffd5b5f8160020b627fffff198103613f3257613f32613f06565b5f0392915050565b81835281816020850137505f828201602090810191909152601f909101601f19169091010190565b848152836020820152606060408201525f61322c606083018486613f3a565b80820180821115610fd957610fd9613f06565b5f60208284031215613fa4575f5ffd5b5051919050565b6001600160801b038281168282160390811115610fd957610fd9613f06565b5f81600f0b6f7fffffffffffffffffffffffffffffff198103613f3257613f32613f06565b5f600160ff1b820161400357614003613f06565b505f0390565b6001600160801b038181168382160190811115610fd957610fd9613f06565b81810381811115610fd957610fd9613f06565b600282810b9082900b03627fffff198112627fffff82131715610fd957610fd9613f06565b634e487b7160e01b5f52603260045260245ffd5b634e487b7160e01b5f52601260045260245ffd5b5f6001820161409957614099613f06565b5060010190565b634e487b7160e01b5f52604160045260245ffd5b5f8160020b8360020b806140ca576140ca614074565b627fffff1982145f19821416156140e3576140e3613f06565b90059392505050565b5f8260020b806140fe576140fe614074565b808360020b0791505092915050565b5f8160020b627fffff19810361412557614125613f06565b5f190192915050565b5f8260020b8260020b028060020b915080821461414d5761414d613f06565b5092915050565b60ff8281168282160390811115610fd957610fd9613f06565b600281810b9083900b01627fffff8113627fffff1982121715610fd957610fd9613f06565b8082028115828204841417610fd957610fd9613f06565b5f826141b7576141b7614074565b500490565b5f826141ca576141ca614074565b500690565b62ffffff8281168282160390811115610fd957610fd9613f06565b8181035f83128015838313168383128216171561414d5761414d613f06565b8082025f8212600160ff1b8414161561422457614224613f06565b8181058314821517610fd957610fd9613f06565b8082018281125f83128015821682158216171561425757614257613f06565b505092915050565b61ffff8281168282160390811115610fd957610fd9613f06565b61ffff8181168382160190811115610fd957610fd9613f06565b5f61ffff8316806142a6576142a6614074565b8061ffff84160691505092915050565b63ffffffff8281168282160390811115610fd957610fd9613f06565b600682810b9082900b03667fffffffffffff198112667fffffffffffff82131715610fd957610fd9613f06565b5f8160060b8360060b8061431557614315614074565b667fffffffffffff1982145f19821416156140e3576140e3613f06565b5f8260060b8260060b028060060b915080821461414d5761414d613f06565b600681810b9083900b01667fffffffffffff8113667fffffffffffff1982121715610fd957610fd9613f06565b60ff8181168382160190811115610fd957610fd9613f06565b6001600160a01b038281168282160390811115610fd957610fd9613f06565b64ffffffffff8181168382160190811115610fd957610fd9613f0656fea2646970667358221220b7bc12fac87aafebba8fb3c7267d2e7f7e39b159f69c99d5c4509b8e924df11c64736f6c634300081c0033a264697066735822122041a4fc7ea1092e64f4afc57043fa58600aa74ec40a5aab946879307da9591a2264736f6c634300081c0033","linkReferences":{}},"methodIdentifiers":{"factory()":"c45a0155","quote(bytes,uint256)":"33224ae1","quoteSingle((address,address,uint24,uint256,uint160))":"402358a5","uniswapV3SwapCallback(int256,int256,bytes)":"fa461e33"},"id":18}