{"abi":[{"type":"constructor","inputs":[{"name":"factoryAddress","type":"address","internalType":"address"}],"stateMutability":"nonpayable"},{"type":"function","name":"addLiquidity","inputs":[{"name":"params","type":"tuple","internalType":"struct UniswapV3NFTManager.AddLiquidityParams","components":[{"name":"tokenId","type":"uint256","internalType":"uint256"},{"name":"amount0Desired","type":"uint256","internalType":"uint256"},{"name":"amount1Desired","type":"uint256","internalType":"uint256"},{"name":"amount0Min","type":"uint256","internalType":"uint256"},{"name":"amount1Min","type":"uint256","internalType":"uint256"}]}],"outputs":[{"name":"liquidity","type":"uint128","internalType":"uint128"},{"name":"amount0","type":"uint256","internalType":"uint256"},{"name":"amount1","type":"uint256","internalType":"uint256"}],"stateMutability":"nonpayable"},{"type":"function","name":"approve","inputs":[{"name":"spender","type":"address","internalType":"address"},{"name":"id","type":"uint256","internalType":"uint256"}],"outputs":[],"stateMutability":"nonpayable"},{"type":"function","name":"balanceOf","inputs":[{"name":"owner","type":"address","internalType":"address"}],"outputs":[{"name":"","type":"uint256","internalType":"uint256"}],"stateMutability":"view"},{"type":"function","name":"burn","inputs":[{"name":"tokenId","type":"uint256","internalType":"uint256"}],"outputs":[],"stateMutability":"nonpayable"},{"type":"function","name":"collect","inputs":[{"name":"params","type":"tuple","internalType":"struct UniswapV3NFTManager.CollectParams","components":[{"name":"tokenId","type":"uint256","internalType":"uint256"},{"name":"amount0","type":"uint128","internalType":"uint128"},{"name":"amount1","type":"uint128","internalType":"uint128"}]}],"outputs":[{"name":"amount0","type":"uint128","internalType":"uint128"},{"name":"amount1","type":"uint128","internalType":"uint128"}],"stateMutability":"nonpayable"},{"type":"function","name":"factory","inputs":[],"outputs":[{"name":"","type":"address","internalType":"address"}],"stateMutability":"view"},{"type":"function","name":"getApproved","inputs":[{"name":"","type":"uint256","internalType":"uint256"}],"outputs":[{"name":"","type":"address","internalType":"address"}],"stateMutability":"view"},{"type":"function","name":"getPoolAddress","inputs":[{"name":"token0","type":"address","internalType":"address"},{"name":"token1","type":"address","internalType":"address"},{"name":"fee","type":"uint24","internalType":"uint24"}],"outputs":[{"name":"poolAddress","type":"address","internalType":"address"}],"stateMutability":"view"},{"type":"function","name":"isApprovedForAll","inputs":[{"name":"","type":"address","internalType":"address"},{"name":"","type":"address","internalType":"address"}],"outputs":[{"name":"","type":"bool","internalType":"bool"}],"stateMutability":"view"},{"type":"function","name":"mint","inputs":[{"name":"params","type":"tuple","internalType":"struct UniswapV3NFTManager.MintParams","components":[{"name":"recipient","type":"address","internalType":"address"},{"name":"tokenA","type":"address","internalType":"address"},{"name":"tokenB","type":"address","internalType":"address"},{"name":"fee","type":"uint24","internalType":"uint24"},{"name":"lowerTick","type":"int24","internalType":"int24"},{"name":"upperTick","type":"int24","internalType":"int24"},{"name":"amount0Desired","type":"uint256","internalType":"uint256"},{"name":"amount1Desired","type":"uint256","internalType":"uint256"},{"name":"amount0Min","type":"uint256","internalType":"uint256"},{"name":"amount1Min","type":"uint256","internalType":"uint256"}]}],"outputs":[{"name":"tokenId","type":"uint256","internalType":"uint256"}],"stateMutability":"nonpayable"},{"type":"function","name":"name","inputs":[],"outputs":[{"name":"","type":"string","internalType":"string"}],"stateMutability":"view"},{"type":"function","name":"ownerOf","inputs":[{"name":"id","type":"uint256","internalType":"uint256"}],"outputs":[{"name":"owner","type":"address","internalType":"address"}],"stateMutability":"view"},{"type":"function","name":"positions","inputs":[{"name":"","type":"uint256","internalType":"uint256"}],"outputs":[{"name":"pool","type":"address","internalType":"address"},{"name":"lowerTick","type":"int24","internalType":"int24"},{"name":"upperTick","type":"int24","internalType":"int24"}],"stateMutability":"view"},{"type":"function","name":"removeLiquidity","inputs":[{"name":"params","type":"tuple","internalType":"struct UniswapV3NFTManager.RemoveLiquidityParams","components":[{"name":"tokenId","type":"uint256","internalType":"uint256"},{"name":"liquidity","type":"uint128","internalType":"uint128"}]}],"outputs":[{"name":"amount0","type":"uint256","internalType":"uint256"},{"name":"amount1","type":"uint256","internalType":"uint256"}],"stateMutability":"nonpayable"},{"type":"function","name":"safeTransferFrom","inputs":[{"name":"from","type":"address","internalType":"address"},{"name":"to","type":"address","internalType":"address"},{"name":"id","type":"uint256","internalType":"uint256"}],"outputs":[],"stateMutability":"nonpayable"},{"type":"function","name":"safeTransferFrom","inputs":[{"name":"from","type":"address","internalType":"address"},{"name":"to","type":"address","internalType":"address"},{"name":"id","type":"uint256","internalType":"uint256"},{"name":"data","type":"bytes","internalType":"bytes"}],"outputs":[],"stateMutability":"nonpayable"},{"type":"function","name":"setApprovalForAll","inputs":[{"name":"operator","type":"address","internalType":"address"},{"name":"approved","type":"bool","internalType":"bool"}],"outputs":[],"stateMutability":"nonpayable"},{"type":"function","name":"supportsInterface","inputs":[{"name":"interfaceId","type":"bytes4","internalType":"bytes4"}],"outputs":[{"name":"","type":"bool","internalType":"bool"}],"stateMutability":"view"},{"type":"function","name":"symbol","inputs":[],"outputs":[{"name":"","type":"string","internalType":"string"}],"stateMutability":"view"},{"type":"function","name":"tokenURI","inputs":[{"name":"tokenId","type":"uint256","internalType":"uint256"}],"outputs":[{"name":"","type":"string","internalType":"string"}],"stateMutability":"view"},{"type":"function","name":"totalSupply","inputs":[],"outputs":[{"name":"","type":"uint256","internalType":"uint256"}],"stateMutability":"view"},{"type":"function","name":"transferFrom","inputs":[{"name":"from","type":"address","internalType":"address"},{"name":"to","type":"address","internalType":"address"},{"name":"id","type":"uint256","internalType":"uint256"}],"outputs":[],"stateMutability":"nonpayable"},{"type":"function","name":"uniswapV3MintCallback","inputs":[{"name":"amount0","type":"uint256","internalType":"uint256"},{"name":"amount1","type":"uint256","internalType":"uint256"},{"name":"data","type":"bytes","internalType":"bytes"}],"outputs":[],"stateMutability":"nonpayable"},{"type":"event","name":"AddLiquidity","inputs":[{"name":"tokenId","type":"uint256","indexed":true,"internalType":"uint256"},{"name":"liquidity","type":"uint128","indexed":false,"internalType":"uint128"},{"name":"amount0","type":"uint256","indexed":false,"internalType":"uint256"},{"name":"amount1","type":"uint256","indexed":false,"internalType":"uint256"}],"anonymous":false},{"type":"event","name":"Approval","inputs":[{"name":"owner","type":"address","indexed":true,"internalType":"address"},{"name":"spender","type":"address","indexed":true,"internalType":"address"},{"name":"id","type":"uint256","indexed":true,"internalType":"uint256"}],"anonymous":false},{"type":"event","name":"ApprovalForAll","inputs":[{"name":"owner","type":"address","indexed":true,"internalType":"address"},{"name":"operator","type":"address","indexed":true,"internalType":"address"},{"name":"approved","type":"bool","indexed":false,"internalType":"bool"}],"anonymous":false},{"type":"event","name":"RemoveLiquidity","inputs":[{"name":"tokenId","type":"uint256","indexed":true,"internalType":"uint256"},{"name":"liquidity","type":"uint128","indexed":false,"internalType":"uint128"},{"name":"amount0","type":"uint256","indexed":false,"internalType":"uint256"},{"name":"amount1","type":"uint256","indexed":false,"internalType":"uint256"}],"anonymous":false},{"type":"event","name":"Transfer","inputs":[{"name":"from","type":"address","indexed":true,"internalType":"address"},{"name":"to","type":"address","indexed":true,"internalType":"address"},{"name":"id","type":"uint256","indexed":true,"internalType":"uint256"}],"anonymous":false},{"type":"error","name":"NotAuthorized","inputs":[]},{"type":"error","name":"NotEnoughLiquidity","inputs":[]},{"type":"error","name":"PRBMath__MulDivOverflow","inputs":[{"name":"prod1","type":"uint256","internalType":"uint256"},{"name":"denominator","type":"uint256","internalType":"uint256"}]},{"type":"error","name":"PositionNotCleared","inputs":[]},{"type":"error","name":"SlippageCheckFailed","inputs":[{"name":"amount0","type":"uint256","internalType":"uint256"},{"name":"amount1","type":"uint256","internalType":"uint256"}]},{"type":"error","name":"WrongToken","inputs":[]}],"bytecode":{"object":"0x60a060405234801561000f575f5ffd5b5060405161841e38038061841e83398101604081905261002e916100b1565b6040518060400160405280601781526020017f556e69737761705633204e465420506f736974696f6e7300000000000000000081525060405180604001604052806005815260200164554e49563360d81b815250815f90816100909190610176565b50600161009d8282610176565b5050506001600160a01b0316608052610230565b5f602082840312156100c1575f5ffd5b81516001600160a01b03811681146100d7575f5ffd5b9392505050565b634e487b7160e01b5f52604160045260245ffd5b600181811c9082168061010657607f821691505b60208210810361012457634e487b7160e01b5f52602260045260245ffd5b50919050565b601f82111561017157805f5260205f20601f840160051c8101602085101561014f5750805b601f840160051c820191505b8181101561016e575f815560010161015b565b50505b505050565b81516001600160401b0381111561018f5761018f6100de565b6101a38161019d84546100f2565b8461012a565b6020601f8211600181146101d5575f83156101be5750848201515b5f19600385901b1c1916600184901b17845561016e565b5f84815260208120601f198516915b8281101561020457878501518255602094850194600190920191016101e4565b508482101561022157868401515f19600387901b60f8161c191681555b50505050600190811b01905550565b6080516181cf61024f5f395f8181610396015261109f01526181cf5ff3fe608060405234801561000f575f5ffd5b5060043610610148575f3560e01c80636352211e116100bf578063b88d4fde11610079578063b88d4fde1461037e578063c45a015514610391578063c87b56dd146103b8578063d3487997146103cb578063e7dd4c5a146103de578063e985e9c5146103f1575f5ffd5b80636352211e146102c1578063696d6283146102d457806370a08231146102e757806395d89b41146102fa57806399fbab8814610302578063a22cb4651461036b575f5ffd5b806318160ddd1161011057806318160ddd1461020657806323b872dd1461021d57806342842e0e1461023057806342966c68146102435780634caad396146102565780635f032ef41461028e575f5ffd5b806301ffc9a71461014c57806306fdde0314610174578063081812fc14610189578063095ea7b3146101c957806312ba95ee146101de575b5f5ffd5b61015f61015a3660046129a1565b61041e565b60405190151581526020015b60405180910390f35b61017c61046f565b60405161016b91906129ea565b6101b16101973660046129fc565b60046020525f90815260409020546001600160a01b031681565b6040516001600160a01b03909116815260200161016b565b6101dc6101d7366004612a27565b6104fa565b005b6101f16101ec366004612ad3565b6105de565b6040805192835260208301919091520161016b565b61020f60065481565b60405190815260200161016b565b6101dc61022b366004612b29565b610880565b6101dc61023e366004612b29565b610a42565b6101dc6102513660046129fc565b610b36565b610269610264366004612b67565b610d3d565b604080516001600160801b03909416845260208401929092529082015260600161016b565b6102a161029c366004612b80565b610e6f565b604080516001600160801b0393841681529290911660208301520161016b565b6101b16102cf3660046129fc565b61101b565b6101b16102e2366004612bdb565b611071565b61020f6102f5366004612c23565b6110ce565b61017c61112f565b6103426103103660046129fc565b60086020525f90815260409020546001600160a01b03811690600160a01b8104600290810b91600160b81b9004900b83565b604080516001600160a01b039094168452600292830b6020850152910b9082015260600161016b565b6101dc610379366004612c3e565b61113c565b6101dc61038c366004612cbe565b6111a7565b6101b17f000000000000000000000000000000000000000000000000000000000000000081565b61017c6103c63660046129fc565b61128c565b6101dc6103d9366004612d2c565b6113b5565b61020f6103ec366004612d7b565b6114a2565b61015f6103ff366004612d8d565b600560209081525f928352604080842090915290825290205460ff1681565b5f6301ffc9a760e01b6001600160e01b03198316148061044e57506380ac58cd60e01b6001600160e01b03198316145b806104695750635b5e139f60e01b6001600160e01b03198316145b92915050565b5f805461047b90612db9565b80601f01602080910402602001604051908101604052809291908181526020018280546104a790612db9565b80156104f25780601f106104c9576101008083540402835291602001916104f2565b820191905f5260205f20905b8154815290600101906020018083116104d557829003601f168201915b505050505081565b5f818152600260205260409020546001600160a01b03163381148061054157506001600160a01b0381165f90815260056020908152604080832033845290915290205460ff165b6105835760405162461bcd60e51b815260206004820152600e60248201526d1393d517d055551213d49256915160921b60448201526064015b60405180910390fd5b5f8281526004602052604080822080546001600160a01b0319166001600160a01b0387811691821790925591518593918516917f8c5be1e5ebec7d5bd14f71427d1e84f3dd0314c0f7b2291e5b200ac8c7c3b92591a4505050565b5f5f825f01515f6105ee8261101b565b9050336001600160a01b0382161480159061062c57506001600160a01b0381165f90815260056020908152604080832033845290915290205460ff16155b801561064e57505f828152600460205260409020546001600160a01b03163314155b1561066c5760405163ea8e4eb560e01b815260040160405180910390fd5b84515f90815260086020908152604091829020825160608101845290546001600160a01b038116808352600160a01b8204600290810b94840194909452600160b81b90910490920b928101929092526106d857604051635079ff7560e11b815260040160405180910390fd5b80515f6001600160a01b03821663514ea4bf6106f38561169c565b6040518263ffffffff1660e01b815260040161071191815260200190565b60a060405180830381865afa15801561072c573d5f5f3e3d5ffd5b505050506040513d601f19601f820116820180604052508101906107509190612df1565b505050509050806001600160801b031688602001516001600160801b0316111561078d57604051634323a55560e01b815260040160405180910390fd5b602083810151604080860151928b0151905163a34123a760e01b8152600292830b60048201529290910b60248301526001600160801b031660448201526001600160a01b0383169063a34123a79060640160408051808303815f875af11580156107f9573d5f5f3e3d5ffd5b505050506040513d601f19601f8201168201806040525081019061081d9190612e4f565b89516020808c0151604080516001600160801b039092168252918101859052908101839052929950909750907f1832d0be987b5f3cbc73b42f7ee61f47d509f9a14f8d3770969dfdabef841c3e9060600160405180910390a25050505050915091565b5f818152600260205260409020546001600160a01b038481169116146108d55760405162461bcd60e51b815260206004820152600a60248201526957524f4e475f46524f4d60b01b604482015260640161057a565b6001600160a01b03821661091f5760405162461bcd60e51b81526020600482015260116024820152701253959053125117d49150d25412515395607a1b604482015260640161057a565b336001600160a01b038416148061095857506001600160a01b0383165f90815260056020908152604080832033845290915290205460ff165b8061097857505f818152600460205260409020546001600160a01b031633145b6109b55760405162461bcd60e51b815260206004820152600e60248201526d1393d517d055551213d49256915160921b604482015260640161057a565b6001600160a01b038084165f81815260036020908152604080832080545f19019055938616808352848320805460010190558583526002825284832080546001600160a01b03199081168317909155600490925284832080549092169091559251849392917fddf252ad1be2c89b69c2b068fc378daa952ba7f163c4a11628f55a4df523b3ef91a4505050565b610a4d838383610880565b6001600160a01b0382163b1580610af25750604051630a85bd0160e11b8082523360048301526001600160a01b03858116602484015260448301849052608060648401525f608484015290919084169063150b7a029060a4016020604051808303815f875af1158015610ac2573d5f5f3e3d5ffd5b505050506040513d601f19601f82011682018060405250810190610ae69190612e71565b6001600160e01b031916145b610b315760405162461bcd60e51b815260206004820152601060248201526f155394d0519157d49150d2541251539560821b604482015260640161057a565b505050565b805f610b418261101b565b9050336001600160a01b03821614801590610b7f57506001600160a01b0381165f90815260056020908152604080832033845290915290205460ff16155b8015610ba157505f828152600460205260409020546001600160a01b03163314155b15610bbf5760405163ea8e4eb560e01b815260040160405180910390fd5b5f83815260086020908152604091829020825160608101845290546001600160a01b038116808352600160a01b8204600290810b94840194909452600160b81b90910490920b92810192909252610c2957604051635079ff7560e11b815260040160405180910390fd5b80515f80806001600160a01b03841663514ea4bf610c468761169c565b6040518263ffffffff1660e01b8152600401610c6491815260200190565b60a060405180830381865afa158015610c7f573d5f5f3e3d5ffd5b505050506040513d601f19601f82011682018060405250810190610ca39190612df1565b94509450505092505f836001600160801b03161180610cca57505f826001600160801b0316115b80610cdd57505f816001600160801b0316115b15610cfb57604051636c4e633b60e11b815260040160405180910390fd5b5f88815260086020526040902080546001600160d01b0319169055610d1f886116e7565b60068054905f610d2e83612ea0565b91905055505050505050505050565b80355f908152600860209081526040808320815160608101835290546001600160a01b038116808352600160a01b8204600290810b95840195909552600160b81b90910490930b918101919091528291829190610dad57604051635079ff7560e11b815260040160405180910390fd5b610e126040518060e00160405280835f01516001600160a01b03168152602001836020015160020b8152602001836040015160020b815260200187602001358152602001876040013581526020018760600135815260200187608001358152506117b1565b604080516001600160801b03851681526020810184905290810182905292965090945092508535907f22fb3c4728e7cc5dd64003f4267d8fb1eb2580f5598050868300738a823d70479060600160405180910390a2509193909250565b5f5f825f01515f610e7f8261101b565b9050336001600160a01b03821614801590610ebd57506001600160a01b0381165f90815260056020908152604080832033845290915290205460ff16155b8015610edf57505f828152600460205260409020546001600160a01b03163314155b15610efd5760405163ea8e4eb560e01b815260040160405180910390fd5b84515f90815260086020908152604091829020825160608101845290546001600160a01b038116808352600160a01b8204600290810b94840194909452600160b81b90910490920b92810192909252610f6957604051635079ff7560e11b815260040160405180910390fd5b8051602080830151604080850151928a01518a82015191516309e3d67b60e31b8152336004820152600293840b60248201529390920b60448401526001600160801b0391821660648401521660848201526001600160a01b03821690634f1eb3d89060a40160408051808303815f875af1158015610fe9573d5f5f3e3d5ffd5b505050506040513d601f19601f8201168201806040525081019061100d9190612eb5565b909890975095505050505050565b5f818152600260205260409020546001600160a01b03168061106c5760405162461bcd60e51b815260206004820152600a6024820152691393d517d3525395115160b21b604482015260640161057a565b919050565b5f826001600160a01b0316846001600160a01b031610611092578284611095565b83835b90945092506110c67f0000000000000000000000000000000000000000000000000000000000000000858585611a3c565b949350505050565b5f6001600160a01b0382166111145760405162461bcd60e51b815260206004820152600c60248201526b5a45524f5f4144445245535360a01b604482015260640161057a565b506001600160a01b03165f9081526003602052604090205490565b6001805461047b90612db9565b335f8181526005602090815260408083206001600160a01b03871680855290835292819020805460ff191686151590811790915590519081529192917f17307eab39ab6107e8899845ad3d59bd9653f200f220920489ca2b5937696c31910160405180910390a35050565b6111b2858585610880565b6001600160a01b0384163b15806112465750604051630a85bd0160e11b808252906001600160a01b0386169063150b7a02906111fa9033908a90899089908990600401612ee2565b6020604051808303815f875af1158015611216573d5f5f3e3d5ffd5b505050506040513d601f19601f8201168201806040525081019061123a9190612e71565b6001600160e01b031916145b6112855760405162461bcd60e51b815260206004820152601060248201526f155394d0519157d49150d2541251539560821b604482015260640161057a565b5050505050565b5f8181526008602090815260409182902082516060818101855291546001600160a01b038116808352600160a01b8204600290810b95840195909552600160b81b90910490930b9381019390935291906112f957604051635079ff7560e11b815260040160405180910390fd5b5f815f015190506110c66040518060a00160405280845f01516001600160a01b03168152602001306001600160a01b03168152602001846020015160020b8152602001846040015160020b8152602001836001600160a01b031663ddca3f436040518163ffffffff1660e01b8152600401602060405180830381865afa158015611385573d5f5f3e3d5ffd5b505050506040513d601f19601f820116820180604052508101906113a99190612f32565b62ffffff169052611b36565b5f6113c282840184612f4d565b805160408083015190516323b872dd60e01b81526001600160a01b0391821660048201523360248201526044810189905292935016906323b872dd906064015f604051808303815f87803b158015611418575f5ffd5b505af115801561142a573d5f5f3e3d5ffd5b505050602082015160408084015190516323b872dd60e01b81526001600160a01b03918216600482015233602482015260448101889052911691506323b872dd906064015f604051808303815f87803b158015611485575f5ffd5b505af1158015611497573d5f5f3e3d5ffd5b505050505050505050565b5f806114d76114b76040850160208601612c23565b6114c76060860160408701612c23565b6102e26080870160608801612f95565b90505f5f5f6115596040518060e00160405280866001600160a01b0316815260200188608001602081019061150c9190612fbe565b60020b815260200161152460c08a0160a08b01612fbe565b60020b81526020018860c0013581526020018860e00135815260200188610100013581526020018861012001358152506117b1565b6007805493965091945092505f61156f83612fd9565b90915550945061158b6115856020880188612c23565b86611dab565b60068054905f61159a83612fd9565b91905055505f6040518060600160405280866001600160a01b031681526020018860800160208101906115cd9190612fbe565b60020b81526020016115e560c08a0160a08b01612fbe565b60020b90525f878152600860209081526040918290208351815485840151868601516001600160a01b039093166001600160b81b031990921691909117600160a01b62ffffff928316021762ffffff60b81b1916600160b81b919092160217905581516001600160801b038816815290810186905290810184905290915086907f22fb3c4728e7cc5dd64003f4267d8fb1eb2580f5598050868300738a823d70479060600160405180910390a25050505050919050565b60208181015160409283015183513060601b6001600160601b0319168185015260e892831b6034820152911b60378201528251601a818303018152603a909101909252815191012090565b5f818152600260205260409020546001600160a01b0316806117385760405162461bcd60e51b815260206004820152600a6024820152691393d517d3525395115160b21b604482015260640161057a565b6001600160a01b0381165f81815260036020908152604080832080545f190190558583526002825280832080546001600160a01b031990811690915560049092528083208054909216909155518492907fddf252ad1be2c89b69c2b068fc378daa952ba7f163c4a11628f55a4df523b3ef908390a45050565b5f5f5f5f845f01516001600160a01b0316633850c7bd6040518163ffffffff1660e01b815260040160a060405180830381865afa1580156117f4573d5f5f3e3d5ffd5b505050506040513d601f19601f820116820180604052508101906118189190613002565b50505050905061184b8161182f8760200151611eb4565b61183c8860400151611eb4565b886060015189608001516122c7565b9350845f01516001600160a01b0316633c8a7d8d30876020015188604001518860405180606001604052808c5f01516001600160a01b0316630dfe16816040518163ffffffff1660e01b8152600401602060405180830381865afa1580156118b5573d5f5f3e3d5ffd5b505050506040513d601f19601f820116820180604052508101906118d99190613068565b6001600160a01b031681526020018c5f01516001600160a01b031663d21220a76040518163ffffffff1660e01b8152600401602060405180830381865afa158015611926573d5f5f3e3d5ffd5b505050506040513d601f19601f8201168201806040525081019061194a9190613068565b6001600160a01b0390811682523360209283015260408051845183168185015292840151821683820152929092015190911660608201526080016040516020818303038152906040526040518663ffffffff1660e01b81526004016119b3959493929190613083565b60408051808303815f875af11580156119ce573d5f5f3e3d5ffd5b505050506040513d601f19601f820116820180604052508101906119f29190612e4f565b60a08701519194509250831080611a0c57508460c0015182105b15611a3457604051630a8f6c8d60e41b8152600481018490526024810183905260440161057a565b509193909250565b5f826001600160a01b0316846001600160a01b031610611a5a575f5ffd5b6040516001600160601b0319606086811b8216602084015285901b1660348201526001600160e81b031960e884901b1660488201528590604b016040516020818303038152906040528051906020012060405180602001611aba9061297c565b6020820181038252601f19601f8201166040525080519060200120604051602001611b15939291906001600160f81b0319815260609390931b6001600160601b03191660018401526015830191909152603582015260550190565b60408051601f19818403018152919052805160209091012095945050505050565b60605f825f015190505f816001600160a01b0316630dfe16816040518163ffffffff1660e01b8152600401602060405180830381865afa158015611b7c573d5f5f3e3d5ffd5b505050506040513d601f19601f82011682018060405250810190611ba09190613068565b90505f826001600160a01b031663d21220a76040518163ffffffff1660e01b8152600401602060405180830381865afa158015611bdf573d5f5f3e3d5ffd5b505050506040513d601f19601f82011682018060405250810190611c039190613068565b90505f826001600160a01b03166395d89b416040518163ffffffff1660e01b81526004015f60405180830381865afa158015611c41573d5f5f3e3d5ffd5b505050506040513d5f823e601f3d908101601f19168201604052611c6891908101906130cf565b90505f826001600160a01b03166395d89b416040518163ffffffff1660e01b81526004015f60405180830381865afa158015611ca6573d5f5f3e3d5ffd5b505050506040513d5f823e601f3d908101601f19168201604052611ccd91908101906130cf565b90505f611ce7886020015189604001518a60600151612387565b611cf684848b6080015161241c565b611d088a604001518b60600151612458565b604051602001611d1a9392919061317a565b60405160208183030381529060405290505f611d4584848b608001518c604001518d60600151612494565b90505f81611d52846124e6565b604051602001611d639291906132ab565b6040516020818303038152906040529050611d7d816124e6565b604051602001611d8d919061334f565b60405160208183030381529060405298505050505050505050919050565b6001600160a01b038216611df55760405162461bcd60e51b81526020600482015260116024820152701253959053125117d49150d25412515395607a1b604482015260640161057a565b5f818152600260205260409020546001600160a01b031615611e4a5760405162461bcd60e51b815260206004820152600e60248201526d1053149150511657d3525395115160921b604482015260640161057a565b6001600160a01b0382165f81815260036020908152604080832080546001019055848352600290915280822080546001600160a01b0319168417905551839291907fddf252ad1be2c89b69c2b068fc378daa952ba7f163c4a11628f55a4df523b3ef908290a45050565b5f5f5f8360020b12611ec9578260020b611ed6565b8260020b611ed690613380565b9050611ee5620d89e71961339a565b62ffffff16811115611f1d5760405162461bcd60e51b81526020600482015260016024820152601560fa1b604482015260640161057a565b5f816001165f03611f3257600160801b611f44565b6ffffcb933bd6fad37aa2d162d1a5940015b70ffffffffffffffffffffffffffffffffff1690506002821615611f83576080611f7e826ffff97272373d413259a46990580e213a6133ba565b901c90505b6004821615611fad576080611fa8826ffff2e50f5f656932ef12357cf3c7fdcc6133ba565b901c90505b6008821615611fd7576080611fd2826fffe5caca7e10e4e61c3624eaa0941cd06133ba565b901c90505b6010821615612001576080611ffc826fffcb9843d60f6159c9db58835c9266446133ba565b901c90505b602082161561202b576080612026826fff973b41fa98c081472e6896dfb254c06133ba565b901c90505b6040821615612055576080612050826fff2ea16466c96a3843ec78b326b528616133ba565b901c90505b608082161561207f57608061207a826ffe5dee046a99a2a811c461f1969c30536133ba565b901c90505b6101008216156120aa5760806120a5826ffcbe86c7900a88aedcffc83b479aa3a46133ba565b901c90505b6102008216156120d55760806120d0826ff987a7253ac413176f2b074cf7815e546133ba565b901c90505b6104008216156121005760806120fb826ff3392b0822b70005940c7a398e4b70f36133ba565b901c90505b61080082161561212b576080612126826fe7159475a2c29b7443b29c7fa6e889d96133ba565b901c90505b611000821615612156576080612151826fd097f3bdfd2022b8845ad8f792aa58256133ba565b901c90505b61200082161561218157608061217c826fa9f746462d870fdf8a65dc1f90e061e56133ba565b901c90505b6140008216156121ac5760806121a7826f70d869a156d2a1b890bb3df62baf32f76133ba565b901c90505b6180008216156121d75760806121d2826f31be135f97d08fd981231505542fcfa66133ba565b901c90505b620100008216156122035760806121fe826f09aa508b5b7a84e1c677de54f3e99bc96133ba565b901c90505b6202000082161561222e576080612229826e5d6af8dedb81196699c329225ee6046133ba565b901c90505b62040000821615612258576080612253826d2216e584f5fa1ea926041bedfe986133ba565b901c90505b6208000082161561228057608061227b826b048a170391f7dc42444e8fa26133ba565b901c90505b5f8460020b131561229957612296815f196133e5565b90505b6122a8640100000000826133f8565b156122b45760016122b6565b5f5b6110c69060ff16602083901c61340b565b5f836001600160a01b0316856001600160a01b031611156122e6579293925b846001600160a01b0316866001600160a01b0316116123115761230a858585612635565b905061237e565b836001600160a01b0316866001600160a01b031611612370575f612336878686612635565b90505f612344878986612695565b9050806001600160801b0316826001600160801b0316106123655780612367565b815b9250505061237e565b61237b858584612695565b90505b95945050505050565b604051606084811b6001600160601b031916602083015260e884811b603484015283901b6037830152905f90603a0160408051601f19818403018152919052805160209091012090505f6123dd610168836133f8565b90506123e8816126c7565b6123f1826126c7565b60405160200161240292919061341e565b604051602081830303815290604052925050509392505050565b6060838361242e8462ffffff166127c4565b6040516020016124409392919061350b565b60405160208183030381529060405290509392505050565b606061246383612819565b61246c83612819565b60405160200161247d929190613653565b604051602081830303815290604052905092915050565b606085856124a68662ffffff166127c4565b6124af86612819565b6124b886612819565b6040516020016124cc9594939291906137ae565b604051602081830303815290604052905095945050505050565b606081515f0361250357505060408051602081019091525f815290565b5f60405180606001604052806040815260200161815a6040913990505f600384516002612530919061340b565b61253a91906133e5565b6125459060046133ba565b67ffffffffffffffff81111561255d5761255d612a51565b6040519080825280601f01601f191660200182016040528015612587576020820181803683370190505b509050600182016020820185865187015b808210156125f3576003820191508151603f8160121c168501518453600184019350603f81600c1c168501518453600184019350603f8160061c168501518453600184019350603f8116850151845350600183019250612598565b505060038651066001811461260f57600281146126225761262a565b603d6001830353603d600283035361262a565b603d60018303535b509195945050505050565b5f826001600160a01b0316846001600160a01b03161115612654579192915b5f612676856001600160a01b0316856001600160a01b0316600160601b6128ae565b905061237e83826126878888613835565b6001600160a01b03166128ae565b5f826001600160a01b0316846001600160a01b031611156126b4579192915b6110c682600160601b6126878787613835565b6060815f036126ed5750506040805180820190915260018152600360fc1b602082015290565b815f5b8115612716578061270081612fd9565b915061270f9050600a836133e5565b91506126f0565b5f8167ffffffffffffffff81111561273057612730612a51565b6040519080825280601f01601f19166020018201604052801561275a576020820181803683370190505b5090505b84156110c65761276f600183613854565b915061277c600a866133f8565b61278790603061340b565b60f81b81838151811061279c5761279c613867565b60200101906001600160f81b03191690815f1a9053506127bd600a866133e5565b945061275e565b6060816101f4036127f0575050604080518082019091526005815264302e30352560d81b602082015290565b81610bb80361106c575050604080518082019091526004815263302e332560e01b602082015290565b60605f8260020b126128395760405180602001604052805f815250612854565b604051806040016040528060018152602001602d60f81b8152505b5f8360020b126128715761286c8362ffffff166126c7565b612887565b61288761287d8461339a565b62ffffff166126c7565b60405160200161289892919061387b565b6040516020818303038152906040529050919050565b5f80805f19858709858702925082811083820303915050805f036128e5578382816128db576128db6133d1565b0492505050612975565b83811061290f57604051631dcf306360e21b8152600481018290526024810185905260440161057a565b5f848688098519600190810187169687900496828603819004959092119093035f82900391909104909201919091029190911760038402600290811880860282030280860282030280860282030280860282030280860282030280860290910302029150505b9392505050565b6148d08061388a83390190565b6001600160e01b03198116811461299e575f5ffd5b50565b5f602082840312156129b1575f5ffd5b813561297581612989565b5f81518084528060208401602086015e5f602082860101526020601f19601f83011685010191505092915050565b602081525f61297560208301846129bc565b5f60208284031215612a0c575f5ffd5b5035919050565b6001600160a01b038116811461299e575f5ffd5b5f5f60408385031215612a38575f5ffd5b8235612a4381612a13565b946020939093013593505050565b634e487b7160e01b5f52604160045260245ffd5b6040516060810167ffffffffffffffff81118282101715612a8857612a88612a51565b60405290565b604051601f8201601f1916810167ffffffffffffffff81118282101715612ab757612ab7612a51565b604052919050565b6001600160801b038116811461299e575f5ffd5b5f6040828403128015612ae4575f5ffd5b506040805190810167ffffffffffffffff81118282101715612b0857612b08612a51565b604052823581526020830135612b1d81612abf565b60208201529392505050565b5f5f5f60608486031215612b3b575f5ffd5b8335612b4681612a13565b92506020840135612b5681612a13565b929592945050506040919091013590565b5f60a0828403128015612b78575f5ffd5b509092915050565b5f6060828403128015612b91575f5ffd5b50612b9a612a65565b823581526020830135612bac81612abf565b60208201526040830135612bbf81612abf565b60408201529392505050565b62ffffff8116811461299e575f5ffd5b5f5f5f60608486031215612bed575f5ffd5b8335612bf881612a13565b92506020840135612c0881612a13565b91506040840135612c1881612bcb565b809150509250925092565b5f60208284031215612c33575f5ffd5b813561297581612a13565b5f5f60408385031215612c4f575f5ffd5b8235612c5a81612a13565b915060208301358015158114612c6e575f5ffd5b809150509250929050565b5f5f83601f840112612c89575f5ffd5b50813567ffffffffffffffff811115612ca0575f5ffd5b602083019150836020828501011115612cb7575f5ffd5b9250929050565b5f5f5f5f5f60808688031215612cd2575f5ffd5b8535612cdd81612a13565b94506020860135612ced81612a13565b935060408601359250606086013567ffffffffffffffff811115612d0f575f5ffd5b612d1b88828901612c79565b969995985093965092949392505050565b5f5f5f5f60608587031215612d3f575f5ffd5b8435935060208501359250604085013567ffffffffffffffff811115612d63575f5ffd5b612d6f87828801612c79565b95989497509550505050565b5f610140828403128015612b78575f5ffd5b5f5f60408385031215612d9e575f5ffd5b8235612da981612a13565b91506020830135612c6e81612a13565b600181811c90821680612dcd57607f821691505b602082108103612deb57634e487b7160e01b5f52602260045260245ffd5b50919050565b5f5f5f5f5f60a08688031215612e05575f5ffd5b8551612e1081612abf565b6020870151604088015160608901519297509095509350612e3081612abf565b6080870151909250612e4181612abf565b809150509295509295909350565b5f5f60408385031215612e60575f5ffd5b505080516020909101519092909150565b5f60208284031215612e81575f5ffd5b815161297581612989565b634e487b7160e01b5f52601160045260245ffd5b5f81612eae57612eae612e8c565b505f190190565b5f5f60408385031215612ec6575f5ffd5b8251612ed181612abf565b6020840151909250612c6e81612abf565b6001600160a01b03868116825285166020820152604081018490526080606082018190528101829052818360a08301375f81830160a090810191909152601f909201601f19160101949350505050565b5f60208284031215612f42575f5ffd5b815161297581612bcb565b5f6060828403128015612f5e575f5ffd5b50612f67612a65565b8235612f7281612a13565b81526020830135612f8281612a13565b60208201526040830135612bbf81612a13565b5f60208284031215612fa5575f5ffd5b813561297581612bcb565b8060020b811461299e575f5ffd5b5f60208284031215612fce575f5ffd5b813561297581612fb0565b5f60018201612fea57612fea612e8c565b5060010190565b805161ffff8116811461106c575f5ffd5b5f5f5f5f5f60a08688031215613016575f5ffd5b855161302181612a13565b602087015190955061303281612fb0565b935061304060408701612ff1565b925061304e60608701612ff1565b915061305c60808701612ff1565b90509295509295909350565b5f60208284031215613078575f5ffd5b815161297581612a13565b60018060a01b03861681528460020b60208201528360020b60408201526001600160801b038316606082015260a060808201525f6130c460a08301846129bc565b979650505050505050565b5f602082840312156130df575f5ffd5b815167ffffffffffffffff8111156130f5575f5ffd5b8201601f81018413613105575f5ffd5b805167ffffffffffffffff81111561311f5761311f612a51565b613132601f8201601f1916602001612a8e565b818152856020838501011115613146575f5ffd5b8160208401602083015e5f91810160200191909152949350505050565b5f81518060208401855e5f93019283525090919050565b7f3c73766720786d6c6e733d27687474703a2f2f7777772e77332e6f72672f323081527f30302f737667272076696577426f783d273020302033303020343830273e000060208201527f3c7374796c653e2e746f6b656e73207b20666f6e743a20626f6c642033307078603e8201526d2073616e732d73657269663b207d60901b605e8201527f2e666565207b20666f6e743a206e6f726d616c20323670782073616e732d7365606c820152657269663b207d60d01b608c8201527f2e7469636b207b20666f6e743a206e6f726d616c20313870782073616e732d7360928201526e32b934b31d903e9e17b9ba3cb6329f60891b60b28201525f61329361328d61328760c1850188613163565b86613163565b84613163565b651e17b9bb339f60d11b815260060195945050505050565b7f7b226e616d65223a22556e697377617020563320506f736974696f6e222c000081526e113232b9b1b934b83a34b7b7111d1160891b601e8201525f6132f4602d830185613163565b61088b60f21b81527f22696d616765223a22646174613a696d6167652f7376672b786d6c3b626173656002820152620d8d0b60ea1b602282015261333b6025820185613163565b61227d60f01b815260020195945050505050565b7f646174613a6170706c69636174696f6e2f6a736f6e3b6261736536342c00000081525f612975601d830184613163565b5f600160ff1b820161339457613394612e8c565b505f0390565b5f8160020b627fffff1981036133b2576133b2612e8c565b5f0392915050565b808202811582820484141761046957610469612e8c565b634e487b7160e01b5f52601260045260245ffd5b5f826133f3576133f36133d1565b500490565b5f82613406576134066133d1565b500690565b8082018082111561046957610469612e8c565b7f3c726563742077696474683d2233303022206865696768743d223438302220668152680d2d8d87a44d0e6d8560bb1b60208201525f6134616029830185613163565b6b161a1812961a18129491179f60a11b81527f3c7265637420783d2233302220793d223330222077696474683d223234302220600c8201527f6865696768743d22343230222072783d223135222072793d223135222066696c602c820152660d87a44d0e6d8560cb1b604c8201526134dc6053820185613163565b7f2c313030252c3530252922207374726f6b653d2223303030222f3e00000000008152601b0195945050505050565b7f3c7265637420783d2233302220793d223837222077696474683d22323430222081526c3432b4b3b43a1e911a1911179f60991b60208201527f3c7465787420783d2233392220793d223132302220636c6173733d22746f6b65602d8201526f373991103334b6361e9111b33333111f60811b604d8201525f613591605d830186613163565b602f60f81b81526135a56001820186613163565b7f3c2f746578743e3c7265637420783d2233302220793d22313332222077696474815274341e91191a1811103432b4b3b43a1e91199811179f60591b60208201527f3c7465787420783d2233392220793d22313230222064793d2233362220636c6160358201527439b99e913332b291103334b6361e9111b33333111f60591b60558201529050613639606a820185613163565b661e17ba32bc3a1f60c91b81526007019695505050505050565b7f3c7265637420783d2233302220793d22333432222077696474683d223234302281526d103432b4b3b43a1e91191a11179f60911b60208201527f3c7465787420783d2233392220793d223336302220636c6173733d227469636b602e8201527f222066696c6c3d2223666666223e4c6f776572207469636b3a20000000000000604e8201525f6136e76068830185613163565b661e17ba32bc3a1f60c91b81527f3c7265637420783d2233302220793d22333732222077696474683d223234302260078201526d103432b4b3b43a1e91191a11179f60911b60278201527f3c7465787420783d2233392220793d22333630222064793d2233302220636c6160358201527f73733d227469636b222066696c6c3d2223666666223e5570706572207469636b60558201526101d160f51b60758201526137956077820185613163565b661e17ba32bc3a1f60c91b815260070195945050505050565b5f6137b98288613163565b602f60f81b81526137cd6001820188613163565b9050600160fd1b81526137e36001820187613163565b90506d016102637bbb2b9103a34b1b59d160951b8152613806600e820186613163565b90506d016102ab83832b9103a32bc3a1d160951b8152613829600e820185613163565b98975050505050505050565b6001600160a01b03828116828216039081111561046957610469612e8c565b8181038181111561046957610469612e8c565b634e487b7160e01b5f52603260045260245ffd5b5f6110c661328d838661316356fe610120604052348015610010575f5ffd5b50336001600160a01b031663890357306040518163ffffffff1660e01b815260040160a0604051808303815f875af115801561004e573d5f5f3e3d5ffd5b505050506040513d601f19601f8201168201806040525081019061007291906100cb565b62ffffff908116610100521660e0526001600160a01b0390811660c05290811660a0521660805261012c565b80516001600160a01b03811681146100b4575f5ffd5b919050565b805162ffffff811681146100b4575f5ffd5b5f5f5f5f5f60a086880312156100df575f5ffd5b6100e88661009e565b94506100f66020870161009e565b93506101046040870161009e565b9250610112606087016100b9565b9150610120608087016100b9565b90509295509295909350565b60805160a05160c05160e051610100516146e96101e75f395f818161046b01528181610a7501528181610aab01526115fc01525f81816104090152818161155301528181611d2a0152611d6201525f818161044401528181610b8601528181610c9601528181610e1d015281816110b90152818161198a0152611f6e01525f818161013b01528181610afa01528181610c1401528181610d6d01528181610fc701528181611ab50152611edf01525f6103e201526146e95ff3fe608060405234801561000f575f5ffd5b5060043610610132575f3560e01c8063514ea4bf116100b4578063d0c93a7c11610079578063d0c93a7c14610404578063d21220a71461043f578063ddca3f4314610466578063f30583991461048d578063f30dba9314610495578063f637731d1461051d575f5ffd5b8063514ea4bf1461030b5780635339c2961461038b578063883bdbfd146103aa578063a34123a7146103ca578063c45a0155146103dd575f5ffd5b80633850c7bd116100fa5780633850c7bd1461021c5780633c8a7d8d1461029b57806346141319146102ae5780634a182392146102c55780634f1eb3d8146102d8575f5ffd5b80630dfe168114610136578063128acb081461017a5780631a686502146101a2578063252c09d7146101cd57806332148f6714610207575b5f5ffd5b61015d7f000000000000000000000000000000000000000000000000000000000000000081565b6040516001600160a01b0390911681526020015b60405180910390f35b61018d610188366004613ebd565b610530565b60408051928352602083019190915201610171565b6003546101b5906001600160801b031681565b6040516001600160801b039091168152602001610171565b6101e06101db366004613f41565b61077b565b6040805163ffffffff909416845260069290920b6020840152151590820152606001610171565b61021a610215366004613f58565b6107ae565b005b6002805461025d916001600160a01b03821691600160a01b810490910b9061ffff600160b81b8204811691600160c81b8104821691600160d81b9091041685565b604080516001600160a01b03909616865260029490940b602086015261ffff928316938501939093528116606084015216608082015260a001610171565b61018d6102a9366004613fa0565b61083d565b6102b760015481565b604051908152602001610171565b61021a6102d3366004613fea565b610a6e565b6102eb6102e6366004614039565b610ef3565b604080516001600160801b03938416815292909116602083015201610171565b610355610319366004613f41565b60066020525f908152604090208054600182015460028301546003909301546001600160801b0392831693919281811691600160801b90041685565b604080516001600160801b039687168152602081019590955284019290925283166060830152909116608082015260a001610171565b6102b761039936600461409c565b60056020525f908152604090205481565b6103bd6103b83660046140bc565b6111bb565b604051610171919061412d565b61018d6103d8366004614172565b61122a565b61015d7f000000000000000000000000000000000000000000000000000000000000000081565b61042b7f000000000000000000000000000000000000000000000000000000000000000081565b60405162ffffff9091168152602001610171565b61015d7f000000000000000000000000000000000000000000000000000000000000000081565b61042b7f000000000000000000000000000000000000000000000000000000000000000081565b6102b75f5481565b6104e26104a33660046141b2565b60046020525f9081526040902080546001820154600283015460039093015460ff8316936101009093046001600160801b031692600f9290920b919085565b6040805195151586526001600160801b039094166020860152600f9290920b928401929092526060830191909152608082015260a001610171565b61021a61052b3660046141cb565b611360565b6040805160a081018252600280546001600160a01b0381168352600160a01b810490910b602083015261ffff600160b81b8204811693830193909352600160c81b810483166060830152600160d81b900490911660808201526003545f9182916001600160801b0316886105e257815f01516001600160a01b0316876001600160a01b031610806105dd575073fffd8963efd1fc6a506488495d951d5263988d266001600160a01b038816115b610612565b815f01516001600160a01b0316876001600160a01b0316118061061257506401000276a36001600160a01b038816105b1561063057604051632d4eeeb360e21b815260040160405180910390fd5b5f5f891390505f6040518060c001604052808b81526020015f8152602001855f01516001600160a01b03168152602001856020015160020b81526020018c61067a5760015461067d565b5f545b8152602001846001600160801b0316815250905061069e8b838b848861147d565b945090506106ae81858d86611835565b8115158b1515146106cf57602081015181516106ca908c6141fa565b6106e1565b80516106db908b6141fa565b81602001515b90965094506106f48c8c88888c8c61197a565b6002805460a083810151604080518b8152602081018b90526001600160a01b03808616828401526001600160801b039093166060820152600160a01b90940490940b60808401529251928f169233927fc42079f94a6350d7e6235f29174924f928cc2ac818eb64fed8004e115fbcca6792908290030190a350505050965096945050505050565b60078161ffff811061078b575f80fd5b015463ffffffff81169150600160201b810460060b90600160581b900460ff1683565b600254600160d81b900461ffff165f6107c960078385611bda565b90508161ffff168161ffff1614610838576002805461ffff60d81b1916600160d81b61ffff8481169182029290921790925560408051918516825260208201929092527fac49e518f90a358f652e4400164f05a5d8f7e35e7747279bc3a93dbf584e125a910160405180910390a15b505050565b5f5f8560020b8760020b12158061085b5750620d89e719600288900b125b80610877575061086e620d89e719614220565b60020b8660020b135b15610894576040516264847d60e41b815260040160405180910390fd5b846001600160801b03165f036108bd57604051630200e8a960e31b815260040160405180910390fd5b5f5f6108fa60405180608001604052808c6001600160a01b031681526020018b60020b81526020018a60020b815260200189600f0b815250611c49565b92509250508193508092505f5f5f86111561091a57610917611ec8565b91505b841561092b57610928611f57565b90505b60405163d348799760e01b8152339063d34879979061095490899089908d908d90600401614268565b5f604051808303815f87803b15801561096b575f5ffd5b505af115801561097d573d5f5f3e3d5ffd5b505050505f8611801561099f5750610993611ec8565b61099d8784614287565b115b156109bd5760405163098fb56160e01b815260040160405180910390fd5b5f851180156109db57506109cf611f57565b6109d98683614287565b115b156109f95760405163098fb56160e01b815260040160405180910390fd5b604080513381526001600160801b038b1660208201529081018790526060810186905260028b810b91908d900b906001600160a01b038f16907f7a53080ba414158be7ec69b987b5fb7d07dee101fe85488f0853ae16239d0bde9060800160405180910390a450505050965096945050505050565b5f610aa2857f000000000000000000000000000000000000000000000000000000000000000062ffffff16620f4240611fa5565b90505f610ad8857f000000000000000000000000000000000000000000000000000000000000000062ffffff16620f4240611fa5565b6040516370a0823160e01b81523060048201529091505f906001600160a01b037f000000000000000000000000000000000000000000000000000000000000000016906370a08231906024016020604051808303815f875af1158015610b40573d5f5f3e3d5ffd5b505050506040513d601f19601f82011682018060405250810190610b64919061429a565b6040516370a0823160e01b81523060048201529091505f906001600160a01b037f000000000000000000000000000000000000000000000000000000000000000016906370a08231906024016020604051808303815f875af1158015610bcc573d5f5f3e3d5ffd5b505050506040513d601f19601f82011682018060405250810190610bf0919061429a565b90508715610c745760405163a9059cbb60e01b8152336004820152602481018990527f00000000000000000000000000000000000000000000000000000000000000006001600160a01b03169063a9059cbb906044015f604051808303815f87803b158015610c5d575f5ffd5b505af1158015610c6f573d5f5f3e3d5ffd5b505050505b8615610cf65760405163a9059cbb60e01b8152336004820152602481018890527f00000000000000000000000000000000000000000000000000000000000000006001600160a01b03169063a9059cbb906044015f604051808303815f87803b158015610cdf575f5ffd5b505af1158015610cf1573d5f5f3e3d5ffd5b505050505b604051630e9cbafb60e41b8152339063e9cbafb090610d1f90879087908b908b90600401614268565b5f604051808303815f87803b158015610d36575f5ffd5b505af1158015610d48573d5f5f3e3d5ffd5b505050508382610d589190614287565b6040516370a0823160e01b81523060048201527f00000000000000000000000000000000000000000000000000000000000000006001600160a01b0316906370a08231906024016020604051808303815f875af1158015610dbb573d5f5f3e3d5ffd5b505050506040513d601f19601f82011682018060405250810190610ddf919061429a565b1015610dfe57604051637bc35e0560e01b815260040160405180910390fd5b610e088382614287565b6040516370a0823160e01b81523060048201527f00000000000000000000000000000000000000000000000000000000000000006001600160a01b0316906370a08231906024016020604051808303815f875af1158015610e6b573d5f5f3e3d5ffd5b505050506040513d601f19601f82011682018060405250810190610e8f919061429a565b1015610eae57604051637bc35e0560e01b815260040160405180910390fd5b604080518981526020810189905233917f1c1db1f1d6a01e51fec24bb54087b65fe5430f692280e70d92f718eb72ae76b7910160405180910390a25050505050505050565b5f8080610f036006338989611fea565b60038101549091506001600160801b0390811690861611610f245784610f33565b60038101546001600160801b03165b60038201549093506001600160801b03600160801b909104811690851611610f5b5783610f71565b6003810154600160801b90046001600160801b03165b91506001600160801b0383161561105e576003810180548491905f90610fa19084906001600160801b03166142b1565b92506101000a8154816001600160801b0302191690836001600160801b031602179055507f00000000000000000000000000000000000000000000000000000000000000006001600160a01b031663a9059cbb89856040518363ffffffff1660e01b81526004016110309291906001600160a01b039290921682526001600160801b0316602082015260400190565b5f604051808303815f87803b158015611047575f5ffd5b505af1158015611059573d5f5f3e3d5ffd5b505050505b6001600160801b0382161561115057818160030160108282829054906101000a90046001600160801b031661109391906142b1565b92506101000a8154816001600160801b0302191690836001600160801b031602179055507f00000000000000000000000000000000000000000000000000000000000000006001600160a01b031663a9059cbb89846040518363ffffffff1660e01b81526004016111229291906001600160a01b039290921682526001600160801b0316602082015260400190565b5f604051808303815f87803b158015611139575f5ffd5b505af115801561114b573d5f5f3e3d5ffd5b505050505b604080516001600160a01b038a1681526001600160801b0385811660208301528416818301529051600288810b92908a900b9133917fa89c1c8a741251492622c95237828c75d1dbb03ea956f09e3792ff2a14f4fe62919081900360600190a4509550959350505050565b6060611221428484808060200260200160405190810160405280939291908181526020018383602002808284375f920191909152505060028054600795949350600160a01b810490910b915061ffff600160b81b8204811691600160c81b900416612046565b90505b92915050565b5f5f5f5f5f6112726040518060800160405280336001600160a01b031681526020018a60020b81526020018960020b815260200188611268906142d0565b600f0b9052611c49565b92509250925081611282906142f5565b945061128d816142f5565b93505f85118061129c57505f84115b156112fe5760038301546112ba9086906001600160801b031661430f565b60038401546112da908690600160801b90046001600160801b031661430f565b6001600160801b039182169116600160801b026001600160801b0319161760038401555b604080516001600160801b038816815260208101879052908101859052600288810b91908a900b9033907f0c396cd989a39f4459b5fa1aed6a9a8dcdbc45908acfd67e028cd568da98982c9060600160405180910390a4505050935093915050565b6002546001600160a01b0316156113895760405162dc149f60e41b815260040160405180910390fd5b5f611393826120f8565b90505f806113e3426007906040805160608101825263ffffffff929092168083525f602084015260019290910182905282546bffffffffffffffffffffffff191617600160581b17909155908190565b6040805160a0810182526001600160a01b0397909716808852600287810b60208a01525f9289019290925261ffff9384166060890181905292909316608090970187905280546001600160b81b031916909217600160a01b62ffffff909616959095029490941765ffffffffffff60b81b1916600160c81b90940261ffff60d81b191693909317600160d81b909402939093179091555050565b6040805160c0810182525f80825260208083018290528284018290526060808401839052608080850184905260a080860185905286519081018752848152928301849052948201839052810182905292830152905b8351158015906114f85750846001600160a01b031684604001516001600160a01b031614155b15611829576040805160e0810182525f8082526020820181905281830181815260608084018390526080840183905260a0840183905260c0840192909252928701516001600160a01b031690925290850151611578906005907f00000000000000000000000000000000000000000000000000000000000000008b612432565b1515602083015260020b80825261158e906125e7565b6001600160a01b0316606082015284516040860151611620908a6115ca57886001600160a01b031684606001516001600160a01b0316116115e4565b886001600160a01b031684606001516001600160a01b0316105b6115f25783606001516115f4565b885b8860a00151847f0000000000000000000000000000000000000000000000000000000000000000612a01565b60c086015260a085015260808401526001600160a01b031660408701528715611687578160c0015182608001516116579190614287565b865187906116669083906141fa565b90525060a082015160208701805161167f9083906141fa565b9052506116c7565b60a08201518651879061169b90839061432e565b90525060c082015160808301516116b29190614287565b866020018181516116c3919061432e565b9052505b60a08601516001600160801b03161561170f576116fa8260c00151600160801b8860a001516001600160801b0316612c70565b8660800181815161170b9190614287565b9052505b81606001516001600160a01b031686604001516001600160a01b0316036117eb578160200151156117c4575f611771835f01518b61174e575f54611754565b88608001515b8c611763578960800151611767565b6001545b6004929190612d38565b9050891561178557611782816142d0565b90505b6117938760a0015182612d84565b6001600160801b031660a088018190525f036117c257604051634323a55560e01b815260040160405180910390fd5b505b886117d05781516117de565b81516117de90600190614355565b60020b6060870152611822565b81604001516001600160a01b031686604001516001600160a01b0316146118225761181986604001516120f8565b60020b60608701525b50506114d2565b50919590945092505050565b826020015160020b846060015160020b146118f2575f5f611876856040015161185b4290565b6020880151606089015160808a015160079493929190612db4565b604088015160608901516002805463ffffffff60b81b1916600160c81b61ffff9586160261ffff60b81b191617600160b81b9590941694909402929092176001600160b81b031916600160a01b62ffffff909316929092026001600160a01b031916919091176001600160a01b03909116179055506119179050565b6040840151600280546001600160a01b0319166001600160a01b039092169190911790555b8360a001516001600160801b0316816001600160801b0316146119595760a0840151600380546001600160801b0319166001600160801b039092169190911790555b811561196b5760808401515f55611974565b60808401516001555b50505050565b8415611aab576001600160a01b037f00000000000000000000000000000000000000000000000000000000000000001663a9059cbb876119b9866142f5565b6040516001600160e01b031960e085901b1681526001600160a01b03909216600483015260248201526044015f604051808303815f87803b1580156119fc575f5ffd5b505af1158015611a0e573d5f5f3e3d5ffd5b505050505f611a1b611ec8565b60405163fa461e3360e01b8152909150339063fa461e3390611a47908890889088908890600401614268565b5f604051808303815f87803b158015611a5e575f5ffd5b505af1158015611a70573d5f5f3e3d5ffd5b50505050611a7c611ec8565b611a868683614287565b1115611aa55760405163098fb56160e01b815260040160405180910390fd5b50611bd2565b6001600160a01b037f00000000000000000000000000000000000000000000000000000000000000001663a9059cbb87611ae4876142f5565b6040516001600160e01b031960e085901b1681526001600160a01b03909216600483015260248201526044015f604051808303815f87803b158015611b27575f5ffd5b505af1158015611b39573d5f5f3e3d5ffd5b505050505f611b46611f57565b60405163fa461e3360e01b8152909150339063fa461e3390611b72908890889088908890600401614268565b5f604051808303815f87803b158015611b89575f5ffd5b505af1158015611b9b573d5f5f3e3d5ffd5b50505050611ba7611f57565b611bb18583614287565b1115611bd05760405163098fb56160e01b815260040160405180910390fd5b505b505050505050565b5f8261ffff168261ffff1611611bf1575081611c42565b825b8261ffff168161ffff161015611c3d576001858261ffff1661ffff8110611c1c57611c1c61437a565b01805463ffffffff191663ffffffff92909216919091179055600101611bf3565b508190505b9392505050565b6040805160a081018252600280546001600160a01b0381168352600160a01b810490910b60208084019190915261ffff600160b81b8304811684860152600160c81b830481166060850152600160d81b90920490911660808301525f8054600154865193870151958701519295869586959094611cc99260069291611fea565b6020808901519085015160608a01519298505f92611cee926004929091878787612ef7565b6040890151602086015160608b01519293505f92611d1492600492909188886001612ef7565b90508115611d4e576020890151611d4e906005907f0000000000000000000000000000000000000000000000000000000000000000612ffc565b8015611d86576040890151611d86906005907f0000000000000000000000000000000000000000000000000000000000000000612ffc565b6020808a015160408b0151918701515f928392611da892600492908a8a61304c565b60608d01519193509150611dbf908b908484613134565b8a6020015160020b876020015160020b1215611e0357611dfc611de58c602001516125e7565b611df28d604001516125e7565b8d60600151613279565b9850611eba565b8a6040015160020b876020015160020b1215611e9057611e2d875f0151611df28d604001516125e7565b9850611e4b611e3f8c602001516125e7565b885160608e01516132b3565b60035460608d0151919950611e6b916001600160801b0390911690612d84565b600380546001600160801b0319166001600160801b0392909216919091179055611eba565b611eb7611ea08c602001516125e7565b611ead8d604001516125e7565b8d606001516132b3565b97505b505050505050509193909250565b6040516370a0823160e01b81523060048201525f907f00000000000000000000000000000000000000000000000000000000000000006001600160a01b0316906370a08231906024015b6020604051808303815f875af1158015611f2e573d5f5f3e3d5ffd5b505050506040513d601f19601f82011682018060405250810190611f52919061429a565b905090565b6040516370a0823160e01b81523060048201525f907f00000000000000000000000000000000000000000000000000000000000000006001600160a01b0316906370a0823190602401611f12565b5f611fb1848484612c70565b90505f8280611fc257611fc261438e565b8486091115611c42575f198110611fd7575f5ffd5b80611fe1816143a2565b95945050505050565b6040805160609490941b6bffffffffffffffffffffffff191660208086019190915260e893841b60348601529190921b60378401528151601a818503018152603a90930182528251928101929092205f90815292909152902090565b6060845167ffffffffffffffff811115612062576120626143ba565b60405190808252806020026020018201604052801561208b578160200160208202803683370190505b5090505f5b85518110156120ed576120c088888884815181106120b0576120b061437a565b60200260200101518888886132df565b8282815181106120d2576120d261437a565b60069290920b60209283029190910190910152600101612090565b509695505050505050565b5f6401000276a36001600160a01b03831610801590612133575073fffd8963efd1fc6a506488495d951d5263988d266001600160a01b038316105b6121685760405162461bcd60e51b81526020600482015260016024820152602960f91b60448201526064015b60405180910390fd5b640100000000600160c01b03602083901b166001600160801b03811160071b81811c67ffffffffffffffff811160061b90811c63ffffffff811160051b90811c61ffff811160041b90811c60ff8111600390811b91821c600f811160021b90811c918211600190811b92831c97908811961790941790921717909117171760808110612203576121f9607f826143ce565b83901c9150612214565b61220e81607f6143ce565b83901b91505b5f60406122226080846141fa565b901b9050828302607f1c92508260801c80603f1b8217915083811c935050828302607f1c92508260801c80603e1b8217915083811c935050828302607f1c92508260801c80603d1b8217915083811c935050828302607f1c92508260801c80603c1b8217915083811c935050828302607f1c92508260801c80603b1b8217915083811c935050828302607f1c92508260801c80603a1b8217915083811c935050828302607f1c92508260801c8060391b8217915083811c935050828302607f1c92508260801c8060381b8217915083811c935050828302607f1c92508260801c8060371b8217915083811c935050828302607f1c92508260801c8060361b8217915083811c935050828302607f1c92508260801c8060351b8217915083811c935050828302607f1c92508260801c8060341b8217915083811c935050828302607f1c92508260801c8060331b8217915083811c935050828302607f1c92508260801c8060321b82179150505f81693627a301d71055774c856123a491906143e1565b90505f60806123c36f028f6481ab7f045a5af012a19d003aaa846141fa565b901d90505f60806123e4846fdb2df09e81959a81455e260799a0632f61432e565b901d90508060020b8260020b1461242357886001600160a01b0316612408826125e7565b6001600160a01b0316111561241d5781612425565b80612425565b815b9998505050505050505050565b5f808061243f8587614410565b90505f8660020b12801561245e57506124588587614448565b60020b15155b15612471578061246d81614469565b9150505b831561251b575f5f61248283613449565b90925090505f600160ff831681901b9061249c90826143ce565b6124a69190614287565b600184900b5f90815260208c9052604090205481168015159650909150856124e557886124d660ff851687614355565b6124e0919061448a565b612510565b886124ef82613465565b6124f990856144a9565b6125069060ff1687614355565b612510919061448a565b9650505050506125dd565b5f8061253061252b8460016144c2565b613449565b90925090505f612547600160ff841681901b6143ce565b600184900b5f90815260208c90526040902054901990811680151596509091508561259f57886125788460ff6144a9565b60ff166125868760016144c2565b61259091906144c2565b61259a919061448a565b6125d6565b88836125aa8361355a565b6125b491906144a9565b60ff166125c28760016144c2565b6125cc91906144c2565b6125d6919061448a565b9650505050505b5094509492505050565b5f5f5f8360020b126125fc578260020b612609565b8260020b612609906142f5565b9050612618620d89e719614220565b62ffffff168111156126505760405162461bcd60e51b81526020600482015260016024820152601560fa1b604482015260640161215f565b5f816001165f0361266557600160801b612677565b6ffffcb933bd6fad37aa2d162d1a5940015b70ffffffffffffffffffffffffffffffffff16905060028216156126b65760806126b1826ffff97272373d413259a46990580e213a6144e7565b901c90505b60048216156126e05760806126db826ffff2e50f5f656932ef12357cf3c7fdcc6144e7565b901c90505b600882161561270a576080612705826fffe5caca7e10e4e61c3624eaa0941cd06144e7565b901c90505b601082161561273457608061272f826fffcb9843d60f6159c9db58835c9266446144e7565b901c90505b602082161561275e576080612759826fff973b41fa98c081472e6896dfb254c06144e7565b901c90505b6040821615612788576080612783826fff2ea16466c96a3843ec78b326b528616144e7565b901c90505b60808216156127b25760806127ad826ffe5dee046a99a2a811c461f1969c30536144e7565b901c90505b6101008216156127dd5760806127d8826ffcbe86c7900a88aedcffc83b479aa3a46144e7565b901c90505b610200821615612808576080612803826ff987a7253ac413176f2b074cf7815e546144e7565b901c90505b61040082161561283357608061282e826ff3392b0822b70005940c7a398e4b70f36144e7565b901c90505b61080082161561285e576080612859826fe7159475a2c29b7443b29c7fa6e889d96144e7565b901c90505b611000821615612889576080612884826fd097f3bdfd2022b8845ad8f792aa58256144e7565b901c90505b6120008216156128b45760806128af826fa9f746462d870fdf8a65dc1f90e061e56144e7565b901c90505b6140008216156128df5760806128da826f70d869a156d2a1b890bb3df62baf32f76144e7565b901c90505b61800082161561290a576080612905826f31be135f97d08fd981231505542fcfa66144e7565b901c90505b62010000821615612936576080612931826f09aa508b5b7a84e1c677de54f3e99bc96144e7565b901c90505b6202000082161561296157608061295c826e5d6af8dedb81196699c329225ee6046144e7565b901c90505b6204000082161561298b576080612986826d2216e584f5fa1ea926041bedfe986144e7565b901c90505b620800008216156129b35760806129ae826b048a170391f7dc42444e8fa26144e7565b901c90505b5f8460020b13156129cc576129c9815f196144fe565b90505b6129da600160201b82614511565b156129e65760016129e8565b5f5b6129f99060ff16602083901c614287565b949350505050565b5f5f5f5f5f8612612b4a57855f612a2d82612a1f89620f4240614524565b62ffffff16620f4240612c70565b90506001600160a01b03808b16908c1610155f81612a5757612a528d8d8d6001613683565b612a64565b612a648c8e8d6001613703565b9050808310612a75578b9750612a84565b612a818d8c85856137cb565b97505b6001600160a01b03888116908d16148215612add5780612ab057612aab898f8e6001613703565b612ab2565b815b975080612aca57612ac5898f8e5f613683565b612ad6565b612ad68d8f8e5f613683565b9650612b1d565b80612af457612aef8e8a8e6001613683565b612af6565b815b975080612b0e57612b098e8a8e5f613703565b612b1a565b612b1a8e8e8e5f613703565b96505b612b3e8862ffffff8c16612b348d620f4240614524565b62ffffff16611fa5565b95505050505050612c64565b5f612b54876142f5565b90506001600160a01b03808a16908b1610155f81612b7e57612b798c8c8c6001613703565b612b8b565b612b8b8b8d8c6001613683565b9050808310612b9c578a9650612bab565b612ba88c8b85856137ec565b96505b6001600160a01b03878116908c16148215612c055780612bd657612bd1888e8d5f613683565b612bd8565b815b955080612bf157612bec888e8d6001613703565b612bfe565b612bfe8c8e8d6001613703565b9650612c46565b80612c1b57612c168d898d5f613703565b612c1d565b815b955080612c3657612c318d898d6001613683565b612c43565b612c438d8d8d6001613683565b96505b612c5d8762ffffff8b16612b348c620f4240614524565b9450505050505b95509550955095915050565b5f80805f19858709858702925082811083820303915050805f03612ca757838281612c9d57612c9d61438e565b0492505050611c42565b838110612cd157604051631dcf306360e21b8152600481018290526024810185905260440161215f565b5f8486880960026001871981018816978890046003810283188082028403028082028403028082028403028082028403028082028403029081029092039091025f889003889004909101858311909403939093029303949094049190911702949350505050565b600283810b5f90815260208690526040812091820154909190612d5b90856143ce565b60028201556003810154612d6f90846143ce565b600382015560010154600f0b95945050505050565b5f5f82600f0b1215612daa57612d99826142d0565b612da390846142b1565b9050611224565b611221828461430f565b5f5f5f888861ffff1661ffff8110612dce57612dce61437a565b60408051606081018252919092015463ffffffff808216808452600160201b830460060b6020850152600160581b90920460ff161515938301939093529092509088169003612e235787859250925050612eec565b8461ffff168461ffff16118015612e4b5750612e4060018661453f565b61ffff168861ffff16145b15612e5857839150612e5c565b8491505b81612e68896001614559565b612e729190614573565b9250612e7f818888613808565b898461ffff1661ffff8110612e9657612e9661437a565b82519101805460208401516040909401511515600160581b0260ff60581b1966ffffffffffffff909516600160201b026affffffffffffffffffffff1990921663ffffffff909416939093171792909216179055505b965096945050505050565b600286900b5f908152602088905260408120805461010090046001600160801b031682612f248289612d84565b6001600160801b03808216159084168015919091141595509091505f03612f6d578860020b8a60020b13612f615760028301879055600383018690555b825460ff191660011783555b825470ffffffffffffffffffffffffffffffff0019166101006001600160801b0383160217835584612fb4576001830154612faf90600f8a810b91900b61432e565b612fca565b6001830154612fca90600f8a810b91900b6141fa565b60019390930180546001600160801b0319166001600160801b0390941693909317909255509098975050505050505050565b6130068183614448565b60020b15613012575f5ffd5b5f8061302161252b8486614410565b600191820b5f9081526020979097526040909620805460ff9097169190911b90951890945550505050565b600285810b5f8181526020899052604080822088850b83529082209193849391929184918291908a900b1261308c575050600282015460038301546130b0565b600284015461309b90896143ce565b91508360030154876130ad91906143ce565b90505b5f5f8b60020b8b60020b12156130d1575050600283015460038401546130f5565b60028501546130e0908b6143ce565b91508460030154896130f291906143ce565b90505b81613100858c6143ce565b61310a91906143ce565b975080613117848b6143ce565b61312191906143ce565b9650505050505050965096945050505050565b5f61315d85600101548461314891906143ce565b86546001600160801b0316600160801b612c70565b90505f61318886600201548461317391906143ce565b87546001600160801b0316600160801b612c70565b86549091506131a0906001600160801b031686612d84565b86546001600160801b0319166001600160801b03918216178755600187018590556002870184905582161515806131df57505f816001600160801b0316115b15611bd2576003860180548391905f906132039084906001600160801b031661430f565b92506101000a8154816001600160801b0302191690836001600160801b03160217905550808660030160108282829054906101000a90046001600160801b031661324d919061430f565b92506101000a8154816001600160801b0302191690836001600160801b03160217905550505050505050565b5f5f82600f0b12613296576132918484846001613703565b6129f9565b6132aa84846132a4856142d0565b5f613703565b6129f9906142f5565b5f5f82600f0b126132cb576132918484846001613683565b6132aa84846132d9856142d0565b5f613683565b5f8463ffffffff165f03613366575f878461ffff1661ffff81106133055761330561437a565b60408051606081018252919092015463ffffffff808216808452600160201b830460060b6020850152600160581b90920460ff161515938301939093529092509088161461335b57613358818887613808565b90505b60200151905061343f565b5f6133718688614596565b90505f5f6133838a8a858a8a8a613885565b91509150815f015163ffffffff168363ffffffff16036133ab575060200151915061343f9050565b805f015163ffffffff168363ffffffff16036133cf5760200151925061343f915050565b815181515f916133de91614596565b63ffffffff1690505f835f0151856133f69190614596565b63ffffffff16905080828560200151856020015161341491906145b2565b61341e91906145df565b6134289190614612565b84602001516134379190614631565b955050505050505b9695505050505050565b600281900b60081d5f61345e61010084614448565b9050915091565b5f5f8211613471575f5ffd5b600160801b821061348f57608091821c9161348c908261465e565b90505b6801000000000000000082106134b257604091821c916134af908261465e565b90505b600160201b82106134d057602091821c916134cd908261465e565b90505b6201000082106134ed57601091821c916134ea908261465e565b90505b610100821061350957600891821c91613506908261465e565b90505b6010821061352457600491821c91613521908261465e565b90505b6004821061353f57600291821c9161353c908261465e565b90505b600282106135555761355260018261465e565b90505b919050565b5f5f8211613566575f5ffd5b5060ff6001600160801b0382161561358a576135836080826144a9565b9050613592565b608082901c91505b67ffffffffffffffff8216156135b4576135ad6040826144a9565b90506135bc565b604082901c91505b63ffffffff8216156135da576135d36020826144a9565b90506135e2565b602082901c91505b61ffff8216156135fe576135f76010826144a9565b9050613606565b601082901c91505b60ff8216156136215761361a6008826144a9565b9050613629565b600882901c91505b600f8216156136445761363d6004826144a9565b905061364c565b600482901c91505b6003821615613667576136606002826144a9565b905061366f565b600282901c91505b6001821615613555576135526001826144a9565b5f836001600160a01b0316856001600160a01b031611156136a2579293925b81156136d9576136d26001600160801b0384166136bf8787614677565b6001600160a01b0316600160601b611fa5565b90506129f9565b611fe16001600160801b0384166136f08787614677565b6001600160a01b0316600160601b612c70565b5f836001600160a01b0316856001600160a01b03161115613722579293925b5f856001600160a01b031611613736575f5ffd5b600160601b600160e01b03606084901b165f6137528787614677565b6001600160a01b0316905083156137965761378f61377a8383896001600160a01b0316611fa5565b886001600160a01b0316808204910615150190565b92506137c1565b866001600160a01b03166137b48383896001600160a01b0316612c70565b6137be91906144fe565b92505b5050949350505050565b5f816137e1576137dc858585613a4f565b611fe1565b611fe1858585613a7b565b5f816137fd576137dc858585613b1d565b611fe1858585613bb0565b604080516060810182525f808252602082018190529181019190915283515f906138329085614596565b63ffffffff16905060405180606001604052808563ffffffff168152602001828560020b6138609190614612565b876020015161386f9190614631565b60060b8152600160209091015295945050505050565b604080516060810182525f8082526020820181905291810191909152604080516060810182525f8082526020820181905291810191909152878461ffff1661ffff81106138d4576138d461437a565b60408051606081018252919092015463ffffffff8116808352600160201b820460060b6020840152600160581b90910460ff16151592820192909252925061391e90889088613bc9565b1561394957815163ffffffff878116911614612eec5781613940838888613808565b91509150612eec565b8783613956866001614559565b6139609190614573565b61ffff1661ffff81106139755761397561437a565b60408051606081018252919092015463ffffffff81168252600160201b810460060b6020830152600160581b900460ff16151591810182905292506139ee5760408051606081018252895463ffffffff81168252600160201b810460060b6020830152600160581b900460ff1615159181019190915291505b815f015163ffffffff168663ffffffff161015613a335760405162461bcd60e51b815260206004820152600360248201526213d31160ea1b604482015260640161215f565b613a408888888787613c95565b91509150965096945050505050565b5f613a6882600160601b856001600160801b0316612c70565b6129f9906001600160a01b038616614287565b5f600160601b600160e01b03606084901b1681613aa16001600160a01b038716856144e7565b90506001600160a01b038616613ab785836144fe565b03613af0575f613ac78284614287565b9050828110613aee57613ae483886001600160a01b031683611fa5565b9350505050611c42565b505b61343f8285613b086001600160a01b038a16836144fe565b613b129190614287565b808204910615150190565b5f600160601b600160e01b03606084901b1681613b436001600160a01b038716856144e7565b90506001600160a01b038616613b5985836144fe565b03613b88575f613b698284614287565b9050828110613b8657613ae483886001600160a01b031683612c70565b505b83613b9c6001600160a01b038816846144fe565b613ba69190614287565b61343f90836144fe565b5f613a6882600160601b856001600160801b0316611fa5565b5f8363ffffffff168363ffffffff1611158015613bf257508363ffffffff168263ffffffff1611155b15613c0e578163ffffffff168363ffffffff1611159050611c42565b5f8463ffffffff168463ffffffff1611613c3b57613c3663ffffffff8516600160201b614696565b613c43565b8363ffffffff165b64ffffffffff1690505f8563ffffffff168463ffffffff1611613c7957613c7463ffffffff8516600160201b614696565b613c81565b8363ffffffff165b64ffffffffff169091111595945050505050565b60408051606080820183525f8083526020808401829052838501829052845192830185528183528201819052928101839052909183613cd5866001614559565b613cdf9190614573565b61ffff1690505f60018561ffff1683613cf89190614287565b613d0291906143ce565b90505f5b6002613d128385614287565b613d1c91906144fe565b905089613d2d61ffff881683614511565b61ffff8110613d3e57613d3e61437a565b60408051606081018252919092015463ffffffff81168252600160201b810460060b6020830152600160581b900460ff1615159181018290529550613d8f57613d88816001614287565b9250613d06565b8961ffff8716613da0836001614287565b613daa9190614511565b61ffff8110613dbb57613dbb61437a565b60408051606081018252929091015463ffffffff81168352600160201b810460060b602084015260ff600160581b9091041615159082015285519094505f90613e06908b908b613bc9565b9050808015613e1e5750613e1e8a8a875f0151613bc9565b15613e295750613e54565b80613e4057613e396001836143ce565b9250613e4e565b613e4b826001614287565b93505b50613d06565b5050509550959350505050565b6001600160a01b0381168114613e75575f5ffd5b50565b5f5f83601f840112613e88575f5ffd5b50813567ffffffffffffffff811115613e9f575f5ffd5b602083019150836020828501011115613eb6575f5ffd5b9250929050565b5f5f5f5f5f5f60a08789031215613ed2575f5ffd5b8635613edd81613e61565b955060208701358015158114613ef1575f5ffd5b9450604087013593506060870135613f0881613e61565b9250608087013567ffffffffffffffff811115613f23575f5ffd5b613f2f89828a01613e78565b979a9699509497509295939492505050565b5f60208284031215613f51575f5ffd5b5035919050565b5f60208284031215613f68575f5ffd5b813561ffff81168114611c42575f5ffd5b8035600281900b8114613555575f5ffd5b80356001600160801b0381168114613555575f5ffd5b5f5f5f5f5f5f60a08789031215613fb5575f5ffd5b8635613fc081613e61565b9550613fce60208801613f79565b9450613fdc60408801613f79565b9350613f0860608801613f8a565b5f5f5f5f60608587031215613ffd575f5ffd5b8435935060208501359250604085013567ffffffffffffffff811115614021575f5ffd5b61402d87828801613e78565b95989497509550505050565b5f5f5f5f5f60a0868803121561404d575f5ffd5b853561405881613e61565b945061406660208701613f79565b935061407460408701613f79565b925061408260608701613f8a565b915061409060808701613f8a565b90509295509295909350565b5f602082840312156140ac575f5ffd5b81358060010b8114611c42575f5ffd5b5f5f602083850312156140cd575f5ffd5b823567ffffffffffffffff8111156140e3575f5ffd5b8301601f810185136140f3575f5ffd5b803567ffffffffffffffff811115614109575f5ffd5b8560208260051b840101111561411d575f5ffd5b6020919091019590945092505050565b602080825282518282018190525f918401906040840190835b8181101561416757835160060b835260209384019390920191600101614146565b509095945050505050565b5f5f5f60608486031215614184575f5ffd5b61418d84613f79565b925061419b60208501613f79565b91506141a960408501613f8a565b90509250925092565b5f602082840312156141c2575f5ffd5b61122182613f79565b5f602082840312156141db575f5ffd5b8135611c4281613e61565b634e487b7160e01b5f52601160045260245ffd5b8181035f831280158383131683831282161715614219576142196141e6565b5092915050565b5f8160020b627fffff198103614238576142386141e6565b5f0392915050565b81835281816020850137505f828201602090810191909152601f909101601f19169091010190565b848152836020820152606060408201525f61343f606083018486614240565b80820180821115611224576112246141e6565b5f602082840312156142aa575f5ffd5b5051919050565b6001600160801b038281168282160390811115611224576112246141e6565b5f81600f0b6f7fffffffffffffffffffffffffffffff198103614238576142386141e6565b5f600160ff1b8201614309576143096141e6565b505f0390565b6001600160801b038181168382160190811115611224576112246141e6565b8082018281125f83128015821682158216171561434d5761434d6141e6565b505092915050565b600282810b9082900b03627fffff198112627fffff82131715611224576112246141e6565b634e487b7160e01b5f52603260045260245ffd5b634e487b7160e01b5f52601260045260245ffd5b5f600182016143b3576143b36141e6565b5060010190565b634e487b7160e01b5f52604160045260245ffd5b81810381811115611224576112246141e6565b8082025f8212600160ff1b841416156143fc576143fc6141e6565b8181058314821517611224576112246141e6565b5f8160020b8360020b806144265761442661438e565b627fffff1982145f198214161561443f5761443f6141e6565b90059392505050565b5f8260020b8061445a5761445a61438e565b808360020b0791505092915050565b5f8160020b627fffff198103614481576144816141e6565b5f190192915050565b5f8260020b8260020b028060020b9150808214614219576142196141e6565b60ff8281168282160390811115611224576112246141e6565b600281810b9083900b01627fffff8113627fffff1982121715611224576112246141e6565b8082028115828204841417611224576112246141e6565b5f8261450c5761450c61438e565b500490565b5f8261451f5761451f61438e565b500690565b62ffffff8281168282160390811115611224576112246141e6565b61ffff8281168282160390811115611224576112246141e6565b61ffff8181168382160190811115611224576112246141e6565b5f61ffff8316806145865761458661438e565b8061ffff84160691505092915050565b63ffffffff8281168282160390811115611224576112246141e6565b600682810b9082900b03667fffffffffffff198112667fffffffffffff82131715611224576112246141e6565b5f8160060b8360060b806145f5576145f561438e565b667fffffffffffff1982145f198214161561443f5761443f6141e6565b5f8260060b8260060b028060060b9150808214614219576142196141e6565b600681810b9083900b01667fffffffffffff8113667fffffffffffff1982121715611224576112246141e6565b60ff8181168382160190811115611224576112246141e6565b6001600160a01b038281168282160390811115611224576112246141e6565b64ffffffffff8181168382160190811115611224576112246141e656fea26469706673582212209217770e78b8217c33376f6d65f47faec04d202c7d4788a5f5cd5771fa9e3bf064736f6c634300081c00334142434445464748494a4b4c4d4e4f505152535455565758595a6162636465666768696a6b6c6d6e6f707172737475767778797a303132333435363738392b2fa2646970667358221220eae9519c0b6fab8d0b76691e422b4a54e447f073e340ea6b2562eba35c0626c064736f6c634300081c0033","linkReferences":{}},"methodIdentifiers":{"addLiquidity((uint256,uint256,uint256,uint256,uint256))":"4caad396","approve(address,uint256)":"095ea7b3","balanceOf(address)":"70a08231","burn(uint256)":"42966c68","collect((uint256,uint128,uint128))":"5f032ef4","factory()":"c45a0155","getApproved(uint256)":"081812fc","getPoolAddress(address,address,uint24)":"696d6283","isApprovedForAll(address,address)":"e985e9c5","mint((address,address,address,uint24,int24,int24,uint256,uint256,uint256,uint256))":"e7dd4c5a","name()":"06fdde03","ownerOf(uint256)":"6352211e","positions(uint256)":"99fbab88","removeLiquidity((uint256,uint128))":"12ba95ee","safeTransferFrom(address,address,uint256)":"42842e0e","safeTransferFrom(address,address,uint256,bytes)":"b88d4fde","setApprovalForAll(address,bool)":"a22cb465","supportsInterface(bytes4)":"01ffc9a7","symbol()":"95d89b41","tokenURI(uint256)":"c87b56dd","totalSupply()":"18160ddd","transferFrom(address,address,uint256)":"23b872dd","uniswapV3MintCallback(uint256,uint256,bytes)":"d3487997"},"id":16}