{"abi":[{"type":"constructor","inputs":[{"name":"factory_","type":"address","internalType":"address"}],"stateMutability":"nonpayable"},{"type":"function","name":"factory","inputs":[],"outputs":[{"name":"","type":"address","internalType":"address"}],"stateMutability":"view"},{"type":"function","name":"quoteExactInput","inputs":[{"name":"path","type":"bytes","internalType":"bytes"},{"name":"amountIn","type":"uint256","internalType":"uint256"}],"outputs":[{"name":"amountOut","type":"uint256","internalType":"uint256"},{"name":"sqrtPriceX96AfterList","type":"uint160[]","internalType":"uint160[]"},{"name":"tickAfterList","type":"int24[]","internalType":"int24[]"}],"stateMutability":"nonpayable"},{"type":"function","name":"quoteExactInputSingle","inputs":[{"name":"params","type":"tuple","internalType":"struct UniswapV3Quoter.QuoteExactInputSingleParams","components":[{"name":"tokenIn","type":"address","internalType":"address"},{"name":"tokenOut","type":"address","internalType":"address"},{"name":"fee","type":"uint24","internalType":"uint24"},{"name":"amountIn","type":"uint256","internalType":"uint256"},{"name":"sqrtPriceLimitX96","type":"uint160","internalType":"uint160"}]}],"outputs":[{"name":"amountOut","type":"uint256","internalType":"uint256"},{"name":"sqrtPriceX96After","type":"uint160","internalType":"uint160"},{"name":"tickAfter","type":"int24","internalType":"int24"}],"stateMutability":"nonpayable"},{"type":"function","name":"quoteExactOutput","inputs":[{"name":"path","type":"bytes","internalType":"bytes"},{"name":"amountOut","type":"uint256","internalType":"uint256"}],"outputs":[{"name":"amountIn","type":"uint256","internalType":"uint256"},{"name":"sqrtPriceX96AfterList","type":"uint160[]","internalType":"uint160[]"},{"name":"tickAfterList","type":"int24[]","internalType":"int24[]"}],"stateMutability":"nonpayable"},{"type":"function","name":"quoteExactOutputSingle","inputs":[{"name":"params","type":"tuple","internalType":"struct UniswapV3Quoter.QuoteExactOutputSingleParams","components":[{"name":"tokenIn","type":"address","internalType":"address"},{"name":"tokenOut","type":"address","internalType":"address"},{"name":"fee","type":"uint24","internalType":"uint24"},{"name":"amountOut","type":"uint256","internalType":"uint256"},{"name":"sqrtPriceLimitX96","type":"uint160","internalType":"uint160"}]}],"outputs":[{"name":"amountIn","type":"uint256","internalType":"uint256"},{"name":"sqrtPriceX96After","type":"uint160","internalType":"uint160"},{"name":"tickAfter","type":"int24","internalType":"int24"}],"stateMutability":"nonpayable"},{"type":"function","name":"uniswapV3SwapCallback","inputs":[{"name":"amount0Delta","type":"int256","internalType":"int256"},{"name":"amount1Delta","type":"int256","internalType":"int256"},{"name":"data","type":"bytes","internalType":"bytes"}],"outputs":[],"stateMutability":"view"}],"bytecode":{"object":"0x60a034606d57601f6155d438819003918201601f19168301916001600160401b03831184841017607157808492602094604052833981010312606d57516001600160a01b0381168103606d5760805260405161554e908161008682396080518181816103d40152610c5b0152f35b5f80fd5b634e487b7160e01b5f52604160045260245ffdfe60806040526004361015610011575f80fd5b5f3560e01c80632f80bb1d14610074578063b3b11b7e1461006f578063c45a01551461006a578063cdca175314610065578063d1d857ca146100605763fa461e331461005b575f80fd5b61050b565b6104e6565b610403565b6103bf565b610372565b346101715761008236610231565b61008b82610a50565b6100948161062d565b9261009e8261062d565b9192905b831561016c5761013c61010e6100f261012a965f1901946100fe6100c586610a64565b9194906100e26100d36101b0565b6001600160a01b039097168752565b6001600160a01b03166020860152565b62ffffff166040840152565b60608201525f608082015261091a565b91969061011b868a610673565b6001600160a01b039091169052565b6101348486610673565b9060020b9052565b838215610155575061014d90610afe565b9290926100a2565b8361016887929160405193849384610263565b0390f35b61065f565b5f80fd5b634e487b7160e01b5f52604160045260245ffd5b90601f8019910116810190811067ffffffffffffffff8211176101ab57604052565b610175565b604051906101bf60a083610189565b565b906101bf6040519283610189565b67ffffffffffffffff81116101ab57601f01601f191660200190565b81601f8201121561017157803590610202826101cf565b926102106040519485610189565b8284526020838301011161017157815f926020809301838601378301015290565b6040600319820112610171576004359067ffffffffffffffff82116101715761025c916004016101eb565b9060243590565b90606082019082526060602083015282518091526020608083019301905f5b8181106102c9575050506040818303910152602080835192838152019201905f5b8181106102b05750505090565b825160020b8452602093840193909201916001016102a3565b82516001600160a01b0316855260209485019490920191600101610282565b6001600160a01b0381160361017157565b60a0906003190112610171576040519060a0820182811067ffffffffffffffff8211176101ab5760405281600435610330816102e8565b815260243561033e816102e8565b602082015260443562ffffff81168103610171576040820152606435606082015260806084359161036e836102e8565b0152565b346101715760a036600319011261017157610168610397610392366102f9565b61077a565b604080519384526001600160a01b03909216602084015260020b908201529081906060820190565b34610171575f366003190112610171576040517f00000000000000000000000000000000000000000000000000000000000000006001600160a01b03168152602090f35b346101715761041136610231565b819061048b61043361042861042d61042887610a50565b61062d565b95610a50565b915f9361049561047e6017935b61044984610d5f565b9061046e61045686610dce565b6100f26104638989610daf565b6100e26100d36101b0565b60608201525f608082015261077a565b91959061011b898b610673565b6101348787610673565b61049f83956108fc565b926104ac82516042111590565b156104d357509161049561047e61049f936104c961048b96610cce565b9397909450610440565b8461016888929160405193849384610263565b346101715760a036600319011261017157610168610397610506366102f9565b61091a565b346101715760603660031901126101715760243560043560443567ffffffffffffffff81116101715760049261055861054960a093369087016101eb565b602080825183010191016109b5565b9093906105fd575f8113156105ee57506105719061090a565b915b604051633850c7bd60e01b815293849182905f196001861b01165afa80156105e9576060925f905f926105b4575b5060405192835260208301526040820152fd5b90506105d8915060a03d60a0116105e2575b6105d08183610189565b8101906109ec565b505050905f6105a1565b503d6105c6565b610707565b6105f8915061090a565b610571565b905f82131561060e57505b91610573565b9050610608565b67ffffffffffffffff81116101ab5760051b60200190565b9061063782610615565b6106446040519182610189565b8281528092610655601f1991610615565b0190602036910137565b634e487b7160e01b5f52601160045260245ffd5b80518210156106875760209160051b010190565b634e487b7160e01b5f52603260045260245ffd5b9190826040910312610171576020825192015190565b93909260c0959260209460018060a01b03168652151584860152604085015260018060a01b0316606084015260a0608084015280519182918260a0860152018484015e5f828201840152601f01601f1916010190565b6040513d5f823e3d90fd5b3d1561073c573d90610723826101cf565b916107316040519384610189565b82523d5f602084013e565b606090565b51908160020b820361017157565b908160609103126101715780519161077760406020840151610770816102e8565b9301610741565b90565b80515f9182918291906040906001600160a01b031660208301805190916107b4916001600160a01b03165b8585015162ffffff1691610b99565b83519091906107e5906107d9906001600160a01b03165b92516001600160a01b031690565b6001600160a01b031690565b83516001600160a01b03938416602082018190525f6040830152909593909216109161081e85606081015b03601f198101875286610189565b60608101516080909101516001600160a01b03165b6001600160a01b0381166108f4575082156108d9575f6401000276a45b935b610872865197889687958694630251596160e31b865230600487016106b1565b03925af190816108ab575b506108a65750505061089f610890610712565b6020808251830101910161074f565b9192909190565b909192565b6108cc9060403d6040116108d2575b6108c48183610189565b81019061069b565b5061087d565b503d6108ba565b5f73fffd8963efd1fc6a506488495d951d5263988d25610850565b5f9093610852565b5f19811461016c5760010190565b600160ff1b811461016c575f0390565b80515f9182918291906040906001600160a01b03166020830180519091610949916001600160a01b03166107a5565b8351909190610964906107d9906001600160a01b03166107cb565b83516001600160a01b03938416602082018190526001604083015290959390921610916109948560608101610810565b61083360806109a6606084015161090a565b9201516001600160a01b031690565b919082604091031261017157602082516109ce816102e8565b92015180151581036101715790565b519061ffff8216820361017157565b908160a0910312610171578051610a02816102e8565b91610a0f60208301610741565b91610a1c604082016109dd565b916107776080610a2e606085016109dd565b93016109dd565b90601f820180921161016c57565b9190820180921161016c57565b51601319810190811161016c576017900490565b908151610a6f602b90565b810390811161016c57610a828184610daf565b926014820180831161016c5781516017840180921161016c5710610ac25760036014838301010151916017810180911161016c57610abf91610daf565b91565b60405162461bcd60e51b8152602060048201526014602482015273746f55696e7432345f6f75744f66426f756e647360601b6044820152606490fd5b8051601619810181811161016c57610b2081610b1981610a35565b1015610dde565b610b368351610b2f835f610a43565b1115610e1b565b80610b4e575050506040515f81526020810160405290565b60405192601f8216801560051b9081818701019460161990860101920101905b808410610b865750508252601f01601f191660405290565b9092602080918551815201930190610b6e565b9091906001600160a01b038084169082161015610cc85791905b6001600160a01b03828116908416101561017157604051606093841b6bffffffffffffffffffffffff19908116602083019081529390941b909316603484015260e81b6001600160e81b0319166048830152602b8252610777916107d9918291610c1e604b82610189565b519020610cab610cb96146bd610c36602082016101c1565b8181526020810191610e5c83395190206040516001600160f81b0319602082019081527f000000000000000000000000000000000000000000000000000000000000000060601b6bffffffffffffffffffffffff19166021830152603582019590955260558101919091529182906075820190565b03601f198101835282610189565b5190206001600160a01b031690565b90610bb3565b8051601619810181811161016c57610ce981610b1981610a35565b610cf98351610b2f836017610a43565b80610d11575050506040515f81526020810160405290565b604051926017601f8316801560051b908181880101956016199087010193010101905b808410610d4c5750508252601f01601f191660405290565b9092602080918551815201930190610d34565b6014815110610d72576020015160601c90565b60405162461bcd60e51b8152602060048201526015602482015274746f416464726573735f6f75744f66426f756e647360581b6044820152606490fd5b908151601482019081831161016c5710610d7257016020015160601c90565b6017815110610ac2576017015190565b15610de557565b60405162461bcd60e51b815260206004820152600e60248201526d736c6963655f6f766572666c6f7760901b6044820152606490fd5b15610e2257565b60405162461bcd60e51b8152602060048201526011602482015270736c6963655f6f75744f66426f756e647360781b6044820152606490fdfe610120806040523461018457630890357360e41b815260a0816004815f335af19081156101a3575f915f915f915f915f91610101575b506101005260e05260c05260a0526080526040516144ea90816101d3823960805181610391015260a05181818161093701528181610a6901528181611e280152818161205e015261352c015260c05181818161030c0152818161087301528181610ac001528181611c8901526134a6015260e0518181816103570152818161135801528181611475015281816118aa01528181611a2601528181611ae601528181611b3a015281816139d70152613a130152610100518181816102d201528181610a1b01526115190152f35b94505050505060a03d60a01161019c575b601f8101601f191682016001600160401b038111838210176101885760a09183916040528101031261018457610147816101ae565b610153602083016101ae565b91610160604082016101ae565b916101796080610172606085016101c2565b93016101c2565b90939291905f610035565b5f80fd5b634e487b7160e01b5f52604160045260245ffd5b503d610112565b6040513d5f823e3d90fd5b51906001600160a01b038216820361018457565b519062ffffff821682036101845756fe60c0806040526004361015610012575f80fd5b5f905f3560e01c9081630dfe16811461204c57508063128acb08146111bb5780631a68650214611194578063252c09d71461114557806332148f67146110ad5780633850c7bd1461105a5780633c8a7d8d14610e145780634614131914610df65780634a182392146109de5780634f1eb3d814610736578063514ea4bf146106ce5780635339c29614610698578063883bdbfd14610512578063a34123a7146103c0578063c45a01551461037b578063d0c93a7c1461033b578063d21220a7146102f6578063ddca3f43146102b6578063f305839914610299578063f30dba931461022a5763f637731d14610105575f80fd5b346102275760203660031901126102275761011e61208d565b6002546001600160a01b03166102195761013781612fb6565b9060405161014481612155565b4263ffffffff16808252602080830186905260016040938401819052600780546bffffffffffffffffffffffff19169093179187901b6affffffffffffff000000001691909117600160581b179091559051916080906101a384612170565b60a083811b84900391909116808552600286810b602087015260408601889052606086018590529290940192909252805461ffff60d81b1966ffffffffffffff60a01b199094166001600160d81b03199091161762ffffff60a01b9490921b9390931617600160c81b1716600160d81b17905580f35b62dc149f60e41b8252600482fd5b80fd5b503461022757602036600319011261022757604060a091610249612114565b60020b81526004602052208054906001810154600f0b9060036002820154910154916001600160801b036040519460ff81161515865260081c166020850152604084015260608301526080820152f35b503461022757806003193601126102275760209054604051908152f35b5034610227578060031936011261022757602060405162ffffff7f0000000000000000000000000000000000000000000000000000000000000000168152f35b50346102275780600319360112610227576040517f00000000000000000000000000000000000000000000000000000000000000006001600160a01b03168152602090f35b5034610227578060031936011261022757602060405162ffffff7f0000000000000000000000000000000000000000000000000000000000000000168152f35b50346102275780600319360112610227576040517f00000000000000000000000000000000000000000000000000000000000000006001600160a01b03168152602090f35b5034610227576060366003190112610227576103da612114565b906103e36120f4565b90604435906001600160801b03821680920361022757604061045261044c86868661044361041382600f0b612246565b938751906104208261213a565b33825260020b9384602083015260020b948589830152600f0b60608201526135bb565b96919590612283565b95612283565b938515801590610509575b6104a5575b50855190815284602082015283868201527f0c396cd989a39f4459b5fa1aed6a9a8dcdbc45908acfd67e028cd568da98982c60603392a482519182526020820152f35b6003016001600160801b0381546104f36104d36104c6848b168585166122fb565b92848a169060801c6122fb565b84546001600160801b031660809190911b6001600160801b031916178455565b166001600160801b031982541617905586610462565b5084151561045d565b503461022757602036600319011261022757600435906001600160401b03821161022757366023830112156102275781600401356001600160401b0381116106945760248160051b840101923684116106905763ffffffff421690600254918260a01c60020b9161ffff808560b81c169460c81c1696610591866122e4565b9561059f604051978861218b565b86526024602087019201915b81831061066f575050508351936105da6105c4866122e4565b956105d2604051978861218b565b8087526122e4565b602086019690601f1901368837805b825181101561062857806106128a888863ffffffff61060a6001978a613b26565b511689613e42565b61061c828a613b26565b9060060b9052016105e9565b508587604051928392602084019060208552518091526040840192915b818110610653575050500390f35b825160060b845285945060209384019390920191600101610645565b823563ffffffff8116810361068c578152602092830192016105ab565b8880fd5b8280fd5b5080fd5b5034610227576020366003190112610227576004358060010b809103610694578160409160209352600583522054604051908152f35b503461022757602036600319011261022757604060a09160043581526006602052206001600160801b03815416906001810154906003600282015491015491604051938452602084015260408301526001600160801b038116606083015260801c6080820152f35b50346102275760a03660031901126102275761075061208d565b6107586120f4565b610760612104565b90610769612124565b92608435926001600160801b0384169586850361022757600361078d838633613adc565b01968754956001600160801b03871697886001600160801b038216115f146109d8575087965b60801c8092115f146109d05750945b6001600160801b0381169687610912575b50506001600160801b038516948561083e575b50506040809650519160018060a01b03168252846020830152838683015260020b9160020b907fa89c1c8a741251492622c95237828c75d1dbb03ea956f09e3792ff2a14f4fe6260603392a482519182526020820152f35b6108718861085183859b5460801c6122c4565b81546001600160801b031660809190911b6001600160801b031916179055565b7f00000000000000000000000000000000000000000000000000000000000000006001600160a01b031690813b156106905760405163a9059cbb60e01b81526001600160a01b03861660048201526001600160801b0391909116602482015291908290604490829084905af18015610907576108ee575b806107e6565b6108f987809261218b565b61090357856108e8565b8580fd5b6040513d89823e3d90fd5b610924826001600160801b03926122c4565b89546001600160801b03191691161788557f00000000000000000000000000000000000000000000000000000000000000006001600160a01b031690813b156106905760405163a9059cbb60e01b81526001600160a01b03861660048201526001600160801b039190911660248201529082908290604490829084905af180156109c557908291156107d357816109ba9161218b565b61022757805f6107d3565b6040513d84823e3d90fd5b9050946107c2565b966107b3565b5034610227576060366003190112610227576004356024356044356001600160401b038111610df257610a159036906004016120a3565b62ffffff7f00000000000000000000000000000000000000000000000000000000000000001690610a50610a498387613a93565b9285613a93565b6040516370a0823160e01b8152306004820152909287907f00000000000000000000000000000000000000000000000000000000000000006001600160a01b031660208460248186855af1938415610de7578394610db0575b506040516370a0823160e01b8152306004820152967f00000000000000000000000000000000000000000000000000000000000000006001600160a01b03169590602089602481888b5af1988915610da5578599610d6e575b508a610d1a575b89610cc6575b333b15610cc257604051630e9cbafb60e41b815291859183918291610b3a91908c8960048601612293565b038183335af1908115610cb7578491610ca2575b50506020906024604051809581936370a0823160e01b83523060048401525af1918215610c97578992610c61575b50610b879192612221565b11610c525790602086926024604051809581936370a0823160e01b83523060048401525af1918215610c47578692610c0d575b50610bc59192612221565b11610bfe5760405191825260208201527f1c1db1f1d6a01e51fec24bb54087b65fe5430f692280e70d92f718eb72ae76b760403392a280f35b637bc35e0560e01b8352600483fd5b91506020823d602011610c3f575b81610c286020938361218b565b81010312610c3b57610bc5915191610bba565b5f80fd5b3d9150610c1b565b6040513d88823e3d90fd5b637bc35e0560e01b8652600486fd5b91506020823d602011610c8f575b81610c7c6020938361218b565b81010312610c3b57610b87915191610b7c565b3d9150610c6f565b6040513d8b823e3d90fd5b81610cac9161218b565b61069057825f610b4e565b6040513d86823e3d90fd5b8480fd5b863b15610cc25760405163a9059cbb60e01b8152336004820152602481018b90528581604481838c5af1908115610c47578691610d05575b5050610b0f565b81610d0f9161218b565b610cc257845f610cfe565b823b15610cc25760405163a9059cbb60e01b8152336004820152602481018c9052858160448183885af1908115610c47578691610d59575b5050610b09565b81610d639161218b565b610cc257845f610d52565b945097506020843d602011610d9d575b81610d8b6020938361218b565b81010312610c3b578a9351975f610b02565b3d9150610d7e565b6040513d87823e3d90fd5b925092506020823d602011610ddf575b81610dcd6020938361218b565b81010312610c3b57889151925f610aa9565b3d9150610dc0565b6040513d85823e3d90fd5b8380fd5b50346102275780600319360112610227576020600154604051908152f35b50346102275760a036600319011261022757610e2e61208d565b610e366120f4565b90610e3f612104565b91610e48612124565b6084356001600160401b03811161090357610e679036906004016120a3565b93909460020b9260020b9183831280159061104d575b8015611041575b611033576001600160801b031695861561102457610ed260405192610ea88461213a565b6001600160a01b03168084526020840185905260408401869052600f89900b6060850152926135bb565b96915096829083918915159182611014575b8915159485611004575b333b15611000578a8c610f178993604051958694859463d348799760e01b865260048601612293565b038183335af18015610c47578b92918791610fe5575b505082610fcb575b5050610fbc57869082610fa2575b5050610f9357507f7a53080ba414158be7ec69b987b5fb7d07dee101fe85488f0853ae16239d0bde608060409788519033825260208201528789820152866060820152a482519182526020820152f35b63098fb56160e01b8152600490fd5b610fac9250612221565b610fb461348a565b10855f610f43565b63098fb56160e01b8352600483fd5b610fd59250612221565b610fdd613510565b10885f610f35565b8192935090610ff39161218b565b610cc2578990855f610f2d565b8680fd5b935061100e61348a565b93610eee565b905061101e613510565b90610ee4565b630200e8a960e31b8152600490fd5b6264847d60e41b8752600487fd5b50620d89e88413610e84565b50620d89e7198312610e7d565b503461022757806003193601126102275760a060025461ffff60405191600180851b038116835280841c60020b6020840152818160b81c166040840152818160c81c16606084015260d81c166080820152f35b50346102275760203660031901126102275760043561ffff81168103610694576110e161ffff60025460d81c169182613567565b61ffff8116918083036110f2578380f35b7fac49e518f90a358f652e4400164f05a5d8f7e35e7747279bc3a93dbf584e125a926040926002549061ffff60d81b9060d81b169061ffff60d81b19161760025582519182526020820152a15f80808380f35b50346102275760203660031901126102275760043561ffff81101561069457606091506007015460ff6040519163ffffffff811683528060201c60060b602084015260581c1615156040820152f35b503461022757806003193601126102275760206001600160801b0360035416604051908152f35b5034610c3b5760a0366003190112610c3b576111d561208d565b602435151560243503610c3b5760643560808190526001600160a01b0381169003610c3b576084356001600160401b038111610c3b576112199036906004016120a3565b6112216121ac565b926001600160801b03600354166024355f1461200a5784516080516001600160a01b039182169116118015611fef575b611fe057845160208601516001600160a01b039091169060020b60243515611fd7575f54915b60405160a05260c060a0510160a05181106001600160401b03821117611b6e5760405260443560a051525f602060a0510152604060a0510152606060a0510152608060a05101528060a0805101525f5b60a05151151580611fb8575b80611fad575b15611b82576112e7906121f8565b9460405160e081018181106001600160401b03821117611b6e576040525f8152602081015f8152604082015f815260608301905f8252608084015f815260a08501905f825260c08601915f835260018060a01b03604060a0510151168452606060a051015160020b61138162ffffff7f00000000000000000000000000000000000000000000000000000000000000001660020b8261231b565b905f81129081611b2f575b50611b19575b602435156118dc576113b48160020b9060ff6101008360081d60010b93071690565b60ff811692916001841b5f19810181811161162d576113e8916113d691612221565b9160010b5f52600560205260405f2090565b5416801590811594855f146118995750805f92610c3b57600160801b81101561188a575b5068010000000000000000811015611872575b64010000000081101561185a575b62010000811015611842575b61010081101561182a575b6010811015611812575b80600460029210156117f9575b10156117d5575b6114ad9260ff61149e6114a89362ffffff7f00000000000000000000000000000000000000000000000000000000000000001660020b956123a9565b1660020b90612266565b6123bd565b905b1515875260020b8088526001600160a01b03906114cb906123fb565b16808652602435156117c2576080516001600160a01b031681105b156117bd57506080515b6001600160801b0360a08051015116156116d95760a080516040810151918101519051611553937f00000000000000000000000000000000000000000000000000000000000000009391926001600160801b0316916001600160a01b03166129ef565b86528352835260a0516001600160a01b039182166040909101819052855190911614806117b1575b6116d9575f6044351315611777576115a561159c6115b69351855190612221565b60a0515161222e565b60a0515251602060a051015161222e565b602060a05101525b6001600160801b0360a08051015116908161174f575b505060a0516040015191516001600160a01b039283169216820361171a5750505161164a575b60243515611641575160020b5f1901627fffff8113627fffff1982121761162d575b60020b606060a05101525b946112c7565b634e487b7160e01b5f52601160045260245ffd5b5160020b61161c565b6001600160801b036116cc6001835160020b6024355f1461171257608060a0510151905b602435156116f65761168d83549160020b5f52600460205260405f2090565b9161169e600284019182549061239c565b90556116b0600383019182549061239c565b90550154600f0b6024356116e8575b8260a080510151166132e8565b168060a0805101526115fa575b634323a55560e01b5f5260045ffd5b6116f190612246565b6116bf565b61168d608060a05101519160020b5f52600460205260405f2090565b5f549061166e565b519092506001600160a01b031682039050611736575b50611627565b61173f90612fb6565b60020b606060a05101525f611730565b6117699161175d9151612c8c565b608060a0510151612221565b608060a05101525f806115d4565b6117a59161178c611799925160a05151612206565b60a0515251835190612221565b602060a0510151612206565b602060a05101526115be565b5060a05151151561157b565b6114f0565b6080516001600160a01b031681116114e6565b60ff600191160160ff81111561146257634e487b7160e01b5f52601160045260245ffd5b60ff90821c92160160ff811161162d576002909161145b565b60ff600491821c92160160ff811161162d579061144e565b60ff600891821c92160160ff811161162d5790611444565b60ff601091821c92160160ff811161162d5790611439565b60ff602091821c92160160ff811161162d579061142d565b60ff604091821c92160160ff811161162d579061141f565b91505060801c6080905f61140c565b925050506114a86118d79262ffffff7f00000000000000000000000000000000000000000000000000000000000000001660020b9260020b90612266565b6114ad565b6118fe6118e882612363565b60020b9060ff6101008360081d60010b93071690565b909160ff8216926001841b5f19810190811161162d5761192b90199160010b5f52600560205260405f2090565b541691821591821594855f14611abd575061194590612363565b928092610c3b5760ff906001600160801b03811615611ab3575050607f5b6001600160401b03831615611aa95760ff603f1991160160ff811161162d575b63ffffffff831615611a9f5760ff601f1991160160ff811161162d575b61ffff831615611a955760ff600f1991160160ff811161162d575b60ff831615611a8b5760ff60071991160160ff811161162d575b600f831615611a815760ff60031991160160ff811161162d575b6003831615611a755760ff60011991160160ff811161162d57600190925b16611a5f575b611a599260ff611a4f6114a89362ffffff7f00000000000000000000000000000000000000000000000000000000000000001660020b956123a9565b1660020b9061237e565b906114af565b9060ff5f1991160160ff811161162d5790611a13565b9160019060021c611a0d565b9160041c916119ef565b9160081c916119d5565b9160101c916119bb565b9160201c916119a0565b9160401c91611983565b60801c9250611963565b93509050611acb9150612363565b9060ff0360ff811161162d576114a8611b149260ff62ffffff7f00000000000000000000000000000000000000000000000000000000000000001660020b931660020b9061237e565b611a59565b60020b627fffff19811461162d575f1901611392565b611b63915062ffffff7f00000000000000000000000000000000000000000000000000000000000000001660020b90612351565b60020b15155f61138c565b634e487b7160e01b5f52604160045260245ffd5b5060a051606001516020860151879691600291820b910b8114611f84578161ffff6040611bcb940151169161ffff608081606085015116930151169263ffffffff42169061337e565b60018060a01b03604060a05101511691606060a0510151916002546001600160601b0360a01b9161ffff60c81b9060c81b169066ffffffffffffff60a01b191617169061ffff60b81b9060b81b16179060a01b62ffffff60a01b1617176002555b6001600160801b0360a08051015116809103611f6d575b5060243515611f5e57608060a05101515f555b60243515155f6044351303611f4157611c7460a0515160443561222e565b92602060a0510151925b60243515611e2657857f00000000000000000000000000000000000000000000000000000000000000006001600160a01b0316611cba86612283565b90803b156106905760405163a9059cbb60e01b81526001600160a01b0387166004820152602481019290925282908290604490829084905af180156109c557611e11575b50611d07613510565b92333b156106945760405163fa461e3360e01b815292829184918291611d3391908a8c60048601612293565b038183335af1918215611e04578692611deb575b5050611d5291612221565b611d5a613510565b10611ddc57604093505b600254906001600160801b0360a080510151169185519285845284602085015260018060a01b03821687850152606084015260a01c60020b608083015260018060a01b0316907fc42079f94a6350d7e6235f29174924f928cc2ac818eb64fed8004e115fbcca6760a03392a382519182526020820152f35b63098fb56160e01b8452600484fd5b81925090611df89161218b565b610cc257838587611d47565b50604051903d90823e3d90fd5b81611e1b9161218b565b610903578587611cfe565b7f00000000000000000000000000000000000000000000000000000000000000006001600160a01b0316611e5986612283565b90803b15610c3b5760405163a9059cbb60e01b81526001600160a01b038616600482015260248101929092525f908290604490829084905af18015611f3657611f21575b5085611ea761348a565b92333b156106945760405163fa461e3360e01b815292829184918291611ed391908a8c60048601612293565b038183335af1918215611e04578592611f08575b5050611ef291612221565b611efa61348a565b10611ddc5760409350611d64565b81925090611f159161218b565b610cc257828587611ee7565b611f2e9196505f9061218b565b5f9486611e9d565b6040513d5f823e3d90fd5b602060a051015192611f5860a0515160443561222e565b92611c7e565b608060a0510151600155611c56565b6001600160801b0319600354161760035584611c43565b505060018060a01b03604060a0510151166001600160601b0360a01b6002541617600255611c2c565b506103e881106112d9565b5060805160a051604001516001600160a01b03908116911614156112d3565b60015491611277565b632d4eeeb360e21b5f5260045ffd5b506080516401000276a36001600160a01b0390911610611251565b84516080516001600160a01b0391821691161080611251575060805173fffd8963efd1fc6a506488495d951d5263988d266001600160a01b0390911611611251565b34610c3b575f366003190112610c3b577f00000000000000000000000000000000000000000000000000000000000000006001600160a01b03168152602090f35b600435906001600160a01b0382168203610c3b57565b9181601f84011215610c3b578235916001600160401b038311610c3b5760208381860195010111610c3b57565b61ffff8210156120e05701905f90565b634e487b7160e01b5f52603260045260245ffd5b602435908160020b8203610c3b57565b604435908160020b8203610c3b57565b600435908160020b8203610c3b57565b606435906001600160801b0382168203610c3b57565b608081019081106001600160401b03821117611b6e57604052565b606081019081106001600160401b03821117611b6e57604052565b60a081019081106001600160401b03821117611b6e57604052565b90601f801991011681019081106001600160401b03821117611b6e57604052565b604051906121b982612170565b81608061ffff60025460018060a01b03811684528060a01c60020b6020850152818160b81c166040850152818160c81c16606085015260d81c16910152565b5f19811461162d5760010190565b9190915f838201938412911290801582169115161761162d57565b9190820180921161162d57565b81810392915f13801582851316918412161761162d57565b600f0b6f7fffffffffffffffffffffffffffffff19811461162d575f0390565b600291820b910b0390627fffff198212627fffff83131761162d57565b600160ff1b811461162d575f0390565b6060908593602096938252868201528160408201520192818452848401375f828201840152601f01601f1916010190565b906001600160801b03809116911603906001600160801b03821161162d57565b6001600160401b038111611b6e5760051b60200190565b906001600160801b03809116911601906001600160801b03821161162d57565b60020b9060020b90811561233d57627fffff1981145f1983141661162d570590565b634e487b7160e01b5f52601260045260245ffd5b9060020b90811561233d5760020b0790565b60020b60010190627fffff8213627fffff1983121761162d57565b9060020b9060020b0190627fffff198212627fffff83131761162d57565b9190820391821161162d57565b9060ff8091169116039060ff821161162d57565b9060020b9060020b02908160020b91820361162d57565b8181029291811591840414171561162d57565b811561233d570490565b811561233d570690565b60020b5f8112156129d25761240f81612283565b905b620d89e882116129a9576001821615612997576001600160881b036ffffcb933bd6fad37aa2d162d1a5940015b16916002811661295c575b60048116612921575b600881166128e6575b601081166128ab575b60208116612870575b60408116612835575b608081166127fa575b61010081166127bf575b6102008116612784575b6104008116612749575b610800811661270e575b61100081166126d3575b6120008116612698575b614000811661265d575b6180008116612622575b6201000081166125e7575b6202000081166125ae575b620400008116612577575b6208000016612544575b5f12612536575b63ffffffff811661252b576125275f915b6001600160a01b039260ff169060201c612221565b1690565b612527600191612512565b801561233d575f1904612501565b906b048a170391f7dc42444e8fa28102908082046b048a170391f7dc42444e8fa2149015171561162d5760801c906124fa565b916d2216e584f5fa1ea926041bedfe988102908082046d2216e584f5fa1ea926041bedfe98149015171561162d5760801c916124f0565b916e5d6af8dedb81196699c329225ee6048102908082046e5d6af8dedb81196699c329225ee604149015171561162d5760801c916124e5565b916f09aa508b5b7a84e1c677de54f3e99bc98102908082046f09aa508b5b7a84e1c677de54f3e99bc9149015171561162d5760801c916124da565b916f31be135f97d08fd981231505542fcfa68102908082046f31be135f97d08fd981231505542fcfa6149015171561162d5760801c916124cf565b916f70d869a156d2a1b890bb3df62baf32f78102908082046f70d869a156d2a1b890bb3df62baf32f7149015171561162d5760801c916124c5565b916fa9f746462d870fdf8a65dc1f90e061e58102908082046fa9f746462d870fdf8a65dc1f90e061e5149015171561162d5760801c916124bb565b916fd097f3bdfd2022b8845ad8f792aa58258102908082046fd097f3bdfd2022b8845ad8f792aa5825149015171561162d5760801c916124b1565b916fe7159475a2c29b7443b29c7fa6e889d98102908082046fe7159475a2c29b7443b29c7fa6e889d9149015171561162d5760801c916124a7565b916ff3392b0822b70005940c7a398e4b70f38102908082046ff3392b0822b70005940c7a398e4b70f3149015171561162d5760801c9161249d565b916ff987a7253ac413176f2b074cf7815e548102908082046ff987a7253ac413176f2b074cf7815e54149015171561162d5760801c91612493565b916ffcbe86c7900a88aedcffc83b479aa3a48102908082046ffcbe86c7900a88aedcffc83b479aa3a4149015171561162d5760801c91612489565b916ffe5dee046a99a2a811c461f1969c30538102908082046ffe5dee046a99a2a811c461f1969c3053149015171561162d5760801c9161247f565b916fff2ea16466c96a3843ec78b326b528618102908082046fff2ea16466c96a3843ec78b326b52861149015171561162d5760801c91612476565b916fff973b41fa98c081472e6896dfb254c08102908082046fff973b41fa98c081472e6896dfb254c0149015171561162d5760801c9161246d565b916fffcb9843d60f6159c9db58835c9266448102908082046fffcb9843d60f6159c9db58835c926644149015171561162d5760801c91612464565b916fffe5caca7e10e4e61c3624eaa0941cd08102908082046fffe5caca7e10e4e61c3624eaa0941cd0149015171561162d5760801c9161245b565b916ffff2e50f5f656932ef12357cf3c7fdcc8102908082046ffff2e50f5f656932ef12357cf3c7fdcc149015171561162d5760801c91612452565b916ffff97272373d413259a46990580e213a8102908082046ffff97272373d413259a46990580e213a149015171561162d5760801c91612449565b6001600160881b03600160801b61243e565b60405162461bcd60e51b81526020600482015260016024820152601560fa1b6044820152606490fd5b80612411565b62ffffff16620f4240039062ffffff821161162d57565b92949193945f811215612b4757612a0590612283565b6001600160a01b038281169085168181108015979296929390612b3657612a2d848487613ba5565b915b828210612afa5750508380965b6001600160a01b038216149715612ab857508615612aa7575b9515612a9757612a6492613be4565b935b8415612a8f578062ffffff80612a7e612a87946129d8565b16911686613ac0565b915b93929190565b505f91612a89565b612aa2925084613be4565b612a64565b50612ab3828287613ba5565b612a55565b919391908715612ae9575b9615612ad95750612ad392613b3a565b93612a66565b9050612ae492613b3a565b612ad3565b50612af5838286613c47565b612ac3565b15610c3b576001600160801b03841615610c3b578715612b2657612b1f908484614234565b8096612a3c565b612b31908484614361565b612b1f565b612b41848685613c47565b91612a2f565b612b629062ffffff612b5b889796986129d8565b1690612d35565b6001600160a01b038083169087168181108015989296939493929190612c7b57612b8d838386613be4565b905b818610612c3b5750612a8794508380975b6001600160a01b038216149915612bf957508815612be8575b9715612bd857612bc892613ba5565b935b62ffffff80612a7e836129d8565b612be3925085613ba5565b612bc8565b50612bf4828288613be4565b612bb9565b919391908915612c2a575b9815612c1a5750612c1492613c47565b93612bca565b9050612c2592613c47565b612c14565b50612c36838286613b3a565b612c04565b15610c3b576001600160801b03831615610c3b57612a87948915612c6b57612c649084846142de565b8097612ba0565b612c769084846141cb565b612c64565b612c86838584613b3a565b90612b8f565b5f19600160801b8209918160801b91828085109403938085039414612d265781841015612d0f578190600160801b9009600182190182168092046002816003021880820260020302808202600203028082026002030280820260020302808202600203028091026002030293600183805f03040190848311900302920304170290565b5082631dcf306360e21b5f5260045260245260445ffd5b5090612d3292506123e7565b90565b5f915f198183099181810293848085109403938085039414612db557620f4240841015612d9a57507fde8f6cefed634549b62c77574f722e1ac57e23f24d8fd5cb790fb65668c26139939291620f4240910990828211900360fa1b910360061c170290565b631dcf306360e21b81526004849052620f4240602452604490fd5b50505050620f4240900490565b5f91905f198282099180820293848085109403938085039414612e2157600160801b841015612e055750600160801b910990828211900360801b910360801c1790565b631dcf306360e21b81526004849052600160801b602452604490fd5b5050505060801c90565b5f91905f198282099180820293848085109403938085039414612e8a57600160601b841015612e6e5750600160601b910990828211900360a01b910360601c1790565b631dcf306360e21b81526004849052600160601b602452604490fd5b5050505060601c90565b5f19600160601b8209918160601b91828085109403938085039414612d265781841015612d0f578190600160601b9009600182190182168092046002816003021880820260020302808202600203028082026002030280820260020302808202600203028091026002030293600183805f03040190848311900302920304170290565b90915f198383099280830292838086109503948086039514612fa95782851015612f925790829109600182190182168092046002816003021880820260020302808202600203028082026002030280820260020302808202600203028091026002030293600183805f03040190848311900302920304170290565b8285631dcf306360e21b5f5260045260245260445ffd5b505090612d3292506123e7565b6001600160a01b038116906401000276a3821015806132cb575b156132a257640100000000600160c01b039060201b16806001600160801b03811160071b90811c6001600160401b03811160061b90811c63ffffffff811160051b90811c61ffff811160041b90811c9060ff821160031b91821c92600f841160021b93841c94600160038711811b96871c1196171717171717179060808210155f1461329057607e19820182811161162d571c5b607f19820191821360011661162d57800280607f1c8160ff1c1c800280607f1c8160ff1c1c800280607f1c8160ff1c1c800280607f1c8160ff1c1c800280607f1c8160ff1c1c800280607f1c8160ff1c1c80029081607f1c8260ff1c1c80029283607f1c8460ff1c1c80029485607f1c8660ff1c1c80029687607f1c8860ff1c1c80029889607f1c8a60ff1c1c80029a8b607f1c8c60ff1c1c80029c8d80607f1c9060ff1c1c800260cd1c6604000000000000169d60cc1c6608000000000000169c60cb1c6610000000000000169b60ca1c6620000000000000169a60c91c6640000000000000169960c81c6680000000000000169860c71c670100000000000000169760c61c670200000000000000169660c51c670400000000000000169560c41c670800000000000000169460c31c671000000000000000169360c21c672000000000000000169260c11c674000000000000000169160c01c678000000000000000169060401b1717171717171717171717171717693627a301d71055774c85810290808205693627a301d71055774c85149015171561162d576f028f6481ab7f045a5af012a19d003aa919810160018282131661162d5760801d60020b906fdb2df09e81959a81455e260799a0632f8101905f6fdb2df09e81959a81455e260799a0632f8312911290801582169115161761162d5760801d60020b918183036132705750905090565b6001600160a01b03613281846123fb565b161161328b575090565b905090565b81607f03607f811161162d571b613064565b60405162461bcd60e51b81526020600482015260016024820152602960f91b6044820152606490fd5b5073fffd8963efd1fc6a506488495d951d5263988d268210612fd0565b5f82600f0b125f1461330f57613300612d3292612246565b6001600160801b0316906122c4565b612d32916001600160801b0316906122fb565b9060405161332f81612155565b604060ff82945463ffffffff811684528060201c60060b602085015260581c161515910152565b61ffff60019116019061ffff821161162d57565b9061ffff1690811561233d5761ffff160690565b94929461ffff8110156120e05761339781600701613322565b9563ffffffff87511663ffffffff8416146134815761ffff81168061ffff8816119081613456575b50916133de966133e3926133e99695945f1461344c5750968791613356565b61336a565b95613d1c565b61ffff8410156120e0576007840190805182546020808401516040909401516bffffffffffffffffffffffff1990921663ffffffff93909316929092179290911b6affffffffffffff00000000169190911790151560581b60ff60581b16179055565b9050968791613356565b90505f949392919419019061ffff821161162d5792939192919061ffff8381169116146133de6133bf565b90955093505050565b6040516370a0823160e01b81523060048201526020816024815f7f00000000000000000000000000000000000000000000000000000000000000006001600160a01b03165af1908115611f36575f916134e1575090565b90506020813d602011613508575b816134fc6020938361218b565b81010312610c3b575190565b3d91506134ef565b6040516370a0823160e01b81523060048201526020816024815f7f00000000000000000000000000000000000000000000000000000000000000006001600160a01b03165af1908115611f36575f916134e1575090565b61ffff82169061ffff81168211156135b5576007905b8261ffff82161061358e5750505090565b61ffff8110156120e05760018161ffff9284018263ffffffff19825416179055011661357d565b91505090565b5f915f6135c66121ac565b935f546001549560018060a01b038651169260208701966135f6885160020b956040830196875160020b91613adc565b98896137c18a5160020b9660208701946060865160020b91019861368860018b51600f0b92805f52600460205260405f20908154906001600160801b038260081c169161364387846132e8565b921597886001600160801b03851615141598613a6a575b505050610100600160881b0382549160081b1690610100600160881b03191617815501918254600f0b612206565b6001600160801b0319825416906001600160801b0316179055895160020b90865160020b9161372560018c51600f0b92805f52600460205260405f20908154906001600160801b038260081c16916136e087846132e8565b921598896001600160801b03851615141599613a41575b505050610100600160881b0382549160081b1690610100600160881b03191617815501918254600f0b61222e565b6001600160801b0319825416906001600160801b0316179055613a05575b6139c9575b6137b68c5160020b6137bb8b5160020b916137b6895160020b936137778360020b5f52600460205260405f2090565b9061378d8160020b5f52600460205260405f2090565b9386126139a75760036002830154920154955b121561398557600360028401549301549661239c565b61239c565b9561239c565b8651600f0b60018301936137d685548261239c565b946001600160801b036137ed818754168098612dc2565b16946001600160801b0361381b6002830195826138148b61380f8a548c61239c565b612dc2565b16996132e8565b166001600160801b031982541617905555558a811580159061397c575b61393a575b5050505160020b875160020b908181125f14613884575050505061387661386c6138819495965160020b6123fb565b925160020b6123fb565b9051600f0b91613e02565b91565b9091929480949796505160020b135f14613918575050906138d16138c76138ea936138bc60018060a01b03855116915160020b6123fb565b8751600f0b91613e02565b955160020b6123fb565b90518451600f0b916001600160a01b0390911690613dbd565b916001600160801b036139066003549251600f0b8284166132e8565b16906001600160801b03191617600355565b61392f919650612d32949592935061386c906123fb565b9051600f0b91613dbd565b613974926001600160801b0361395a6003610851940194828654166122fb565b84546001600160801b03191691161780845560801c6122fb565b5f808a61383d565b50821515613838565b6139a1600361399860028601548a61239c565b9401548b61239c565b9661239c565b6139c360036139ba60028501548b61239c565b9301548c61239c565b956137a0565b613a00895160020b62ffffff7f00000000000000000000000000000000000000000000000000000000000000001660020b90613d82565b613748565b613a3c8d5160020b62ffffff7f00000000000000000000000000000000000000000000000000000000000000001660020b90613d82565b613743565b85921315613a59575b60ff19161782555f80806136f7565b8960028501558c6003850155613a4a565b85921315613a82575b60ff19161782555f808061365a565b8860028501558b6003850155613a73565b9190620f424090613aa5828286612f17565b9309613aad57565b905f19811015610c3b57612d32906121f8565b929190613ace828286612f17565b93821561233d5709613aad57565b916040519160208301936001600160601b03199060601b16845260e81b603483015260e81b6037820152601a8152613b15603a8261218b565b5190205f52600660205260405f2090565b80518210156120e05760209160051b010190565b6001600160801b0391613b6d916001600160a01b0380831690821611613b9f575b6001600160a01b03908116911661239c565b9116613b7e600160601b8383612f17565b91600160601b9109613b8d5790565b5f19811015610c3b57612d32906121f8565b90613b5b565b612d3292916001600160801b0391613bdd91906001600160a01b0380831690821611613b9f576001600160a01b03908116911661239c565b9116612e2b565b6001600160a01b0382811690821611613c41575b6001600160a01b0316918215610c3b57613c35916001600160a01b031690613c20848361239c565b9060601b600160601b600160e01b0316613ac0565b90808206151591040190565b90613bf8565b6001600160a01b0382811690821611613ca1575b6001600160a01b0316908115610c3b57612d3292613c9c916001600160a01b031690613c87848361239c565b9060601b600160601b600160e01b0316612f17565b6123e7565b90613c5b565b60405190613cb482612155565b5f6040838281528260208201520152565b9063ffffffff8091169116039063ffffffff821161162d57565b9060060b9060060b02908160060b91820361162d57565b9060060b9060060b0190667fffffffffffff198212667fffffffffffff83131761162d57565b613d55613d5b9293613d2c613ca7565b50602063ffffffff613d418186511688613cc5565b1693015160060b9260060b9060020b613cdf565b90613cf6565b63ffffffff60405192613d6d84612155565b16825260060b60208201526001604082015290565b613d8c8282612351565b60020b610c3b57613da0916118e89161231b565b9060010b5f526005602052600160ff60405f2092161b8154189055565b905f83600f0b125f14613def5790613dea91613ddb612d3294612246565b6001600160801b031691613ba5565b612283565b612d32926001600160801b031691613b3a565b905f83600f0b125f14613e2f5790613dea91613e20612d3294612246565b6001600160801b031691613c47565b612d32926001600160801b031691613be4565b9290939163ffffffff851615613f3357613e608495613e6995613cc5565b80956007613f7f565b63ffffffff82511663ffffffff84168181145f14613e905750505060209150015160060b90565b63ffffffff83949351168091145f14613eb25750505060209150015160060b90565b63ffffffff613ed581613ec9602097958895613cc5565b16968286511690613cc5565b1692015160060b928391015160060b0392667fffffffffffff8413667fffffffffffff1985121761162d5760060b9260060b831561233d57667fffffffffffff1981145f1985141661162d57612d3293613d559260060b9105613cdf565b9150925061ffff8310156120e057613f4f602093600701613322565b9163ffffffff83511663ffffffff821603613f6f575b5050015160060b90565b613f7892613d1c565b5f80613f65565b959192939093613f8d613ca7565b50613f96613ca7565b90613faa613fa4848a6120d0565b50613322565b90613fbd8663ffffffff84511689614436565b61415557505050613fdd613fa4613fd7876133de85613356565b886120d0565b60408101511561413f575b63ffffffff90511663ffffffff8416106141145761ffff61401f866133de8394614010613ca7565b50614019613ca7565b50613356565b1694169361402d8582612221565b5f1981019190821161162d575b6140448282612221565b60011c9161405e613fa461405889866123f1565b8a6120d0565b6040810151156140fd57600184019081851161162d5761408a613fa46140848b856123f1565b8c6120d0565b61409c8863ffffffff8451168b614436565b9182806140e5575b6140d65750506140c95750505f19820191821161162d5761404491905b90915061403a565b90915061404492506140c1565b9a509850949650505050505050565b506140f863ffffffff8351168a8c614436565b6140a4565b5090506001820180921161162d57614044916140c1565b60405162461bcd60e51b815260206004820152600360248201526213d31160ea1b6044820152606490fd5b5063ffffffff61414e87613322565b9050613fe8565b94939650945095505063ffffffff83511663ffffffff8216145f1461417a5750509190565b82612d32939550613d1c565b1561418d57565b60405162461bcd60e51b81526020600482015260166024820152754d6174683a20616d6f756e7420746f6f206c6172676560501b6044820152606490fd5b91909181156135b5576001600160a01b038211614214576001600160a01b039261252792614205916001600160801b03169060601b6123e7565b906001600160a01b0316612221565b6001600160a01b039261252792614205916001600160801b031690612e94565b919081156142d9576001600160a01b038211614288576001600160801b036125279260601b91168082061515910401915b6001600160a01b03169161427a818411614186565b6001600160a01b039261239c565b6001600160801b03166142a081600160601b84612f17565b91811561233d57600160601b90096142bd575b6125279091614265565b5f19811015610c3b576142d2612527916121f8565b90506142b3565b505090565b919081156142d95760601b600160601b600160e01b0316916001600160a01b031661430981836123d4565b8161431484836123e7565b1461434157509061432861432d92846123e7565b612221565b80820491061515016001600160a01b031690565b6001600160a01b03936125279350919061435b9083612221565b91613ac0565b91905f9082156144125760601b600160601b600160e01b0316926001600160a01b03169061438f82846123d4565b8261439a85836123e7565b146143e55750156143b3579061432861432d92846123e7565b916143df6143c56125279394836123e7565b936143d1818611614186565b6001600160a01b039461239c565b906123e7565b9391905061252792506143f9848311614186565b6001600160a01b039361440c908361239c565b91612f17565b50505090565b64ffffffffff6401000000009116019064ffffffffff821161162d57565b63ffffffff9182169291168083118015806144a4575b614497579063ffffffff64ffffffffff939484935f1461448857945b169081111561447a575b169116111590565b61448390614418565b614472565b61449190614418565b94614468565b505063ffffffff16101590565b508163ffffffff8416111561444c56fea2646970667358221220655f36274a968c59940fbbfd429935767aedcf2570514c82851d984c021511f164736f6c634300081c0033a264697066735822122074cbfec05daea2a4e9ac86cdadd2025e134a2504e3fd58dbba3f6386d1f7d5f164736f6c634300081c0033","linkReferences":{}},"methodIdentifiers":{"factory()":"c45a0155","quoteExactInput(bytes,uint256)":"cdca1753","quoteExactInputSingle((address,address,uint24,uint256,uint160))":"b3b11b7e","quoteExactOutput(bytes,uint256)":"2f80bb1d","quoteExactOutputSingle((address,address,uint24,uint256,uint160))":"d1d857ca","uniswapV3SwapCallback(int256,int256,bytes)":"fa461e33"},"id":18}