{"abi":[{"type":"constructor","inputs":[{"name":"factory_","type":"address","internalType":"address"}],"stateMutability":"nonpayable"},{"type":"function","name":"factory","inputs":[],"outputs":[{"name":"","type":"address","internalType":"address"}],"stateMutability":"view"},{"type":"function","name":"getPoolAddress","inputs":[{"name":"token0","type":"address","internalType":"address"},{"name":"token1","type":"address","internalType":"address"},{"name":"fee","type":"uint24","internalType":"uint24"}],"outputs":[{"name":"poolAddress","type":"address","internalType":"address"}],"stateMutability":"view"},{"type":"function","name":"getPosition","inputs":[{"name":"params","type":"tuple","internalType":"struct IUniswapV3Manager.GetPositionParams","components":[{"name":"tokenA","type":"address","internalType":"address"},{"name":"tokenB","type":"address","internalType":"address"},{"name":"fee","type":"uint24","internalType":"uint24"},{"name":"owner","type":"address","internalType":"address"},{"name":"lowerTick","type":"int24","internalType":"int24"},{"name":"upperTick","type":"int24","internalType":"int24"}]}],"outputs":[{"name":"liquidity","type":"uint128","internalType":"uint128"},{"name":"feeGrowthInside0LastX128","type":"uint256","internalType":"uint256"},{"name":"feeGrowthInside1LastX128","type":"uint256","internalType":"uint256"},{"name":"tokensOwed0","type":"uint128","internalType":"uint128"},{"name":"tokensOwed1","type":"uint128","internalType":"uint128"}],"stateMutability":"view"},{"type":"function","name":"mint","inputs":[{"name":"params","type":"tuple","internalType":"struct IUniswapV3Manager.MintParams","components":[{"name":"tokenA","type":"address","internalType":"address"},{"name":"tokenB","type":"address","internalType":"address"},{"name":"fee","type":"uint24","internalType":"uint24"},{"name":"lowerTick","type":"int24","internalType":"int24"},{"name":"upperTick","type":"int24","internalType":"int24"},{"name":"amount0Desired","type":"uint256","internalType":"uint256"},{"name":"amount1Desired","type":"uint256","internalType":"uint256"},{"name":"amount0Min","type":"uint256","internalType":"uint256"},{"name":"amount1Min","type":"uint256","internalType":"uint256"}]}],"outputs":[{"name":"amount0","type":"uint256","internalType":"uint256"},{"name":"amount1","type":"uint256","internalType":"uint256"}],"stateMutability":"nonpayable"},{"type":"function","name":"swapExactInput","inputs":[{"name":"params","type":"tuple","internalType":"struct IUniswapV3Manager.SwapExactInputParams","components":[{"name":"path","type":"bytes","internalType":"bytes"},{"name":"recipient","type":"address","internalType":"address"},{"name":"amountIn","type":"uint256","internalType":"uint256"},{"name":"minAmountOut","type":"uint256","internalType":"uint256"}]}],"outputs":[{"name":"amountOut","type":"uint256","internalType":"uint256"}],"stateMutability":"nonpayable"},{"type":"function","name":"swapExactInputSingle","inputs":[{"name":"params","type":"tuple","internalType":"struct IUniswapV3Manager.SwapExactInputSingleParams","components":[{"name":"tokenIn","type":"address","internalType":"address"},{"name":"tokenOut","type":"address","internalType":"address"},{"name":"fee","type":"uint24","internalType":"uint24"},{"name":"amountIn","type":"uint256","internalType":"uint256"},{"name":"sqrtPriceLimitX96","type":"uint160","internalType":"uint160"}]}],"outputs":[{"name":"amountOut","type":"uint256","internalType":"uint256"}],"stateMutability":"nonpayable"},{"type":"function","name":"swapExactOutput","inputs":[{"name":"params","type":"tuple","internalType":"struct IUniswapV3Manager.SwapExactOutputParams","components":[{"name":"path","type":"bytes","internalType":"bytes"},{"name":"recipient","type":"address","internalType":"address"},{"name":"amountOut","type":"uint256","internalType":"uint256"},{"name":"maxAmountIn","type":"uint256","internalType":"uint256"}]}],"outputs":[{"name":"amountIn","type":"uint256","internalType":"uint256"}],"stateMutability":"nonpayable"},{"type":"function","name":"swapExactOutputSingle","inputs":[{"name":"params","type":"tuple","internalType":"struct IUniswapV3Manager.SwapExactOutputSingleParams","components":[{"name":"tokenIn","type":"address","internalType":"address"},{"name":"tokenOut","type":"address","internalType":"address"},{"name":"fee","type":"uint24","internalType":"uint24"},{"name":"amountOut","type":"uint256","internalType":"uint256"},{"name":"amountInMaximum","type":"uint256","internalType":"uint256"},{"name":"sqrtPriceLimitX96","type":"uint160","internalType":"uint160"}]}],"outputs":[{"name":"amountIn","type":"uint256","internalType":"uint256"}],"stateMutability":"nonpayable"},{"type":"function","name":"uniswapV3MintCallback","inputs":[{"name":"amount0","type":"uint256","internalType":"uint256"},{"name":"amount1","type":"uint256","internalType":"uint256"},{"name":"data","type":"bytes","internalType":"bytes"}],"outputs":[],"stateMutability":"nonpayable"},{"type":"function","name":"uniswapV3SwapCallback","inputs":[{"name":"amount0Delta","type":"int256","internalType":"int256"},{"name":"amount1Delta","type":"int256","internalType":"int256"},{"name":"data_","type":"bytes","internalType":"bytes"}],"outputs":[],"stateMutability":"nonpayable"},{"type":"error","name":"PRBMath__MulDivOverflow","inputs":[{"name":"prod1","type":"uint256","internalType":"uint256"},{"name":"denominator","type":"uint256","internalType":"uint256"}]},{"type":"error","name":"SlippageCheckFailed","inputs":[{"name":"amount0","type":"uint256","internalType":"uint256"},{"name":"amount1","type":"uint256","internalType":"uint256"}]},{"type":"error","name":"TooLittleReceived","inputs":[{"name":"amountOut","type":"uint256","internalType":"uint256"}]},{"type":"error","name":"TooMuchRequested","inputs":[{"name":"amountIn","type":"uint256","internalType":"uint256"},{"name":"maxAmountIn","type":"uint256","internalType":"uint256"}]}],"bytecode":{"object":"0x60a0604052348015600e575f5ffd5b50604051616c26380380616c26833981016040819052602b91603b565b6001600160a01b03166080526066565b5f60208284031215604a575f5ffd5b81516001600160a01b0381168114605f575f5ffd5b9392505050565b608051616ba16100855f395f818161019f01526103d20152616ba15ff3fe608060405234801561000f575f5ffd5b506004361061009b575f3560e01c8063aa88a96c11610063578063aa88a96c1461015f578063abf793d914610187578063c45a01551461019a578063d3487997146101c1578063fa461e33146101d6575f5ffd5b806310380a8a1461009f57806368d66884146100c5578063696d6283146100d85780636e49decb1461010357806397a90f6114610116575b5f5ffd5b6100b26100ad366004611b0e565b6101e9565b6040519081526020015b60405180910390f35b6100b26100d3366004611c69565b61028f565b6100eb6100e6366004611cb2565b6103a4565b6040516001600160a01b0390911681526020016100bc565b6100b2610111366004611d0c565b6103f9565b610129610124366004611d0c565b6104c4565b604080516001600160801b039687168152602081019590955284019290925283166060830152909116608082015260a0016100bc565b61017261016d366004611d26565b6105ed565b604080519283526020830191909152016100bc565b6100b2610195366004611c69565b6108d4565b6100eb7f000000000000000000000000000000000000000000000000000000000000000081565b6101d46101cf366004611d7d565b610991565b005b6101d46101e4366004611d7d565b610a70565b5f806101f86020840184611dcc565b6102086060850160408601611de7565b6102186040860160208701611dcc565b60405160200161022a93929190611e00565b60408051601f1981840301815291905290505f61026e60608501353361025660a0880160808901611dcc565b60408051808201909152868152336020820152610e25565b90505f81136102855761028081611e4a565b610287565b805b949350505050565b805160408201515f919082906102a490611e4a565b6020850151909150335b5f6102b885610f55565b60011490505f5f5f6102c988610f80565b9250925092505f8382846040516020016102e593929190611e00565b60405160208183030381529060405290505f61032089895f60405180604001604052808781526020018c6001600160a01b0316815250610ff6565b905080861561037657809b508c606001518c111561036a5760608d01516040516379cb628f60e01b8152610361918e91600401918252602082015260400190565b60405180910390fd5b5050505050505061039b565b61037f81611e4a565b995030985061038d8b611138565b9a50505050505050506102ae565b50505050919050565b5f826001600160a01b0316846001600160a01b0316106103c55782846103c8565b83835b90945092506102877f000000000000000000000000000000000000000000000000000000000000000085858561115e565b5f806104086020840184611dcc565b6104186060850160408601611de7565b6104286040860160208701611dcc565b60405160200161043a93929190611e00565b60405160208183030381529060405290505f610486846060013561045d90611e4a565b3361046e60c0880160a08901611dcc565b60408051808201909152868152336020820152610ff6565b905080925083608001358311156104bd576040516379cb628f60e01b81526004810184905260808501356024820152604401610361565b5050919050565b5f80808080806104fa6104da6020890189611dcc565b6104ea60408a0160208b01611dcc565b6100e660608b0160408c01611de7565b90506001600160a01b03811663514ea4bf61051b60808a0160608b01611dcc565b61052b60a08b0160808c01611e72565b61053b60c08c0160a08d01611e72565b60405160609390931b6001600160601b031916602084015260e891821b6034840152901b6037820152603a01604051602081830303815290604052805190602001206040518263ffffffff1660e01b815260040161059b91815260200190565b60a060405180830381865afa1580156105b6573d5f5f3e3d5ffd5b505050506040513d601f19601f820116820180604052508101906105da9190611ea3565b939b929a50909850965090945092505050565b5f80806106206106006020860186611dcc565b6106106040870160208801611dcc565b6100e66060880160408901611de7565b90505f816001600160a01b0316633850c7bd6040518163ffffffff1660e01b815260040160a060405180830381865afa15801561065f573d5f5f3e3d5ffd5b505050506040513d601f19601f820116820180604052508101906106839190611f08565b5050505090505f6106a58660600160208101906106a09190611e72565b611258565b90505f6106bb6106a060a0890160808a01611e72565b90505f6106d38484848b60a001358c60c0013561166b565b90506001600160a01b038516633c8a7d8d336106f560808c0160608d01611e72565b61070560a08d0160808e01611e72565b8560405180606001604052808c6001600160a01b0316630dfe16816040518163ffffffff1660e01b8152600401602060405180830381865afa15801561074d573d5f5f3e3d5ffd5b505050506040513d601f19601f820116820180604052508101906107719190611f62565b6001600160a01b031681526020018c6001600160a01b031663d21220a76040518163ffffffff1660e01b8152600401602060405180830381865afa1580156107bb573d5f5f3e3d5ffd5b505050506040513d601f19601f820116820180604052508101906107df9190611f62565b6001600160a01b0390811682523360209283015260408051845183168185015292840151821683820152929092015190911660608201526080016040516020818303038152906040526040518663ffffffff1660e01b8152600401610848959493929190611fab565b60408051808303815f875af1158015610863573d5f5f3e3d5ffd5b505050506040513d601f19601f820116820180604052508101906108879190611ff7565b909750955060e08801358710806108a2575087610100013586105b156108ca57604051630a8f6c8d60e41b81526004810188905260248101879052604401610361565b5050505050915091565b60408101515f903382805b85516108ea9061172b565b915061093084836108ff578760200151610901565b305b5f60405180604001604052806109198c5f0151611764565b8152602001886001600160a01b0316815250610e25565b90505f81136109475761094281611e4a565b610949565b805b9350811561096657855130935061095f90611781565b86526108df565b839450856060015185101561039b576040516308e0955f60e31b815260048101869052602401610361565b5f61099e82840184612019565b805160408083015190516323b872dd60e01b81529293506001600160a01b03909116916323b872dd916109d79133908a9060040161208b565b5f604051808303815f87803b1580156109ee575f5ffd5b505af1158015610a00573d5f5f3e3d5ffd5b5050505080602001516001600160a01b03166323b872dd826040015133876040518463ffffffff1660e01b8152600401610a3c9392919061208b565b5f604051808303815f87803b158015610a53575f5ffd5b505af1158015610a65573d5f5f3e3d5ffd5b505050505050505050565b5f610a7d828401846120af565b90505f3390505f816001600160a01b0316630dfe16816040518163ffffffff1660e01b8152600401602060405180830381865afa158015610ac0573d5f5f3e3d5ffd5b505050506040513d601f19601f82011682018060405250810190610ae49190611f62565b90505f826001600160a01b031663d21220a76040518163ffffffff1660e01b8152600401602060405180830381865afa158015610b23573d5f5f3e3d5ffd5b505050506040513d601f19601f82011682018060405250810190610b479190611f62565b90505f881315610cf05783518890610b5e9061172b565b15610c0a575f610b70865f0151611138565b9050610ba7610b7e83611e4a565b305f60405180604001604052808681526020018b602001516001600160a01b0316815250610ff6565b5060405163a9059cbb60e01b8152336004820152602481018390526001600160a01b0385169063a9059cbb906044015b5f604051808303815f87803b158015610bee575f5ffd5b505af1158015610c00573d5f5f3e3d5ffd5b5050505050610cea565b306001600160a01b031685602001516001600160a01b031603610c885760405163a9059cbb60e01b8152336004820152602481018290526001600160a01b0384169063a9059cbb906044015b5f604051808303815f87803b158015610c6d575f5ffd5b505af1158015610c7f573d5f5f3e3d5ffd5b50505050610cea565b60208501516040516323b872dd60e01b81526001600160a01b038516916323b872dd91610cbc91903390869060040161208b565b5f604051808303815f87803b158015610cd3575f5ffd5b505af1158015610ce5573d5f5f3e3d5ffd5b505050505b50610e1b565b5f871315610ddd5783518790610d059061172b565b15610d59575f610d17865f0151611138565b9050610d25610b7e83611e4a565b5060405163a9059cbb60e01b8152336004820152602481018390526001600160a01b0384169063a9059cbb90604401610bd7565b306001600160a01b031685602001516001600160a01b031603610da95760405163a9059cbb60e01b8152336004820152602481018290526001600160a01b0383169063a9059cbb90604401610c56565b60208501516040516323b872dd60e01b81526001600160a01b038416916323b872dd91610cbc91903390869060040161208b565b60405162461bcd60e51b8152602060048201526013602482015272139bc81c185e5b595b9d081c995c5d5a5c9959606a1b6044820152606401610361565b5050505050505050565b5f5f5f5f610e35855f015161179e565b919450925090506001600160a01b0380831681851610905f90881615610e5b5787610e94565b81610e8457610e7f600173fffd8963efd1fc6a506488495d951d5263988d26612150565b610e94565b610e946401000276a3600161216f565b90505f5f610ea38787876103a4565b6001600160a01b031663128acb088c868f878e604051602001610ec6919061218e565b6040516020818303038152906040526040518663ffffffff1660e01b8152600401610ef59594939291906121ca565b60408051808303815f875af1158015610f10573d5f5f3e3d5ffd5b505050506040513d601f19601f82011682018060405250810190610f349190611ff7565b9150915083610f435781610f45565b805b9c9b505050505050505050505050565b5f610f6260036014612204565b60148351610f709190612217565b610f7a919061223e565b92915050565b5f8080806014610f91600382612204565b610f9b9190612204565b8551610fa79190612217565b9050610fb385826117d9565b9350610fca610fc3601483612204565b869061183d565b9150610fec610fdb60036014612204565b610fe59083612204565b86906117d9565b9250509193909250565b5f5f5f5f611006855f015161179e565b919450925090506001600160a01b0380831681851610905f9088161561102c5787611065565b8161105557611050600173fffd8963efd1fc6a506488495d951d5263988d26612150565b611065565b6110656401000276a3600161216f565b90505f5f6110748787876103a4565b6001600160a01b031663128acb088c868f878e604051602001611097919061218e565b6040516020818303038152906040526040518663ffffffff1660e01b81526004016110c69594939291906121ca565b60408051808303815f875af11580156110e1573d5f5f3e3d5ffd5b505050506040513d601f19601f820116820180604052508101906111059190611ff7565b91509150836111145780611116565b815b97505f88121561112957610f4588611e4a565b50505050505050949350505050565b6060610f7a5f61114a60036014612204565b84516111569190612217565b849190611899565b5f826001600160a01b0316846001600160a01b03161061117c575f5ffd5b6040516001600160601b0319606086811b8216602084015285901b1660348201526001600160e81b031960e884901b1660488201528590604b0160405160208183030381529060405280519060200120604051806020016111dc90611b01565b6020820181038252601f19601f8201166040525080519060200120604051602001611237939291906001600160f81b0319815260609390931b6001600160601b03191660018401526015830191909152603582015260550190565b60408051601f19818403018152919052805160209091012095945050505050565b5f5f5f8360020b1261126d578260020b61127a565b8260020b61127a90611e4a565b9050611289620d89e719612251565b62ffffff168111156112c15760405162461bcd60e51b81526020600482015260016024820152601560fa1b6044820152606401610361565b5f816001165f036112d657600160801b6112e8565b6ffffcb933bd6fad37aa2d162d1a5940015b70ffffffffffffffffffffffffffffffffff1690506002821615611327576080611322826ffff97272373d413259a46990580e213a612271565b901c90505b600482161561135157608061134c826ffff2e50f5f656932ef12357cf3c7fdcc612271565b901c90505b600882161561137b576080611376826fffe5caca7e10e4e61c3624eaa0941cd0612271565b901c90505b60108216156113a55760806113a0826fffcb9843d60f6159c9db58835c926644612271565b901c90505b60208216156113cf5760806113ca826fff973b41fa98c081472e6896dfb254c0612271565b901c90505b60408216156113f95760806113f4826fff2ea16466c96a3843ec78b326b52861612271565b901c90505b608082161561142357608061141e826ffe5dee046a99a2a811c461f1969c3053612271565b901c90505b61010082161561144e576080611449826ffcbe86c7900a88aedcffc83b479aa3a4612271565b901c90505b610200821615611479576080611474826ff987a7253ac413176f2b074cf7815e54612271565b901c90505b6104008216156114a457608061149f826ff3392b0822b70005940c7a398e4b70f3612271565b901c90505b6108008216156114cf5760806114ca826fe7159475a2c29b7443b29c7fa6e889d9612271565b901c90505b6110008216156114fa5760806114f5826fd097f3bdfd2022b8845ad8f792aa5825612271565b901c90505b612000821615611525576080611520826fa9f746462d870fdf8a65dc1f90e061e5612271565b901c90505b61400082161561155057608061154b826f70d869a156d2a1b890bb3df62baf32f7612271565b901c90505b61800082161561157b576080611576826f31be135f97d08fd981231505542fcfa6612271565b901c90505b620100008216156115a75760806115a2826f09aa508b5b7a84e1c677de54f3e99bc9612271565b901c90505b620200008216156115d25760806115cd826e5d6af8dedb81196699c329225ee604612271565b901c90505b620400008216156115fc5760806115f7826d2216e584f5fa1ea926041bedfe98612271565b901c90505b6208000082161561162457608061161f826b048a170391f7dc42444e8fa2612271565b901c90505b5f8460020b131561163d5761163a815f1961223e565b90505b61164c64010000000082612288565b1561165857600161165a565b5f5b6102879060ff16602083901c612204565b5f836001600160a01b0316856001600160a01b0316111561168a579293925b846001600160a01b0316866001600160a01b0316116116b5576116ae8585856119a7565b9050611722565b836001600160a01b0316866001600160a01b031611611714575f6116da8786866119a7565b90505f6116e8878986611a07565b9050806001600160801b0316826001600160801b031610611709578061170b565b815b92505050611722565b61171f858584611a07565b90505b95945050505050565b5f61173860036014612204565b6014611745600382612204565b61174f9190612204565b6117599190612204565b825110159050919050565b6060610f7a5f6014611777600382612204565b6111569190612204565b6060610f7a61179260036014612204565b61114a60036014612204565b5f80806117ab84826117d9565b92506117b884601461183d565b90506117d06117c960036014612204565b85906117d9565b91509193909250565b5f6117e5826014612204565b8351101561182d5760405162461bcd60e51b8152602060048201526015602482015274746f416464726573735f6f75744f66426f756e647360581b6044820152606401610361565b500160200151600160601b900490565b5f611849826003612204565b835110156118905760405162461bcd60e51b8152602060048201526014602482015273746f55696e7432345f6f75744f66426f756e647360601b6044820152606401610361565b50016003015190565b6060816118a781601f612204565b10156118e65760405162461bcd60e51b815260206004820152600e60248201526d736c6963655f6f766572666c6f7760901b6044820152606401610361565b6118f08284612204565b845110156119345760405162461bcd60e51b8152602060048201526011602482015270736c6963655f6f75744f66426f756e647360781b6044820152606401610361565b6060821580156119525760405191505f82526020820160405261199c565b6040519150601f8416801560200281840101858101878315602002848b0101015b8183101561198b578051835260209283019201611973565b5050858452601f01601f1916604052505b5090505b9392505050565b5f826001600160a01b0316846001600160a01b031611156119c6579192915b5f6119e8856001600160a01b0316856001600160a01b0316600160601b611a39565b905061172283826119f98888612150565b6001600160a01b0316611a39565b5f826001600160a01b0316846001600160a01b03161115611a26579192915b61028782600160601b6119f98787612150565b5f80805f19858709858702925082811083820303915050805f03611a7057838281611a6657611a6661222a565b04925050506119a0565b838110611a9a57604051631dcf306360e21b81526004810182905260248101859052604401610361565b5f8486880960026001871981018816978890046003810283188082028403028082028403028082028403028082028403028082028403029081029092039091025f889003889004909101858311909403939093029303949094049190911702949350505050565b6148d08061229c83390190565b5f60a0828403128015611b1f575f5ffd5b509092915050565b634e487b7160e01b5f52604160045260245ffd5b5f82601f830112611b4a575f5ffd5b813567ffffffffffffffff811115611b6457611b64611b27565b604051601f8201601f19908116603f0116810167ffffffffffffffff81118282101715611b9357611b93611b27565b604052818152838201602001851015611baa575f5ffd5b816020850160208301375f918101602001919091529392505050565b6001600160a01b0381168114611bda575f5ffd5b50565b5f60808284031215611bed575f5ffd5b6040516080810167ffffffffffffffff81118282101715611c1057611c10611b27565b604052905080823567ffffffffffffffff811115611c2c575f5ffd5b611c3885828601611b3b565b8252506020830135611c4981611bc6565b602082015260408381013590820152606092830135920191909152919050565b5f60208284031215611c79575f5ffd5b813567ffffffffffffffff811115611c8f575f5ffd5b61028784828501611bdd565b803562ffffff81168114611cad575f5ffd5b919050565b5f5f5f60608486031215611cc4575f5ffd5b8335611ccf81611bc6565b92506020840135611cdf81611bc6565b9150611ced60408501611c9b565b90509250925092565b5f60c08284031215611d06575f5ffd5b50919050565b5f60c08284031215611d1c575f5ffd5b6119a08383611cf6565b5f610120828403128015611b1f575f5ffd5b5f5f83601f840112611d48575f5ffd5b50813567ffffffffffffffff811115611d5f575f5ffd5b602083019150836020828501011115611d76575f5ffd5b9250929050565b5f5f5f5f60608587031215611d90575f5ffd5b8435935060208501359250604085013567ffffffffffffffff811115611db4575f5ffd5b611dc087828801611d38565b95989497509550505050565b5f60208284031215611ddc575f5ffd5b81356119a081611bc6565b5f60208284031215611df7575f5ffd5b6119a082611c9b565b606093841b6001600160601b0319908116825260e89390931b6001600160e81b0319166014820152921b166017820152602b0190565b634e487b7160e01b5f52601160045260245ffd5b5f600160ff1b8201611e5e57611e5e611e36565b505f0390565b8060020b8114611bda575f5ffd5b5f60208284031215611e82575f5ffd5b81356119a081611e64565b80516001600160801b0381168114611cad575f5ffd5b5f5f5f5f5f60a08688031215611eb7575f5ffd5b611ec086611e8d565b6020870151604088015191965094509250611edd60608701611e8d565b9150611eeb60808701611e8d565b90509295509295909350565b805161ffff81168114611cad575f5ffd5b5f5f5f5f5f60a08688031215611f1c575f5ffd5b8551611f2781611bc6565b6020870151909550611f3881611e64565b9350611f4660408701611ef7565b9250611f5460608701611ef7565b9150611eeb60808701611ef7565b5f60208284031215611f72575f5ffd5b81516119a081611bc6565b5f81518084528060208401602086015e5f602082860101526020601f19601f83011685010191505092915050565b60018060a01b03861681528460020b60208201528360020b60408201526001600160801b038316606082015260a060808201525f611fec60a0830184611f7d565b979650505050505050565b5f5f60408385031215612008575f5ffd5b505080516020909101519092909150565b5f606082840312801561202a575f5ffd5b506040516060810167ffffffffffffffff8111828210171561204e5761204e611b27565b604052823561205c81611bc6565b8152602083013561206c81611bc6565b6020820152604083013561207f81611bc6565b60408201529392505050565b6001600160a01b039384168152919092166020820152604081019190915260600190565b5f602082840312156120bf575f5ffd5b813567ffffffffffffffff8111156120d5575f5ffd5b8201604081850312156120e6575f5ffd5b6040805190810167ffffffffffffffff8111828210171561210957612109611b27565b604052813567ffffffffffffffff811115612122575f5ffd5b61212e86828501611b3b565b8252506020820135915061214182611bc6565b60208101919091529392505050565b6001600160a01b038281168282160390811115610f7a57610f7a611e36565b6001600160a01b038181168382160190811115610f7a57610f7a611e36565b602081525f8251604060208401526121a96060840182611f7d565b602094909401516001600160a01b0316604093909301929092525090919050565b6001600160a01b0386811682528515156020830152604082018590528316606082015260a0608082018190525f90611fec90830184611f7d565b80820180821115610f7a57610f7a611e36565b81810381811115610f7a57610f7a611e36565b634e487b7160e01b5f52601260045260245ffd5b5f8261224c5761224c61222a565b500490565b5f8160020b627fffff19810361226957612269611e36565b5f0392915050565b8082028115828204841417610f7a57610f7a611e36565b5f826122965761229661222a565b50069056fe610120604052348015610010575f5ffd5b50336001600160a01b031663890357306040518163ffffffff1660e01b815260040160a0604051808303815f875af115801561004e573d5f5f3e3d5ffd5b505050506040513d601f19601f8201168201806040525081019061007291906100cb565b62ffffff908116610100521660e0526001600160a01b0390811660c05290811660a0521660805261012c565b80516001600160a01b03811681146100b4575f5ffd5b919050565b805162ffffff811681146100b4575f5ffd5b5f5f5f5f5f60a086880312156100df575f5ffd5b6100e88661009e565b94506100f66020870161009e565b93506101046040870161009e565b9250610112606087016100b9565b9150610120608087016100b9565b90509295509295909350565b60805160a05160c05160e051610100516146e96101e75f395f818161046b01528181610a7501528181610aab01526115fc01525f81816104090152818161155301528181611d2a0152611d6201525f818161044401528181610b8601528181610c9601528181610e1d015281816110b90152818161198a0152611f6e01525f818161013b01528181610afa01528181610c1401528181610d6d01528181610fc701528181611ab50152611edf01525f6103e201526146e95ff3fe608060405234801561000f575f5ffd5b5060043610610132575f3560e01c8063514ea4bf116100b4578063d0c93a7c11610079578063d0c93a7c14610404578063d21220a71461043f578063ddca3f4314610466578063f30583991461048d578063f30dba9314610495578063f637731d1461051d575f5ffd5b8063514ea4bf1461030b5780635339c2961461038b578063883bdbfd146103aa578063a34123a7146103ca578063c45a0155146103dd575f5ffd5b80633850c7bd116100fa5780633850c7bd1461021c5780633c8a7d8d1461029b57806346141319146102ae5780634a182392146102c55780634f1eb3d8146102d8575f5ffd5b80630dfe168114610136578063128acb081461017a5780631a686502146101a2578063252c09d7146101cd57806332148f6714610207575b5f5ffd5b61015d7f000000000000000000000000000000000000000000000000000000000000000081565b6040516001600160a01b0390911681526020015b60405180910390f35b61018d610188366004613ebd565b610530565b60408051928352602083019190915201610171565b6003546101b5906001600160801b031681565b6040516001600160801b039091168152602001610171565b6101e06101db366004613f41565b61077b565b6040805163ffffffff909416845260069290920b6020840152151590820152606001610171565b61021a610215366004613f58565b6107ae565b005b6002805461025d916001600160a01b03821691600160a01b810490910b9061ffff600160b81b8204811691600160c81b8104821691600160d81b9091041685565b604080516001600160a01b03909616865260029490940b602086015261ffff928316938501939093528116606084015216608082015260a001610171565b61018d6102a9366004613fa0565b61083d565b6102b760015481565b604051908152602001610171565b61021a6102d3366004613fea565b610a6e565b6102eb6102e6366004614039565b610ef3565b604080516001600160801b03938416815292909116602083015201610171565b610355610319366004613f41565b60066020525f908152604090208054600182015460028301546003909301546001600160801b0392831693919281811691600160801b90041685565b604080516001600160801b039687168152602081019590955284019290925283166060830152909116608082015260a001610171565b6102b761039936600461409c565b60056020525f908152604090205481565b6103bd6103b83660046140bc565b6111bb565b604051610171919061412d565b61018d6103d8366004614172565b61122a565b61015d7f000000000000000000000000000000000000000000000000000000000000000081565b61042b7f000000000000000000000000000000000000000000000000000000000000000081565b60405162ffffff9091168152602001610171565b61015d7f000000000000000000000000000000000000000000000000000000000000000081565b61042b7f000000000000000000000000000000000000000000000000000000000000000081565b6102b75f5481565b6104e26104a33660046141b2565b60046020525f9081526040902080546001820154600283015460039093015460ff8316936101009093046001600160801b031692600f9290920b919085565b6040805195151586526001600160801b039094166020860152600f9290920b928401929092526060830191909152608082015260a001610171565b61021a61052b3660046141cb565b611360565b6040805160a081018252600280546001600160a01b0381168352600160a01b810490910b602083015261ffff600160b81b8204811693830193909352600160c81b810483166060830152600160d81b900490911660808201526003545f9182916001600160801b0316886105e257815f01516001600160a01b0316876001600160a01b031610806105dd575073fffd8963efd1fc6a506488495d951d5263988d266001600160a01b038816115b610612565b815f01516001600160a01b0316876001600160a01b0316118061061257506401000276a36001600160a01b038816105b1561063057604051632d4eeeb360e21b815260040160405180910390fd5b5f5f891390505f6040518060c001604052808b81526020015f8152602001855f01516001600160a01b03168152602001856020015160020b81526020018c61067a5760015461067d565b5f545b8152602001846001600160801b0316815250905061069e8b838b848861147d565b945090506106ae81858d86611835565b8115158b1515146106cf57602081015181516106ca908c6141fa565b6106e1565b80516106db908b6141fa565b81602001515b90965094506106f48c8c88888c8c61197a565b6002805460a083810151604080518b8152602081018b90526001600160a01b03808616828401526001600160801b039093166060820152600160a01b90940490940b60808401529251928f169233927fc42079f94a6350d7e6235f29174924f928cc2ac818eb64fed8004e115fbcca6792908290030190a350505050965096945050505050565b60078161ffff811061078b575f80fd5b015463ffffffff81169150600160201b810460060b90600160581b900460ff1683565b600254600160d81b900461ffff165f6107c960078385611bda565b90508161ffff168161ffff1614610838576002805461ffff60d81b1916600160d81b61ffff8481169182029290921790925560408051918516825260208201929092527fac49e518f90a358f652e4400164f05a5d8f7e35e7747279bc3a93dbf584e125a910160405180910390a15b505050565b5f5f8560020b8760020b12158061085b5750620d89e719600288900b125b80610877575061086e620d89e719614220565b60020b8660020b135b15610894576040516264847d60e41b815260040160405180910390fd5b846001600160801b03165f036108bd57604051630200e8a960e31b815260040160405180910390fd5b5f5f6108fa60405180608001604052808c6001600160a01b031681526020018b60020b81526020018a60020b815260200189600f0b815250611c49565b92509250508193508092505f5f5f86111561091a57610917611ec8565b91505b841561092b57610928611f57565b90505b60405163d348799760e01b8152339063d34879979061095490899089908d908d90600401614268565b5f604051808303815f87803b15801561096b575f5ffd5b505af115801561097d573d5f5f3e3d5ffd5b505050505f8611801561099f5750610993611ec8565b61099d8784614287565b115b156109bd5760405163098fb56160e01b815260040160405180910390fd5b5f851180156109db57506109cf611f57565b6109d98683614287565b115b156109f95760405163098fb56160e01b815260040160405180910390fd5b604080513381526001600160801b038b1660208201529081018790526060810186905260028b810b91908d900b906001600160a01b038f16907f7a53080ba414158be7ec69b987b5fb7d07dee101fe85488f0853ae16239d0bde9060800160405180910390a450505050965096945050505050565b5f610aa2857f000000000000000000000000000000000000000000000000000000000000000062ffffff16620f4240611fa5565b90505f610ad8857f000000000000000000000000000000000000000000000000000000000000000062ffffff16620f4240611fa5565b6040516370a0823160e01b81523060048201529091505f906001600160a01b037f000000000000000000000000000000000000000000000000000000000000000016906370a08231906024016020604051808303815f875af1158015610b40573d5f5f3e3d5ffd5b505050506040513d601f19601f82011682018060405250810190610b64919061429a565b6040516370a0823160e01b81523060048201529091505f906001600160a01b037f000000000000000000000000000000000000000000000000000000000000000016906370a08231906024016020604051808303815f875af1158015610bcc573d5f5f3e3d5ffd5b505050506040513d601f19601f82011682018060405250810190610bf0919061429a565b90508715610c745760405163a9059cbb60e01b8152336004820152602481018990527f00000000000000000000000000000000000000000000000000000000000000006001600160a01b03169063a9059cbb906044015f604051808303815f87803b158015610c5d575f5ffd5b505af1158015610c6f573d5f5f3e3d5ffd5b505050505b8615610cf65760405163a9059cbb60e01b8152336004820152602481018890527f00000000000000000000000000000000000000000000000000000000000000006001600160a01b03169063a9059cbb906044015f604051808303815f87803b158015610cdf575f5ffd5b505af1158015610cf1573d5f5f3e3d5ffd5b505050505b604051630e9cbafb60e41b8152339063e9cbafb090610d1f90879087908b908b90600401614268565b5f604051808303815f87803b158015610d36575f5ffd5b505af1158015610d48573d5f5f3e3d5ffd5b505050508382610d589190614287565b6040516370a0823160e01b81523060048201527f00000000000000000000000000000000000000000000000000000000000000006001600160a01b0316906370a08231906024016020604051808303815f875af1158015610dbb573d5f5f3e3d5ffd5b505050506040513d601f19601f82011682018060405250810190610ddf919061429a565b1015610dfe57604051637bc35e0560e01b815260040160405180910390fd5b610e088382614287565b6040516370a0823160e01b81523060048201527f00000000000000000000000000000000000000000000000000000000000000006001600160a01b0316906370a08231906024016020604051808303815f875af1158015610e6b573d5f5f3e3d5ffd5b505050506040513d601f19601f82011682018060405250810190610e8f919061429a565b1015610eae57604051637bc35e0560e01b815260040160405180910390fd5b604080518981526020810189905233917f1c1db1f1d6a01e51fec24bb54087b65fe5430f692280e70d92f718eb72ae76b7910160405180910390a25050505050505050565b5f8080610f036006338989611fea565b60038101549091506001600160801b0390811690861611610f245784610f33565b60038101546001600160801b03165b60038201549093506001600160801b03600160801b909104811690851611610f5b5783610f71565b6003810154600160801b90046001600160801b03165b91506001600160801b0383161561105e576003810180548491905f90610fa19084906001600160801b03166142b1565b92506101000a8154816001600160801b0302191690836001600160801b031602179055507f00000000000000000000000000000000000000000000000000000000000000006001600160a01b031663a9059cbb89856040518363ffffffff1660e01b81526004016110309291906001600160a01b039290921682526001600160801b0316602082015260400190565b5f604051808303815f87803b158015611047575f5ffd5b505af1158015611059573d5f5f3e3d5ffd5b505050505b6001600160801b0382161561115057818160030160108282829054906101000a90046001600160801b031661109391906142b1565b92506101000a8154816001600160801b0302191690836001600160801b031602179055507f00000000000000000000000000000000000000000000000000000000000000006001600160a01b031663a9059cbb89846040518363ffffffff1660e01b81526004016111229291906001600160a01b039290921682526001600160801b0316602082015260400190565b5f604051808303815f87803b158015611139575f5ffd5b505af115801561114b573d5f5f3e3d5ffd5b505050505b604080516001600160a01b038a1681526001600160801b0385811660208301528416818301529051600288810b92908a900b9133917fa89c1c8a741251492622c95237828c75d1dbb03ea956f09e3792ff2a14f4fe62919081900360600190a4509550959350505050565b6060611221428484808060200260200160405190810160405280939291908181526020018383602002808284375f920191909152505060028054600795949350600160a01b810490910b915061ffff600160b81b8204811691600160c81b900416612046565b90505b92915050565b5f5f5f5f5f6112726040518060800160405280336001600160a01b031681526020018a60020b81526020018960020b815260200188611268906142d0565b600f0b9052611c49565b92509250925081611282906142f5565b945061128d816142f5565b93505f85118061129c57505f84115b156112fe5760038301546112ba9086906001600160801b031661430f565b60038401546112da908690600160801b90046001600160801b031661430f565b6001600160801b039182169116600160801b026001600160801b0319161760038401555b604080516001600160801b038816815260208101879052908101859052600288810b91908a900b9033907f0c396cd989a39f4459b5fa1aed6a9a8dcdbc45908acfd67e028cd568da98982c9060600160405180910390a4505050935093915050565b6002546001600160a01b0316156113895760405162dc149f60e41b815260040160405180910390fd5b5f611393826120f8565b90505f806113e3426007906040805160608101825263ffffffff929092168083525f602084015260019290910182905282546bffffffffffffffffffffffff191617600160581b17909155908190565b6040805160a0810182526001600160a01b0397909716808852600287810b60208a01525f9289019290925261ffff9384166060890181905292909316608090970187905280546001600160b81b031916909217600160a01b62ffffff909616959095029490941765ffffffffffff60b81b1916600160c81b90940261ffff60d81b191693909317600160d81b909402939093179091555050565b6040805160c0810182525f80825260208083018290528284018290526060808401839052608080850184905260a080860185905286519081018752848152928301849052948201839052810182905292830152905b8351158015906114f85750846001600160a01b031684604001516001600160a01b031614155b15611829576040805160e0810182525f8082526020820181905281830181815260608084018390526080840183905260a0840183905260c0840192909252928701516001600160a01b031690925290850151611578906005907f00000000000000000000000000000000000000000000000000000000000000008b612432565b1515602083015260020b80825261158e906125e7565b6001600160a01b0316606082015284516040860151611620908a6115ca57886001600160a01b031684606001516001600160a01b0316116115e4565b886001600160a01b031684606001516001600160a01b0316105b6115f25783606001516115f4565b885b8860a00151847f0000000000000000000000000000000000000000000000000000000000000000612a01565b60c086015260a085015260808401526001600160a01b031660408701528715611687578160c0015182608001516116579190614287565b865187906116669083906141fa565b90525060a082015160208701805161167f9083906141fa565b9052506116c7565b60a08201518651879061169b90839061432e565b90525060c082015160808301516116b29190614287565b866020018181516116c3919061432e565b9052505b60a08601516001600160801b03161561170f576116fa8260c00151600160801b8860a001516001600160801b0316612c70565b8660800181815161170b9190614287565b9052505b81606001516001600160a01b031686604001516001600160a01b0316036117eb578160200151156117c4575f611771835f01518b61174e575f54611754565b88608001515b8c611763578960800151611767565b6001545b6004929190612d38565b9050891561178557611782816142d0565b90505b6117938760a0015182612d84565b6001600160801b031660a088018190525f036117c257604051634323a55560e01b815260040160405180910390fd5b505b886117d05781516117de565b81516117de90600190614355565b60020b6060870152611822565b81604001516001600160a01b031686604001516001600160a01b0316146118225761181986604001516120f8565b60020b60608701525b50506114d2565b50919590945092505050565b826020015160020b846060015160020b146118f2575f5f611876856040015161185b4290565b6020880151606089015160808a015160079493929190612db4565b604088015160608901516002805463ffffffff60b81b1916600160c81b61ffff9586160261ffff60b81b191617600160b81b9590941694909402929092176001600160b81b031916600160a01b62ffffff909316929092026001600160a01b031916919091176001600160a01b03909116179055506119179050565b6040840151600280546001600160a01b0319166001600160a01b039092169190911790555b8360a001516001600160801b0316816001600160801b0316146119595760a0840151600380546001600160801b0319166001600160801b039092169190911790555b811561196b5760808401515f55611974565b60808401516001555b50505050565b8415611aab576001600160a01b037f00000000000000000000000000000000000000000000000000000000000000001663a9059cbb876119b9866142f5565b6040516001600160e01b031960e085901b1681526001600160a01b03909216600483015260248201526044015f604051808303815f87803b1580156119fc575f5ffd5b505af1158015611a0e573d5f5f3e3d5ffd5b505050505f611a1b611ec8565b60405163fa461e3360e01b8152909150339063fa461e3390611a47908890889088908890600401614268565b5f604051808303815f87803b158015611a5e575f5ffd5b505af1158015611a70573d5f5f3e3d5ffd5b50505050611a7c611ec8565b611a868683614287565b1115611aa55760405163098fb56160e01b815260040160405180910390fd5b50611bd2565b6001600160a01b037f00000000000000000000000000000000000000000000000000000000000000001663a9059cbb87611ae4876142f5565b6040516001600160e01b031960e085901b1681526001600160a01b03909216600483015260248201526044015f604051808303815f87803b158015611b27575f5ffd5b505af1158015611b39573d5f5f3e3d5ffd5b505050505f611b46611f57565b60405163fa461e3360e01b8152909150339063fa461e3390611b72908890889088908890600401614268565b5f604051808303815f87803b158015611b89575f5ffd5b505af1158015611b9b573d5f5f3e3d5ffd5b50505050611ba7611f57565b611bb18583614287565b1115611bd05760405163098fb56160e01b815260040160405180910390fd5b505b505050505050565b5f8261ffff168261ffff1611611bf1575081611c42565b825b8261ffff168161ffff161015611c3d576001858261ffff1661ffff8110611c1c57611c1c61437a565b01805463ffffffff191663ffffffff92909216919091179055600101611bf3565b508190505b9392505050565b6040805160a081018252600280546001600160a01b0381168352600160a01b810490910b60208084019190915261ffff600160b81b8304811684860152600160c81b830481166060850152600160d81b90920490911660808301525f8054600154865193870151958701519295869586959094611cc99260069291611fea565b6020808901519085015160608a01519298505f92611cee926004929091878787612ef7565b6040890151602086015160608b01519293505f92611d1492600492909188886001612ef7565b90508115611d4e576020890151611d4e906005907f0000000000000000000000000000000000000000000000000000000000000000612ffc565b8015611d86576040890151611d86906005907f0000000000000000000000000000000000000000000000000000000000000000612ffc565b6020808a015160408b0151918701515f928392611da892600492908a8a61304c565b60608d01519193509150611dbf908b908484613134565b8a6020015160020b876020015160020b1215611e0357611dfc611de58c602001516125e7565b611df28d604001516125e7565b8d60600151613279565b9850611eba565b8a6040015160020b876020015160020b1215611e9057611e2d875f0151611df28d604001516125e7565b9850611e4b611e3f8c602001516125e7565b885160608e01516132b3565b60035460608d0151919950611e6b916001600160801b0390911690612d84565b600380546001600160801b0319166001600160801b0392909216919091179055611eba565b611eb7611ea08c602001516125e7565b611ead8d604001516125e7565b8d606001516132b3565b97505b505050505050509193909250565b6040516370a0823160e01b81523060048201525f907f00000000000000000000000000000000000000000000000000000000000000006001600160a01b0316906370a08231906024015b6020604051808303815f875af1158015611f2e573d5f5f3e3d5ffd5b505050506040513d601f19601f82011682018060405250810190611f52919061429a565b905090565b6040516370a0823160e01b81523060048201525f907f00000000000000000000000000000000000000000000000000000000000000006001600160a01b0316906370a0823190602401611f12565b5f611fb1848484612c70565b90505f8280611fc257611fc261438e565b8486091115611c42575f198110611fd7575f5ffd5b80611fe1816143a2565b95945050505050565b6040805160609490941b6bffffffffffffffffffffffff191660208086019190915260e893841b60348601529190921b60378401528151601a818503018152603a90930182528251928101929092205f90815292909152902090565b6060845167ffffffffffffffff811115612062576120626143ba565b60405190808252806020026020018201604052801561208b578160200160208202803683370190505b5090505f5b85518110156120ed576120c088888884815181106120b0576120b061437a565b60200260200101518888886132df565b8282815181106120d2576120d261437a565b60069290920b60209283029190910190910152600101612090565b509695505050505050565b5f6401000276a36001600160a01b03831610801590612133575073fffd8963efd1fc6a506488495d951d5263988d266001600160a01b038316105b6121685760405162461bcd60e51b81526020600482015260016024820152602960f91b60448201526064015b60405180910390fd5b640100000000600160c01b03602083901b166001600160801b03811160071b81811c67ffffffffffffffff811160061b90811c63ffffffff811160051b90811c61ffff811160041b90811c60ff8111600390811b91821c600f811160021b90811c918211600190811b92831c97908811961790941790921717909117171760808110612203576121f9607f826143ce565b83901c9150612214565b61220e81607f6143ce565b83901b91505b5f60406122226080846141fa565b901b9050828302607f1c92508260801c80603f1b8217915083811c935050828302607f1c92508260801c80603e1b8217915083811c935050828302607f1c92508260801c80603d1b8217915083811c935050828302607f1c92508260801c80603c1b8217915083811c935050828302607f1c92508260801c80603b1b8217915083811c935050828302607f1c92508260801c80603a1b8217915083811c935050828302607f1c92508260801c8060391b8217915083811c935050828302607f1c92508260801c8060381b8217915083811c935050828302607f1c92508260801c8060371b8217915083811c935050828302607f1c92508260801c8060361b8217915083811c935050828302607f1c92508260801c8060351b8217915083811c935050828302607f1c92508260801c8060341b8217915083811c935050828302607f1c92508260801c8060331b8217915083811c935050828302607f1c92508260801c8060321b82179150505f81693627a301d71055774c856123a491906143e1565b90505f60806123c36f028f6481ab7f045a5af012a19d003aaa846141fa565b901d90505f60806123e4846fdb2df09e81959a81455e260799a0632f61432e565b901d90508060020b8260020b1461242357886001600160a01b0316612408826125e7565b6001600160a01b0316111561241d5781612425565b80612425565b815b9998505050505050505050565b5f808061243f8587614410565b90505f8660020b12801561245e57506124588587614448565b60020b15155b15612471578061246d81614469565b9150505b831561251b575f5f61248283613449565b90925090505f600160ff831681901b9061249c90826143ce565b6124a69190614287565b600184900b5f90815260208c9052604090205481168015159650909150856124e557886124d660ff851687614355565b6124e0919061448a565b612510565b886124ef82613465565b6124f990856144a9565b6125069060ff1687614355565b612510919061448a565b9650505050506125dd565b5f8061253061252b8460016144c2565b613449565b90925090505f612547600160ff841681901b6143ce565b600184900b5f90815260208c90526040902054901990811680151596509091508561259f57886125788460ff6144a9565b60ff166125868760016144c2565b61259091906144c2565b61259a919061448a565b6125d6565b88836125aa8361355a565b6125b491906144a9565b60ff166125c28760016144c2565b6125cc91906144c2565b6125d6919061448a565b9650505050505b5094509492505050565b5f5f5f8360020b126125fc578260020b612609565b8260020b612609906142f5565b9050612618620d89e719614220565b62ffffff168111156126505760405162461bcd60e51b81526020600482015260016024820152601560fa1b604482015260640161215f565b5f816001165f0361266557600160801b612677565b6ffffcb933bd6fad37aa2d162d1a5940015b70ffffffffffffffffffffffffffffffffff16905060028216156126b65760806126b1826ffff97272373d413259a46990580e213a6144e7565b901c90505b60048216156126e05760806126db826ffff2e50f5f656932ef12357cf3c7fdcc6144e7565b901c90505b600882161561270a576080612705826fffe5caca7e10e4e61c3624eaa0941cd06144e7565b901c90505b601082161561273457608061272f826fffcb9843d60f6159c9db58835c9266446144e7565b901c90505b602082161561275e576080612759826fff973b41fa98c081472e6896dfb254c06144e7565b901c90505b6040821615612788576080612783826fff2ea16466c96a3843ec78b326b528616144e7565b901c90505b60808216156127b25760806127ad826ffe5dee046a99a2a811c461f1969c30536144e7565b901c90505b6101008216156127dd5760806127d8826ffcbe86c7900a88aedcffc83b479aa3a46144e7565b901c90505b610200821615612808576080612803826ff987a7253ac413176f2b074cf7815e546144e7565b901c90505b61040082161561283357608061282e826ff3392b0822b70005940c7a398e4b70f36144e7565b901c90505b61080082161561285e576080612859826fe7159475a2c29b7443b29c7fa6e889d96144e7565b901c90505b611000821615612889576080612884826fd097f3bdfd2022b8845ad8f792aa58256144e7565b901c90505b6120008216156128b45760806128af826fa9f746462d870fdf8a65dc1f90e061e56144e7565b901c90505b6140008216156128df5760806128da826f70d869a156d2a1b890bb3df62baf32f76144e7565b901c90505b61800082161561290a576080612905826f31be135f97d08fd981231505542fcfa66144e7565b901c90505b62010000821615612936576080612931826f09aa508b5b7a84e1c677de54f3e99bc96144e7565b901c90505b6202000082161561296157608061295c826e5d6af8dedb81196699c329225ee6046144e7565b901c90505b6204000082161561298b576080612986826d2216e584f5fa1ea926041bedfe986144e7565b901c90505b620800008216156129b35760806129ae826b048a170391f7dc42444e8fa26144e7565b901c90505b5f8460020b13156129cc576129c9815f196144fe565b90505b6129da600160201b82614511565b156129e65760016129e8565b5f5b6129f99060ff16602083901c614287565b949350505050565b5f5f5f5f5f8612612b4a57855f612a2d82612a1f89620f4240614524565b62ffffff16620f4240612c70565b90506001600160a01b03808b16908c1610155f81612a5757612a528d8d8d6001613683565b612a64565b612a648c8e8d6001613703565b9050808310612a75578b9750612a84565b612a818d8c85856137cb565b97505b6001600160a01b03888116908d16148215612add5780612ab057612aab898f8e6001613703565b612ab2565b815b975080612aca57612ac5898f8e5f613683565b612ad6565b612ad68d8f8e5f613683565b9650612b1d565b80612af457612aef8e8a8e6001613683565b612af6565b815b975080612b0e57612b098e8a8e5f613703565b612b1a565b612b1a8e8e8e5f613703565b96505b612b3e8862ffffff8c16612b348d620f4240614524565b62ffffff16611fa5565b95505050505050612c64565b5f612b54876142f5565b90506001600160a01b03808a16908b1610155f81612b7e57612b798c8c8c6001613703565b612b8b565b612b8b8b8d8c6001613683565b9050808310612b9c578a9650612bab565b612ba88c8b85856137ec565b96505b6001600160a01b03878116908c16148215612c055780612bd657612bd1888e8d5f613683565b612bd8565b815b955080612bf157612bec888e8d6001613703565b612bfe565b612bfe8c8e8d6001613703565b9650612c46565b80612c1b57612c168d898d5f613703565b612c1d565b815b955080612c3657612c318d898d6001613683565b612c43565b612c438d8d8d6001613683565b96505b612c5d8762ffffff8b16612b348c620f4240614524565b9450505050505b95509550955095915050565b5f80805f19858709858702925082811083820303915050805f03612ca757838281612c9d57612c9d61438e565b0492505050611c42565b838110612cd157604051631dcf306360e21b8152600481018290526024810185905260440161215f565b5f8486880960026001871981018816978890046003810283188082028403028082028403028082028403028082028403028082028403029081029092039091025f889003889004909101858311909403939093029303949094049190911702949350505050565b600283810b5f90815260208690526040812091820154909190612d5b90856143ce565b60028201556003810154612d6f90846143ce565b600382015560010154600f0b95945050505050565b5f5f82600f0b1215612daa57612d99826142d0565b612da390846142b1565b9050611224565b611221828461430f565b5f5f5f888861ffff1661ffff8110612dce57612dce61437a565b60408051606081018252919092015463ffffffff808216808452600160201b830460060b6020850152600160581b90920460ff161515938301939093529092509088169003612e235787859250925050612eec565b8461ffff168461ffff16118015612e4b5750612e4060018661453f565b61ffff168861ffff16145b15612e5857839150612e5c565b8491505b81612e68896001614559565b612e729190614573565b9250612e7f818888613808565b898461ffff1661ffff8110612e9657612e9661437a565b82519101805460208401516040909401511515600160581b0260ff60581b1966ffffffffffffff909516600160201b026affffffffffffffffffffff1990921663ffffffff909416939093171792909216179055505b965096945050505050565b600286900b5f908152602088905260408120805461010090046001600160801b031682612f248289612d84565b6001600160801b03808216159084168015919091141595509091505f03612f6d578860020b8a60020b13612f615760028301879055600383018690555b825460ff191660011783555b825470ffffffffffffffffffffffffffffffff0019166101006001600160801b0383160217835584612fb4576001830154612faf90600f8a810b91900b61432e565b612fca565b6001830154612fca90600f8a810b91900b6141fa565b60019390930180546001600160801b0319166001600160801b0390941693909317909255509098975050505050505050565b6130068183614448565b60020b15613012575f5ffd5b5f8061302161252b8486614410565b600191820b5f9081526020979097526040909620805460ff9097169190911b90951890945550505050565b600285810b5f8181526020899052604080822088850b83529082209193849391929184918291908a900b1261308c575050600282015460038301546130b0565b600284015461309b90896143ce565b91508360030154876130ad91906143ce565b90505b5f5f8b60020b8b60020b12156130d1575050600283015460038401546130f5565b60028501546130e0908b6143ce565b91508460030154896130f291906143ce565b90505b81613100858c6143ce565b61310a91906143ce565b975080613117848b6143ce565b61312191906143ce565b9650505050505050965096945050505050565b5f61315d85600101548461314891906143ce565b86546001600160801b0316600160801b612c70565b90505f61318886600201548461317391906143ce565b87546001600160801b0316600160801b612c70565b86549091506131a0906001600160801b031686612d84565b86546001600160801b0319166001600160801b03918216178755600187018590556002870184905582161515806131df57505f816001600160801b0316115b15611bd2576003860180548391905f906132039084906001600160801b031661430f565b92506101000a8154816001600160801b0302191690836001600160801b03160217905550808660030160108282829054906101000a90046001600160801b031661324d919061430f565b92506101000a8154816001600160801b0302191690836001600160801b03160217905550505050505050565b5f5f82600f0b12613296576132918484846001613703565b6129f9565b6132aa84846132a4856142d0565b5f613703565b6129f9906142f5565b5f5f82600f0b126132cb576132918484846001613683565b6132aa84846132d9856142d0565b5f613683565b5f8463ffffffff165f03613366575f878461ffff1661ffff81106133055761330561437a565b60408051606081018252919092015463ffffffff808216808452600160201b830460060b6020850152600160581b90920460ff161515938301939093529092509088161461335b57613358818887613808565b90505b60200151905061343f565b5f6133718688614596565b90505f5f6133838a8a858a8a8a613885565b91509150815f015163ffffffff168363ffffffff16036133ab575060200151915061343f9050565b805f015163ffffffff168363ffffffff16036133cf5760200151925061343f915050565b815181515f916133de91614596565b63ffffffff1690505f835f0151856133f69190614596565b63ffffffff16905080828560200151856020015161341491906145b2565b61341e91906145df565b6134289190614612565b84602001516134379190614631565b955050505050505b9695505050505050565b600281900b60081d5f61345e61010084614448565b9050915091565b5f5f8211613471575f5ffd5b600160801b821061348f57608091821c9161348c908261465e565b90505b6801000000000000000082106134b257604091821c916134af908261465e565b90505b600160201b82106134d057602091821c916134cd908261465e565b90505b6201000082106134ed57601091821c916134ea908261465e565b90505b610100821061350957600891821c91613506908261465e565b90505b6010821061352457600491821c91613521908261465e565b90505b6004821061353f57600291821c9161353c908261465e565b90505b600282106135555761355260018261465e565b90505b919050565b5f5f8211613566575f5ffd5b5060ff6001600160801b0382161561358a576135836080826144a9565b9050613592565b608082901c91505b67ffffffffffffffff8216156135b4576135ad6040826144a9565b90506135bc565b604082901c91505b63ffffffff8216156135da576135d36020826144a9565b90506135e2565b602082901c91505b61ffff8216156135fe576135f76010826144a9565b9050613606565b601082901c91505b60ff8216156136215761361a6008826144a9565b9050613629565b600882901c91505b600f8216156136445761363d6004826144a9565b905061364c565b600482901c91505b6003821615613667576136606002826144a9565b905061366f565b600282901c91505b6001821615613555576135526001826144a9565b5f836001600160a01b0316856001600160a01b031611156136a2579293925b81156136d9576136d26001600160801b0384166136bf8787614677565b6001600160a01b0316600160601b611fa5565b90506129f9565b611fe16001600160801b0384166136f08787614677565b6001600160a01b0316600160601b612c70565b5f836001600160a01b0316856001600160a01b03161115613722579293925b5f856001600160a01b031611613736575f5ffd5b600160601b600160e01b03606084901b165f6137528787614677565b6001600160a01b0316905083156137965761378f61377a8383896001600160a01b0316611fa5565b886001600160a01b0316808204910615150190565b92506137c1565b866001600160a01b03166137b48383896001600160a01b0316612c70565b6137be91906144fe565b92505b5050949350505050565b5f816137e1576137dc858585613a4f565b611fe1565b611fe1858585613a7b565b5f816137fd576137dc858585613b1d565b611fe1858585613bb0565b604080516060810182525f808252602082018190529181019190915283515f906138329085614596565b63ffffffff16905060405180606001604052808563ffffffff168152602001828560020b6138609190614612565b876020015161386f9190614631565b60060b8152600160209091015295945050505050565b604080516060810182525f8082526020820181905291810191909152604080516060810182525f8082526020820181905291810191909152878461ffff1661ffff81106138d4576138d461437a565b60408051606081018252919092015463ffffffff8116808352600160201b820460060b6020840152600160581b90910460ff16151592820192909252925061391e90889088613bc9565b1561394957815163ffffffff878116911614612eec5781613940838888613808565b91509150612eec565b8783613956866001614559565b6139609190614573565b61ffff1661ffff81106139755761397561437a565b60408051606081018252919092015463ffffffff81168252600160201b810460060b6020830152600160581b900460ff16151591810182905292506139ee5760408051606081018252895463ffffffff81168252600160201b810460060b6020830152600160581b900460ff1615159181019190915291505b815f015163ffffffff168663ffffffff161015613a335760405162461bcd60e51b815260206004820152600360248201526213d31160ea1b604482015260640161215f565b613a408888888787613c95565b91509150965096945050505050565b5f613a6882600160601b856001600160801b0316612c70565b6129f9906001600160a01b038616614287565b5f600160601b600160e01b03606084901b1681613aa16001600160a01b038716856144e7565b90506001600160a01b038616613ab785836144fe565b03613af0575f613ac78284614287565b9050828110613aee57613ae483886001600160a01b031683611fa5565b9350505050611c42565b505b61343f8285613b086001600160a01b038a16836144fe565b613b129190614287565b808204910615150190565b5f600160601b600160e01b03606084901b1681613b436001600160a01b038716856144e7565b90506001600160a01b038616613b5985836144fe565b03613b88575f613b698284614287565b9050828110613b8657613ae483886001600160a01b031683612c70565b505b83613b9c6001600160a01b038816846144fe565b613ba69190614287565b61343f90836144fe565b5f613a6882600160601b856001600160801b0316611fa5565b5f8363ffffffff168363ffffffff1611158015613bf257508363ffffffff168263ffffffff1611155b15613c0e578163ffffffff168363ffffffff1611159050611c42565b5f8463ffffffff168463ffffffff1611613c3b57613c3663ffffffff8516600160201b614696565b613c43565b8363ffffffff165b64ffffffffff1690505f8563ffffffff168463ffffffff1611613c7957613c7463ffffffff8516600160201b614696565b613c81565b8363ffffffff165b64ffffffffff169091111595945050505050565b60408051606080820183525f8083526020808401829052838501829052845192830185528183528201819052928101839052909183613cd5866001614559565b613cdf9190614573565b61ffff1690505f60018561ffff1683613cf89190614287565b613d0291906143ce565b90505f5b6002613d128385614287565b613d1c91906144fe565b905089613d2d61ffff881683614511565b61ffff8110613d3e57613d3e61437a565b60408051606081018252919092015463ffffffff81168252600160201b810460060b6020830152600160581b900460ff1615159181018290529550613d8f57613d88816001614287565b9250613d06565b8961ffff8716613da0836001614287565b613daa9190614511565b61ffff8110613dbb57613dbb61437a565b60408051606081018252929091015463ffffffff81168352600160201b810460060b602084015260ff600160581b9091041615159082015285519094505f90613e06908b908b613bc9565b9050808015613e1e5750613e1e8a8a875f0151613bc9565b15613e295750613e54565b80613e4057613e396001836143ce565b9250613e4e565b613e4b826001614287565b93505b50613d06565b5050509550959350505050565b6001600160a01b0381168114613e75575f5ffd5b50565b5f5f83601f840112613e88575f5ffd5b50813567ffffffffffffffff811115613e9f575f5ffd5b602083019150836020828501011115613eb6575f5ffd5b9250929050565b5f5f5f5f5f5f60a08789031215613ed2575f5ffd5b8635613edd81613e61565b955060208701358015158114613ef1575f5ffd5b9450604087013593506060870135613f0881613e61565b9250608087013567ffffffffffffffff811115613f23575f5ffd5b613f2f89828a01613e78565b979a9699509497509295939492505050565b5f60208284031215613f51575f5ffd5b5035919050565b5f60208284031215613f68575f5ffd5b813561ffff81168114611c42575f5ffd5b8035600281900b8114613555575f5ffd5b80356001600160801b0381168114613555575f5ffd5b5f5f5f5f5f5f60a08789031215613fb5575f5ffd5b8635613fc081613e61565b9550613fce60208801613f79565b9450613fdc60408801613f79565b9350613f0860608801613f8a565b5f5f5f5f60608587031215613ffd575f5ffd5b8435935060208501359250604085013567ffffffffffffffff811115614021575f5ffd5b61402d87828801613e78565b95989497509550505050565b5f5f5f5f5f60a0868803121561404d575f5ffd5b853561405881613e61565b945061406660208701613f79565b935061407460408701613f79565b925061408260608701613f8a565b915061409060808701613f8a565b90509295509295909350565b5f602082840312156140ac575f5ffd5b81358060010b8114611c42575f5ffd5b5f5f602083850312156140cd575f5ffd5b823567ffffffffffffffff8111156140e3575f5ffd5b8301601f810185136140f3575f5ffd5b803567ffffffffffffffff811115614109575f5ffd5b8560208260051b840101111561411d575f5ffd5b6020919091019590945092505050565b602080825282518282018190525f918401906040840190835b8181101561416757835160060b835260209384019390920191600101614146565b509095945050505050565b5f5f5f60608486031215614184575f5ffd5b61418d84613f79565b925061419b60208501613f79565b91506141a960408501613f8a565b90509250925092565b5f602082840312156141c2575f5ffd5b61122182613f79565b5f602082840312156141db575f5ffd5b8135611c4281613e61565b634e487b7160e01b5f52601160045260245ffd5b8181035f831280158383131683831282161715614219576142196141e6565b5092915050565b5f8160020b627fffff198103614238576142386141e6565b5f0392915050565b81835281816020850137505f828201602090810191909152601f909101601f19169091010190565b848152836020820152606060408201525f61343f606083018486614240565b80820180821115611224576112246141e6565b5f602082840312156142aa575f5ffd5b5051919050565b6001600160801b038281168282160390811115611224576112246141e6565b5f81600f0b6f7fffffffffffffffffffffffffffffff198103614238576142386141e6565b5f600160ff1b8201614309576143096141e6565b505f0390565b6001600160801b038181168382160190811115611224576112246141e6565b8082018281125f83128015821682158216171561434d5761434d6141e6565b505092915050565b600282810b9082900b03627fffff198112627fffff82131715611224576112246141e6565b634e487b7160e01b5f52603260045260245ffd5b634e487b7160e01b5f52601260045260245ffd5b5f600182016143b3576143b36141e6565b5060010190565b634e487b7160e01b5f52604160045260245ffd5b81810381811115611224576112246141e6565b8082025f8212600160ff1b841416156143fc576143fc6141e6565b8181058314821517611224576112246141e6565b5f8160020b8360020b806144265761442661438e565b627fffff1982145f198214161561443f5761443f6141e6565b90059392505050565b5f8260020b8061445a5761445a61438e565b808360020b0791505092915050565b5f8160020b627fffff198103614481576144816141e6565b5f190192915050565b5f8260020b8260020b028060020b9150808214614219576142196141e6565b60ff8281168282160390811115611224576112246141e6565b600281810b9083900b01627fffff8113627fffff1982121715611224576112246141e6565b8082028115828204841417611224576112246141e6565b5f8261450c5761450c61438e565b500490565b5f8261451f5761451f61438e565b500690565b62ffffff8281168282160390811115611224576112246141e6565b61ffff8281168282160390811115611224576112246141e6565b61ffff8181168382160190811115611224576112246141e6565b5f61ffff8316806145865761458661438e565b8061ffff84160691505092915050565b63ffffffff8281168282160390811115611224576112246141e6565b600682810b9082900b03667fffffffffffff198112667fffffffffffff82131715611224576112246141e6565b5f8160060b8360060b806145f5576145f561438e565b667fffffffffffff1982145f198214161561443f5761443f6141e6565b5f8260060b8260060b028060060b9150808214614219576142196141e6565b600681810b9083900b01667fffffffffffff8113667fffffffffffff1982121715611224576112246141e6565b60ff8181168382160190811115611224576112246141e6565b6001600160a01b038281168282160390811115611224576112246141e6565b64ffffffffff8181168382160190811115611224576112246141e656fea26469706673582212209217770e78b8217c33376f6d65f47faec04d202c7d4788a5f5cd5771fa9e3bf064736f6c634300081c0033a2646970667358221220760200da8dd513ba45e86d438df82df6d38f1a21703a0d6460a334ce112b769464736f6c634300081c0033","linkReferences":{}},"methodIdentifiers":{"factory()":"c45a0155","getPoolAddress(address,address,uint24)":"696d6283","getPosition((address,address,uint24,address,int24,int24))":"97a90f61","mint((address,address,uint24,int24,int24,uint256,uint256,uint256,uint256))":"aa88a96c","swapExactInput((bytes,address,uint256,uint256))":"abf793d9","swapExactInputSingle((address,address,uint24,uint256,uint160))":"10380a8a","swapExactOutput((bytes,address,uint256,uint256))":"68d66884","swapExactOutputSingle((address,address,uint24,uint256,uint256,uint160))":"6e49decb","uniswapV3MintCallback(uint256,uint256,bytes)":"d3487997","uniswapV3SwapCallback(int256,int256,bytes)":"fa461e33"},"id":15}